{
  "_format": "hh-sol-artifact-1",
  "contractName": "MockERC20",
  "sourceName": "contracts/MockERC20.sol",
  "abi": [
    {
      "inputs": [],
      "stateMutability": "nonpayable",
      "type": "constructor"
    },
    {
      "inputs": [
        {
          "internalType": "address",
          "name": "spender",
          "type": "address"
        },
        {
          "internalType": "uint256",
          "name": "allowance",
          "type": "uint256"
        },
        {
          "internalType": "uint256",
          "name": "needed",
          "type": "uint256"
        }
      ],
      "name": "ERC20InsufficientAllowance",
      "type": "error"
    },
    {
      "inputs": [
        {
          "internalType": "address",
          "name": "sender",
          "type": "address"
        },
        {
          "internalType": "uint256",
          "name": "balance",
          "type": "uint256"
        },
        {
          "internalType": "uint256",
          "name": "needed",
          "type": "uint256"
        }
      ],
      "name": "ERC20InsufficientBalance",
      "type": "error"
    },
    {
      "inputs": [
        {
          "internalType": "address",
          "name": "approver",
          "type": "address"
        }
      ],
      "name": "ERC20InvalidApprover",
      "type": "error"
    },
    {
      "inputs": [
        {
          "internalType": "address",
          "name": "receiver",
          "type": "address"
        }
      ],
      "name": "ERC20InvalidReceiver",
      "type": "error"
    },
    {
      "inputs": [
        {
          "internalType": "address",
          "name": "sender",
          "type": "address"
        }
      ],
      "name": "ERC20InvalidSender",
      "type": "error"
    },
    {
      "inputs": [
        {
          "internalType": "address",
          "name": "spender",
          "type": "address"
        }
      ],
      "name": "ERC20InvalidSpender",
      "type": "error"
    },
    {
      "anonymous": false,
      "inputs": [
        {
          "indexed": true,
          "internalType": "address",
          "name": "owner",
          "type": "address"
        },
        {
          "indexed": true,
          "internalType": "address",
          "name": "spender",
          "type": "address"
        },
        {
          "indexed": false,
          "internalType": "uint256",
          "name": "value",
          "type": "uint256"
        }
      ],
      "name": "Approval",
      "type": "event"
    },
    {
      "anonymous": false,
      "inputs": [
        {
          "indexed": true,
          "internalType": "address",
          "name": "from",
          "type": "address"
        },
        {
          "indexed": true,
          "internalType": "address",
          "name": "to",
          "type": "address"
        },
        {
          "indexed": false,
          "internalType": "uint256",
          "name": "value",
          "type": "uint256"
        }
      ],
      "name": "Transfer",
      "type": "event"
    },
    {
      "inputs": [],
      "name": "FAUCET_AMOUNT",
      "outputs": [
        {
          "internalType": "uint256",
          "name": "",
          "type": "uint256"
        }
      ],
      "stateMutability": "view",
      "type": "function"
    },
    {
      "inputs": [
        {
          "internalType": "address",
          "name": "owner",
          "type": "address"
        },
        {
          "internalType": "address",
          "name": "spender",
          "type": "address"
        }
      ],
      "name": "allowance",
      "outputs": [
        {
          "internalType": "uint256",
          "name": "",
          "type": "uint256"
        }
      ],
      "stateMutability": "view",
      "type": "function"
    },
    {
      "inputs": [
        {
          "internalType": "address",
          "name": "spender",
          "type": "address"
        },
        {
          "internalType": "uint256",
          "name": "value",
          "type": "uint256"
        }
      ],
      "name": "approve",
      "outputs": [
        {
          "internalType": "bool",
          "name": "",
          "type": "bool"
        }
      ],
      "stateMutability": "nonpayable",
      "type": "function"
    },
    {
      "inputs": [
        {
          "internalType": "address",
          "name": "account",
          "type": "address"
        }
      ],
      "name": "balanceOf",
      "outputs": [
        {
          "internalType": "uint256",
          "name": "",
          "type": "uint256"
        }
      ],
      "stateMutability": "view",
      "type": "function"
    },
    {
      "inputs": [],
      "name": "decimals",
      "outputs": [
        {
          "internalType": "uint8",
          "name": "",
          "type": "uint8"
        }
      ],
      "stateMutability": "view",
      "type": "function"
    },
    {
      "inputs": [],
      "name": "faucet",
      "outputs": [],
      "stateMutability": "nonpayable",
      "type": "function"
    },
    {
      "inputs": [
        {
          "internalType": "address",
          "name": "to",
          "type": "address"
        },
        {
          "internalType": "uint256",
          "name": "amount",
          "type": "uint256"
        }
      ],
      "name": "mint",
      "outputs": [],
      "stateMutability": "nonpayable",
      "type": "function"
    },
    {
      "inputs": [],
      "name": "name",
      "outputs": [
        {
          "internalType": "string",
          "name": "",
          "type": "string"
        }
      ],
      "stateMutability": "view",
      "type": "function"
    },
    {
      "inputs": [],
      "name": "symbol",
      "outputs": [
        {
          "internalType": "string",
          "name": "",
          "type": "string"
        }
      ],
      "stateMutability": "view",
      "type": "function"
    },
    {
      "inputs": [],
      "name": "totalSupply",
      "outputs": [
        {
          "internalType": "uint256",
          "name": "",
          "type": "uint256"
        }
      ],
      "stateMutability": "view",
      "type": "function"
    },
    {
      "inputs": [
        {
          "internalType": "address",
          "name": "to",
          "type": "address"
        },
        {
          "internalType": "uint256",
          "name": "value",
          "type": "uint256"
        }
      ],
      "name": "transfer",
      "outputs": [
        {
          "internalType": "bool",
          "name": "",
          "type": "bool"
        }
      ],
      "stateMutability": "nonpayable",
      "type": "function"
    },
    {
      "inputs": [
        {
          "internalType": "address",
          "name": "from",
          "type": "address"
        },
        {
          "internalType": "address",
          "name": "to",
          "type": "address"
        },
        {
          "internalType": "uint256",
          "name": "value",
          "type": "uint256"
        }
      ],
      "name": "transferFrom",
      "outputs": [
        {
          "internalType": "bool",
          "name": "",
          "type": "bool"
        }
      ],
      "stateMutability": "nonpayable",
      "type": "function"
    }
  ],
  "bytecode": "0x608060405234801561001057600080fd5b50604051806040016040528060098152602001684d6f636b205553444360b81b815250604051806040016040528060058152602001646d5553444360d81b81525081600390816100609190610297565b50600461006d8282610297565b50505061008a3369d3c21bcecceda100000061008f60201b60201c565b61037c565b6001600160a01b0382166100be5760405163ec442f0560e01b8152600060048201526024015b60405180910390fd5b6100ca600083836100ce565b5050565b6001600160a01b0383166100f95780600260008282546100ee9190610355565b9091555061016b9050565b6001600160a01b0383166000908152602081905260409020548181101561014c5760405163391434e360e21b81526001600160a01b038516600482015260248101829052604481018390526064016100b5565b6001600160a01b03841660009081526020819052604090209082900390555b6001600160a01b038216610187576002805482900390556101a6565b6001600160a01b03821660009081526020819052604090208054820190555b816001600160a01b0316836001600160a01b03167fddf252ad1be2c89b69c2b068fc378daa952ba7f163c4a11628f55a4df523b3ef836040516101eb91815260200190565b60405180910390a3505050565b634e487b7160e01b600052604160045260246000fd5b600181811c9082168061022257607f821691505b60208210810361024257634e487b7160e01b600052602260045260246000fd5b50919050565b601f82111561029257806000526020600020601f840160051c8101602085101561026f5750805b601f840160051c820191505b8181101561028f576000815560010161027b565b50505b505050565b81516001600160401b038111156102b0576102b06101f8565b6102c4816102be845461020e565b84610248565b6020601f8211600181146102f857600083156102e05750848201515b600019600385901b1c1916600184901b17845561028f565b600084815260208120601f198516915b828110156103285787850151825560209485019460019092019101610308565b50848210156103465786840151600019600387901b60f8161c191681555b50505050600190811b01905550565b8082018082111561037657634e487b7160e01b600052601160045260246000fd5b92915050565b6107cb8061038b6000396000f3fe608060405234801561001057600080fd5b50600436106100b45760003560e01c806370a082311161007157806370a0823114610143578063766976401461016c57806395d89b411461017d578063a9059cbb14610185578063dd62ed3e14610198578063de5f72fd146101d157600080fd5b806306fdde03146100b9578063095ea7b3146100d757806318160ddd146100fa57806323b872dd1461010c578063313ce5671461011f57806340c10f191461012e575b600080fd5b6100c16101d9565b6040516100ce9190610614565b60405180910390f35b6100ea6100e536600461067e565b61026b565b60405190151581526020016100ce565b6002545b6040519081526020016100ce565b6100ea61011a3660046106a8565b610285565b604051601281526020016100ce565b61014161013c36600461067e565b6102a9565b005b6100fe6101513660046106e5565b6001600160a01b031660009081526020819052604090205490565b6100fe69021e19e0c9bab240000081565b6100c16102b7565b6100ea61019336600461067e565b6102c6565b6100fe6101a6366004610707565b6001600160a01b03918216600090815260016020908152604080832093909416825291909152205490565b6101416102d4565b6060600380546101e89061073a565b80601f01602080910402602001604051908101604052809291908181526020018280546102149061073a565b80156102615780601f1061023657610100808354040283529160200191610261565b820191906000526020600020905b81548152906001019060200180831161024457829003601f168201915b5050505050905090565b6000336102798185856102ea565b60019150505b92915050565b6000336102938582856102fc565b61029e858585610380565b506001949350505050565b6102b382826103df565b5050565b6060600480546101e89061073a565b600033610279818585610380565b6102e83369021e19e0c9bab24000006103df565b565b6102f78383836001610415565b505050565b6001600160a01b0383811660009081526001602090815260408083209386168352929052205460001981101561037a578181101561036b57604051637dc7a0d960e11b81526001600160a01b038416600482015260248101829052604481018390526064015b60405180910390fd5b61037a84848484036000610415565b50505050565b6001600160a01b0383166103aa57604051634b637e8f60e11b815260006004820152602401610362565b6001600160a01b0382166103d45760405163ec442f0560e01b815260006004820152602401610362565b6102f78383836104ea565b6001600160a01b0382166104095760405163ec442f0560e01b815260006004820152602401610362565b6102b3600083836104ea565b6001600160a01b03841661043f5760405163e602df0560e01b815260006004820152602401610362565b6001600160a01b03831661046957604051634a1406b160e11b815260006004820152602401610362565b6001600160a01b038085166000908152600160209081526040808320938716835292905220829055801561037a57826001600160a01b0316846001600160a01b03167f8c5be1e5ebec7d5bd14f71427d1e84f3dd0314c0f7b2291e5b200ac8c7c3b925846040516104dc91815260200190565b60405180910390a350505050565b6001600160a01b03831661051557806002600082825461050a9190610774565b909155506105879050565b6001600160a01b038316600090815260208190526040902054818110156105685760405163391434e360e21b81526001600160a01b03851660048201526024810182905260448101839052606401610362565b6001600160a01b03841660009081526020819052604090209082900390555b6001600160a01b0382166105a3576002805482900390556105c2565b6001600160a01b03821660009081526020819052604090208054820190555b816001600160a01b0316836001600160a01b03167fddf252ad1be2c89b69c2b068fc378daa952ba7f163c4a11628f55a4df523b3ef8360405161060791815260200190565b60405180910390a3505050565b602081526000825180602084015260005b818110156106425760208186018101516040868401015201610625565b506000604082850101526040601f19601f83011684010191505092915050565b80356001600160a01b038116811461067957600080fd5b919050565b6000806040838503121561069157600080fd5b61069a83610662565b946020939093013593505050565b6000806000606084860312156106bd57600080fd5b6106c684610662565b92506106d460208501610662565b929592945050506040919091013590565b6000602082840312156106f757600080fd5b61070082610662565b9392505050565b6000806040838503121561071a57600080fd5b61072383610662565b915061073160208401610662565b90509250929050565b600181811c9082168061074e57607f821691505b60208210810361076e57634e487b7160e01b600052602260045260246000fd5b50919050565b8082018082111561027f57634e487b7160e01b600052601160045260246000fdfea2646970667358221220145a73248b111def16419f69f78615ba2847d12f6d636fa7cb66ff1e6365eb6a64736f6c634300081c0033",
  "linkReferences": {},
  "deployedLinkReferences": {}
}