{"contracts/GhostPay.sol":{"GhostPay":{"abi":[{"inputs":[{"internalType":"contract IERC20","name":"underlying_","type":"address"},{"internalType":"string","name":"name_","type":"string"},{"internalType":"string","name":"symbol_","type":"string"},{"internalType":"string","name":"contractURI_","type":"string"}],"stateMutability":"nonpayable","type":"constructor"},{"inputs":[{"internalType":"address","name":"receiver","type":"address"}],"name":"ERC7984InvalidReceiver","type":"error"},{"inputs":[{"internalType":"address","name":"sender","type":"address"}],"name":"ERC7984InvalidSender","type":"error"},{"inputs":[],"name":"ERC7984TotalSupplyOverflow","type":"error"},{"inputs":[{"internalType":"address","name":"caller","type":"address"}],"name":"ERC7984UnauthorizedCaller","type":"error"},{"inputs":[{"internalType":"address","name":"holder","type":"address"},{"internalType":"address","name":"spender","type":"address"}],"name":"ERC7984UnauthorizedSpender","type":"error"},{"inputs":[{"internalType":"euint256","name":"amount","type":"bytes32"},{"internalType":"address","name":"user","type":"address"}],"name":"ERC7984UnauthorizedUseOfEncryptedAmount","type":"error"},{"inputs":[{"internalType":"address","name":"holder","type":"address"}],"name":"ERC7984ZeroBalance","type":"error"},{"inputs":[{"internalType":"euint256","name":"unwrapRequestId","type":"bytes32"}],"name":"InvalidUnwrapRequest","type":"error"},{"inputs":[{"internalType":"bytes","name":"data","type":"bytes"}],"name":"MalformedDecryptedData","type":"error"},{"inputs":[{"internalType":"address","name":"owner","type":"address"}],"name":"OwnableInvalidOwner","type":"error"},{"inputs":[{"internalType":"address","name":"account","type":"address"}],"name":"OwnableUnauthorizedAccount","type":"error"},{"inputs":[{"internalType":"address","name":"token","type":"address"}],"name":"SafeERC20FailedOperation","type":"error"},{"anonymous":false,"inputs":[{"indexed":true,"internalType":"address","name":"from","type":"address"},{"indexed":true,"internalType":"address","name":"to","type":"address"},{"indexed":true,"internalType":"euint256","name":"amount","type":"bytes32"}],"name":"ConfidentialTransfer","type":"event"},{"anonymous":false,"inputs":[{"indexed":true,"internalType":"address","name":"holder","type":"address"},{"indexed":true,"internalType":"address","name":"operator","type":"address"},{"indexed":false,"internalType":"uint48","name":"until","type":"uint48"}],"name":"OperatorSet","type":"event"},{"anonymous":false,"inputs":[{"indexed":true,"internalType":"address","name":"previousOwner","type":"address"},{"indexed":true,"internalType":"address","name":"newOwner","type":"address"}],"name":"OwnershipTransferred","type":"event"},{"anonymous":false,"inputs":[{"indexed":true,"internalType":"address","name":"employer","type":"address"},{"indexed":false,"internalType":"uint256","name":"employeeCount","type":"uint256"}],"name":"PayrollDistributed","type":"event"},{"anonymous":false,"inputs":[{"indexed":true,"internalType":"address","name":"receiver","type":"address"},{"indexed":false,"internalType":"euint256","name":"encryptedAmount","type":"bytes32"},{"indexed":false,"internalType":"uint256","name":"plaintextAmount","type":"uint256"}],"name":"UnwrapFinalized","type":"event"},{"anonymous":false,"inputs":[{"indexed":true,"internalType":"address","name":"receiver","type":"address"},{"indexed":false,"internalType":"euint256","name":"amount","type":"bytes32"}],"name":"UnwrapRequested","type":"event"},{"inputs":[{"internalType":"address","name":"account","type":"address"}],"name":"confidentialBalanceOf","outputs":[{"internalType":"euint256","name":"","type":"bytes32"}],"stateMutability":"view","type":"function"},{"inputs":[],"name":"confidentialTotalSupply","outputs":[{"internalType":"euint256","name":"","type":"bytes32"}],"stateMutability":"view","type":"function"},{"inputs":[{"internalType":"address","name":"to","type":"address"},{"internalType":"externalEuint256","name":"encryptedAmount","type":"bytes32"},{"internalType":"bytes","name":"inputProof","type":"bytes"}],"name":"confidentialTransfer","outputs":[{"internalType":"euint256","name":"","type":"bytes32"}],"stateMutability":"nonpayable","type":"function"},{"inputs":[{"internalType":"address","name":"to","type":"address"},{"internalType":"euint256","name":"amount","type":"bytes32"}],"name":"confidentialTransfer","outputs":[{"internalType":"euint256","name":"","type":"bytes32"}],"stateMutability":"nonpayable","type":"function"},{"inputs":[{"internalType":"address","name":"to","type":"address"},{"internalType":"euint256","name":"amount","type":"bytes32"},{"internalType":"bytes","name":"data","type":"bytes"}],"name":"confidentialTransferAndCall","outputs":[{"internalType":"euint256","name":"transferred","type":"bytes32"}],"stateMutability":"nonpayable","type":"function"},{"inputs":[{"internalType":"address","name":"to","type":"address"},{"internalType":"externalEuint256","name":"encryptedAmount","type":"bytes32"},{"internalType":"bytes","name":"inputProof","type":"bytes"},{"internalType":"bytes","name":"data","type":"bytes"}],"name":"confidentialTransferAndCall","outputs":[{"internalType":"euint256","name":"transferred","type":"bytes32"}],"stateMutability":"nonpayable","type":"function"},{"inputs":[{"internalType":"address","name":"from","type":"address"},{"internalType":"address","name":"to","type":"address"},{"internalType":"externalEuint256","name":"encryptedAmount","type":"bytes32"},{"internalType":"bytes","name":"inputProof","type":"bytes"}],"name":"confidentialTransferFrom","outputs":[{"internalType":"euint256","name":"","type":"bytes32"}],"stateMutability":"nonpayable","type":"function"},{"inputs":[{"internalType":"address","name":"from","type":"address"},{"internalType":"address","name":"to","type":"address"},{"internalType":"euint256","name":"amount","type":"bytes32"}],"name":"confidentialTransferFrom","outputs":[{"internalType":"euint256","name":"","type":"bytes32"}],"stateMutability":"nonpayable","type":"function"},{"inputs":[{"internalType":"address","name":"from","type":"address"},{"internalType":"address","name":"to","type":"address"},{"internalType":"externalEuint256","name":"encryptedAmount","type":"bytes32"},{"internalType":"bytes","name":"inputProof","type":"bytes"},{"internalType":"bytes","name":"data","type":"bytes"}],"name":"confidentialTransferFromAndCall","outputs":[{"internalType":"euint256","name":"transferred","type":"bytes32"}],"stateMutability":"nonpayable","type":"function"},{"inputs":[{"internalType":"address","name":"from","type":"address"},{"internalType":"address","name":"to","type":"address"},{"internalType":"euint256","name":"amount","type":"bytes32"},{"internalType":"bytes","name":"data","type":"bytes"}],"name":"confidentialTransferFromAndCall","outputs":[{"internalType":"euint256","name":"transferred","type":"bytes32"}],"stateMutability":"nonpayable","type":"function"},{"inputs":[],"name":"contractURI","outputs":[{"internalType":"string","name":"","type":"string"}],"stateMutability":"view","type":"function"},{"inputs":[],"name":"decimals","outputs":[{"internalType":"uint8","name":"","type":"uint8"}],"stateMutability":"view","type":"function"},{"inputs":[{"internalType":"uint256","name":"amount","type":"uint256"}],"name":"depositForPayroll","outputs":[],"stateMutability":"nonpayable","type":"function"},{"inputs":[{"internalType":"address[]","name":"employees","type":"address[]"},{"internalType":"euint256[]","name":"encryptedAmounts","type":"bytes32[]"}],"name":"distributeConfidentialPayroll","outputs":[],"stateMutability":"nonpayable","type":"function"},{"inputs":[{"internalType":"euint256","name":"unwrapRequestId","type":"bytes32"},{"internalType":"bytes","name":"decryptedAmountAndProof","type":"bytes"}],"name":"finalizeUnwrap","outputs":[],"stateMutability":"nonpayable","type":"function"},{"inputs":[],"name":"inferredTotalSupply","outputs":[{"internalType":"uint256","name":"","type":"uint256"}],"stateMutability":"view","type":"function"},{"inputs":[{"internalType":"address","name":"holder","type":"address"},{"internalType":"address","name":"spender","type":"address"}],"name":"isOperator","outputs":[{"internalType":"bool","name":"","type":"bool"}],"stateMutability":"view","type":"function"},{"inputs":[],"name":"maxTotalSupply","outputs":[{"internalType":"uint256","name":"","type":"uint256"}],"stateMutability":"view","type":"function"},{"inputs":[],"name":"name","outputs":[{"internalType":"string","name":"","type":"string"}],"stateMutability":"view","type":"function"},{"inputs":[{"internalType":"address","name":"","type":"address"},{"internalType":"address","name":"from","type":"address"},{"internalType":"uint256","name":"amount","type":"uint256"},{"internalType":"bytes","name":"data","type":"bytes"}],"name":"onTransferReceived","outputs":[{"internalType":"bytes4","name":"","type":"bytes4"}],"stateMutability":"nonpayable","type":"function"},{"inputs":[],"name":"owner","outputs":[{"internalType":"address","name":"","type":"address"}],"stateMutability":"view","type":"function"},{"inputs":[],"name":"renounceOwnership","outputs":[],"stateMutability":"nonpayable","type":"function"},{"inputs":[{"internalType":"address","name":"operator","type":"address"},{"internalType":"uint48","name":"until","type":"uint48"}],"name":"setOperator","outputs":[],"stateMutability":"nonpayable","type":"function"},{"inputs":[{"internalType":"bytes4","name":"interfaceId","type":"bytes4"}],"name":"supportsInterface","outputs":[{"internalType":"bool","name":"","type":"bool"}],"stateMutability":"view","type":"function"},{"inputs":[],"name":"symbol","outputs":[{"internalType":"string","name":"","type":"string"}],"stateMutability":"view","type":"function"},{"inputs":[{"internalType":"address","name":"newOwner","type":"address"}],"name":"transferOwnership","outputs":[],"stateMutability":"nonpayable","type":"function"},{"inputs":[],"name":"underlying","outputs":[{"internalType":"address","name":"","type":"address"}],"stateMutability":"view","type":"function"},{"inputs":[{"internalType":"address","name":"from","type":"address"},{"internalType":"address","name":"to","type":"address"},{"internalType":"externalEuint256","name":"encryptedAmount","type":"bytes32"},{"internalType":"bytes","name":"inputProof","type":"bytes"}],"name":"unwrap","outputs":[{"internalType":"euint256","name":"","type":"bytes32"}],"stateMutability":"nonpayable","type":"function"},{"inputs":[{"internalType":"address","name":"from","type":"address"},{"internalType":"address","name":"to","type":"address"},{"internalType":"euint256","name":"amount","type":"bytes32"}],"name":"unwrap","outputs":[{"internalType":"euint256","name":"","type":"bytes32"}],"stateMutability":"nonpayable","type":"function"},{"inputs":[{"internalType":"euint256","name":"unwrapAmount","type":"bytes32"}],"name":"unwrapRequester","outputs":[{"internalType":"address","name":"","type":"address"}],"stateMutability":"view","type":"function"},{"inputs":[{"internalType":"address","name":"to","type":"address"},{"internalType":"uint256","name":"amount","type":"uint256"}],"name":"wrap","outputs":[{"internalType":"euint256","name":"","type":"bytes32"}],"stateMutability":"nonpayable","type":"function"}],"evm":{"bytecode":{"linkReferences":{},"object":"60c060405234801561001057600080fd5b50604051614b4c380380614b4c833981810160405281019061003291906104fb565b3384848484826003908161004691906107d7565b50816004908161005691906107d7565b50806005908161006691906107d7565b505050508073ffffffffffffffffffffffffffffffffffffffff1660808173ffffffffffffffffffffffffffffffffffffffff16815250506100ad8161014660201b60201c565b60ff1660a08160ff168152505050600073ffffffffffffffffffffffffffffffffffffffff168173ffffffffffffffffffffffffffffffffffffffff160361012d5760006040517f1e4fbdf700000000000000000000000000000000000000000000000000000000815260040161012491906108b8565b60405180910390fd5b61013c8161024760201b60201c565b5050505050610997565b60008060008373ffffffffffffffffffffffffffffffffffffffff1660405160240160405160208183030381529060405263313ce56760e01b6020820180517bffffffffffffffffffffffffffffffffffffffffffffffffffffffff83818316178352505050506040516101ba919061091a565b600060405180830381855afa9150503d80600081146101f5576040519150601f19603f3d011682016040523d82523d6000602084013e6101fa565b606091505b509150915081801561020d575060208151145b1561022f5780806020019051810190610226919061096a565b92505050610242565b61023d61030d60201b60201c565b925050505b919050565b6000600760009054906101000a900473ffffffffffffffffffffffffffffffffffffffff16905081600760006101000a81548173ffffffffffffffffffffffffffffffffffffffff021916908373ffffffffffffffffffffffffffffffffffffffff1602179055508173ffffffffffffffffffffffffffffffffffffffff168173ffffffffffffffffffffffffffffffffffffffff167f8be0079c531659141344cd1fd0a4f28419497f9722a3daafe3b4186f6b6457e060405160405180910390a35050565b60006012905090565b6000604051905090565b600080fd5b600080fd5b600073ffffffffffffffffffffffffffffffffffffffff82169050919050565b60006103558261032a565b9050919050565b60006103678261034a565b9050919050565b6103778161035c565b811461038257600080fd5b50565b6000815190506103948161036e565b92915050565b600080fd5b600080fd5b6000601f19601f8301169050919050565b7f4e487b7100000000000000000000000000000000000000000000000000000000600052604160045260246000fd5b6103ed826103a4565b810181811067ffffffffffffffff8211171561040c5761040b6103b5565b5b80604052505050565b600061041f610316565b905061042b82826103e4565b919050565b600067ffffffffffffffff82111561044b5761044a6103b5565b5b610454826103a4565b9050602081019050919050565b60005b8381101561047f578082015181840152602081019050610464565b60008484015250505050565b600061049e61049984610430565b610415565b9050828152602081018484840111156104ba576104b961039f565b5b6104c5848285610461565b509392505050565b600082601f8301126104e2576104e161039a565b5b81516104f284826020860161048b565b91505092915050565b6000806000806080858703121561051557610514610320565b5b600061052387828801610385565b945050602085015167ffffffffffffffff81111561054457610543610325565b5b610550878288016104cd565b935050604085015167ffffffffffffffff81111561057157610570610325565b5b61057d878288016104cd565b925050606085015167ffffffffffffffff81111561059e5761059d610325565b5b6105aa878288016104cd565b91505092959194509250565b600081519050919050565b7f4e487b7100000000000000000000000000000000000000000000000000000000600052602260045260246000fd5b6000600282049050600182168061060857607f821691505b60208210810361061b5761061a6105c1565b5b50919050565b60008190508160005260206000209050919050565b60006020601f8301049050919050565b600082821b905092915050565b6000600883026106837fffffffffffffffffffffffffffffffffffffffffffffffffffffffffffffffff82610646565b61068d8683610646565b95508019841693508086168417925050509392505050565b6000819050919050565b6000819050919050565b60006106d46106cf6106ca846106a5565b6106af565b6106a5565b9050919050565b6000819050919050565b6106ee836106b9565b6107026106fa826106db565b848454610653565b825550505050565b600090565b61071761070a565b6107228184846106e5565b505050565b5b818110156107465761073b60008261070f565b600181019050610728565b5050565b601f82111561078b5761075c81610621565b61076584610636565b81016020851015610774578190505b61078861078085610636565b830182610727565b50505b505050565b600082821c905092915050565b60006107ae60001984600802610790565b1980831691505092915050565b60006107c7838361079d565b9150826002028217905092915050565b6107e0826105b6565b67ffffffffffffffff8111156107f9576107f86103b5565b5b61080382546105f0565b61080e82828561074a565b600060209050601f831160018114610841576000841561082f578287015190505b61083985826107bb565b8655506108a1565b601f19841661084f86610621565b60005b8281101561087757848901518255600182019150602085019450602081019050610852565b868310156108945784890151610890601f89168261079d565b8355505b6001600288020188555050505b505050505050565b6108b28161034a565b82525050565b60006020820190506108cd60008301846108a9565b92915050565b600081519050919050565b600081905092915050565b60006108f4826108d3565b6108fe81856108de565b935061090e818560208601610461565b80840191505092915050565b600061092682846108e9565b915081905092915050565b600060ff82169050919050565b61094781610931565b811461095257600080fd5b50565b6000815190506109648161093e565b92915050565b6000602082840312156109805761097f610320565b5b600061098e84828501610955565b91505092915050565b60805160a0516141906109bc600039600061096401526000610c8a01526141906000f3fe608060405234801561001057600080fd5b50600436106101e55760003560e01c8063715018a61161010f578063de642119116100a2578063eb3155b511610071578063eb3155b5146105f4578063eee8a0e814610624578063f2fde38b14610654578063f89d30b114610670576101e5565b8063de64211914610546578063e064b9bb14610576578063e8a3d485146105a6578063e8c15fd4146105c4576101e5565b8063b6363cf2116100de578063b6363cf21461049a578063bf376c7a146104ca578063c7b8a75e146104fa578063d4febb961461052a576101e5565b8063715018a61461042457806388a7ca5c1461042e5780638da5cb5b1461045e57806395d89b411461047c576101e5565b8063344ff101116101875780635bebed7e116101565780635bebed7e1461038a5780635bf4ef06146103ba57806365f94fdb146103ea5780636f307dc314610406576101e5565b8063344ff101146102dc57806334c457431461030c578063537d3c501461033c578063540952271461036c576101e5565b80630c248955116101c35780630c248955146102545780632ab4d052146102705780632fb74e621461028e578063313ce567146102be576101e5565b806301ffc9a7146101ea57806306fdde031461021a5780630733f7b514610238575b600080fd5b61020460048036038101906101ff9190612d3c565b61068e565b6040516102119190612d84565b60405180910390f35b610222610770565b60405161022f9190612e2f565b60405180910390f35b610252600480360381019061024d9190612f0c565b610802565b005b61026e60048036038101906102699190612fc3565b610909565b005b610278610917565b6040516102859190612fff565b60405180910390f35b6102a860048036038101906102a39190613104565b61093f565b6040516102b59190613199565b60405180910390f35b6102c6610960565b6040516102d391906131d0565b60405180910390f35b6102f660048036038101906102f191906131eb565b610988565b6040516103039190613199565b60405180910390f35b61032660048036038101906103219190613218565b6109d0565b6040516103339190613199565b60405180910390f35b61035660048036038101906103519190613300565b610a51565b6040516103639190613199565b60405180910390f35b610374610ac5565b6040516103819190613199565b60405180910390f35b6103a4600480360381019061039f9190613374565b610acf565b6040516103b19190613199565b60405180910390f35b6103d460048036038101906103cf91906133b4565b610b35565b6040516103e19190613199565b60405180910390f35b61040460048036038101906103ff919061343c565b610b57565b005b61040e610c86565b60405161041b91906134ab565b60405180910390f35b61042c610cae565b005b610448600480360381019061044391906134c6565b610cc2565b604051610455919061355d565b60405180910390f35b610466610d8a565b60405161047391906134ab565b60405180910390f35b610484610db4565b6040516104919190612e2f565b60405180910390f35b6104b460048036038101906104af9190613578565b610e46565b6040516104c19190612d84565b60405180910390f35b6104e460048036038101906104df91906135b8565b610f20565b6040516104f19190613199565b60405180910390f35b610514600480360381019061050f91906135f8565b610f5f565b6040516105219190613199565b60405180910390f35b610544600480360381019061053f91906136be565b611025565b005b610560600480360381019061055b91906136fe565b611034565b60405161056d9190613199565b60405180910390f35b610590600480360381019061058b91906133b4565b611063565b60405161059d9190613199565b60405180910390f35b6105ae6110e6565b6040516105bb9190612e2f565b60405180910390f35b6105de60048036038101906105d991906137a5565b611178565b6040516105eb9190613199565b60405180910390f35b61060e600480360381019061060991906137a5565b6111df565b60405161061b9190613199565b60405180910390f35b61063e600480360381019061063991906137f8565b6112a7565b60405161064b91906134ab565b60405180910390f35b61066e600480360381019061066991906131eb565b6112e4565b005b61067861136a565b6040516106859190612fff565b60405180910390f35b60007f3a0aaebb000000000000000000000000000000000000000000000000000000007bffffffffffffffffffffffffffffffffffffffffffffffffffffffff1916827bffffffffffffffffffffffffffffffffffffffffffffffffffffffff1916148061075957507f88a7ca5c000000000000000000000000000000000000000000000000000000007bffffffffffffffffffffffffffffffffffffffffffffffffffffffff1916827bffffffffffffffffffffffffffffffffffffffffffffffffffffffff1916145b806107695750610768826113f2565b5b9050919050565b60606003805461077f90613854565b80601f01602080910402602001604051908101604052809291908181526020018280546107ab90613854565b80156107f85780601f106107cd576101008083540402835291602001916107f8565b820191906000526020600020905b8154815290600101906020018083116107db57829003601f168201915b5050505050905090565b81819050848490501461084a576040517f08c379a0000000000000000000000000000000000000000000000000000000008152600401610841906138d1565b60405180910390fd5b60005b848490508110156108b1576108a33386868481811061086f5761086e6138f1565b5b905060200201602081019061088491906131eb565b858585818110610897576108966138f1565b5b9050602002013561146c565b50808060010191505061084d565b503373ffffffffffffffffffffffffffffffffffffffff167f21e2e7f50d6a579a7033232c971f20ed7e795c1bb05ebab17e4ce1811021e609858590506040516108fb9190612fff565b60405180910390a250505050565b6109133382610f20565b5050565b60007fffffffffffffffffffffffffffffffffffffffffffffffffffffffffffffffff905090565b6000610956338661095187878761156b565b61146c565b9050949350505050565b60007f0000000000000000000000000000000000000000000000000000000000000000905090565b60008060008373ffffffffffffffffffffffffffffffffffffffff1673ffffffffffffffffffffffffffffffffffffffff168152602001908152602001600020549050919050565b60006109dc8833610e46565b88339091610a21576040517f79f2cb38000000000000000000000000000000000000000000000000000000008152600401610a18929190613920565b60405180910390fd5b5050610a3a8888610a3389898961156b565b86866115f7565b9050610a468133611653565b979650505050505050565b6000610a5d8433611661565b84339091610aa2576040517f67cfe805000000000000000000000000000000000000000000000000000000008152600401610a99929190613949565b60405180910390fd5b5050610ab133868686866115f7565b9050610abd8133611653565b949350505050565b6000600254905090565b6000610adb8233611661565b82339091610b20576040517f67cfe805000000000000000000000000000000000000000000000000000000008152600401610b17929190613949565b60405180910390fd5b5050610b2d33848461146c565b905092915050565b6000610b4c8686610b4787878761156b565b6116ee565b905095945050505050565b6000610b62846112a7565b9050600073ffffffffffffffffffffffffffffffffffffffff168173ffffffffffffffffffffffffffffffffffffffff1614158490610bd7576040517fd1630f8e000000000000000000000000000000000000000000000000000000008152600401610bce9190613199565b60405180910390fd5b506006600085815260200190815260200160002060006101000a81549073ffffffffffffffffffffffffffffffffffffffff02191690556000610c1b8585856118f1565b9050610c2f610c28610c86565b83836119df565b8173ffffffffffffffffffffffffffffffffffffffff167f387ce7199af53be9f77ab809cfadd7a3ba121ba687c4059d4f55a0a4a8d5ecad8683604051610c77929190613972565b60405180910390a25050505050565b60007f0000000000000000000000000000000000000000000000000000000000000000905090565b610cb6611a32565b610cc06000611ab9565b565b60003373ffffffffffffffffffffffffffffffffffffffff16610ce3610c86565b73ffffffffffffffffffffffffffffffffffffffff16143390610d3c576040517f782c6ffd000000000000000000000000000000000000000000000000000000008152600401610d3391906134ab565b60405180910390fd5b50600060148484905010610d5f57838390610d5791906139df565b60601c610d61565b855b9050610d7581610d7087611b7f565b611c11565b506388a7ca5c60e01b91505095945050505050565b6000600760009054906101000a900473ffffffffffffffffffffffffffffffffffffffff16905090565b606060048054610dc390613854565b80601f0160208091040260200160405190810160405280929190818152602001828054610def90613854565b8015610e3c5780601f10610e1157610100808354040283529160200191610e3c565b820191906000526020600020905b815481529060010190602001808311610e1f57829003601f168201915b5050505050905090565b60008173ffffffffffffffffffffffffffffffffffffffff168373ffffffffffffffffffffffffffffffffffffffff161480610f185750600160008473ffffffffffffffffffffffffffffffffffffffff1673ffffffffffffffffffffffffffffffffffffffff16815260200190815260200160002060008373ffffffffffffffffffffffffffffffffffffffff1673ffffffffffffffffffffffffffffffffffffffff16815260200190815260200160002060009054906101000a900465ffffffffffff1665ffffffffffff164211155b905092915050565b6000610f35610f2d610c86565b333085611c9b565b6000610f4984610f4485611b7f565b611c11565b9050610f558133611653565b8091505092915050565b6000610f6b8433611661565b84339091610fb0576040517f67cfe805000000000000000000000000000000000000000000000000000000008152600401610fa7929190613949565b60405180910390fd5b5050610fbc8633610e46565b86339091611001576040517f79f2cb38000000000000000000000000000000000000000000000000000000008152600401610ff8929190613920565b60405180910390fd5b505061101086868686866115f7565b905061101c8133611653565b95945050505050565b611030338383611cf0565b5050565b600061104d338861104689898961156b565b86866115f7565b90506110598133611653565b9695505050505050565b600061106f8633610e46565b863390916110b4576040517f79f2cb380000000000000000000000000000000000000000000000000000000081526004016110ab929190613920565b60405180910390fd5b505060006110cd87876110c888888861156b565b61146c565b90506110d98133611653565b8091505095945050505050565b6060600580546110f590613854565b80601f016020809104026020016040519081016040528092919081815260200182805461112190613854565b801561116e5780601f106111435761010080835404028352916020019161116e565b820191906000526020600020905b81548152906001019060200180831161115157829003601f168201915b5050505050905090565b60006111848233611661565b823390916111c9576040517f67cfe8050000000000000000000000000000000000000000000000000000000081526004016111c0929190613949565b60405180910390fd5b50506111d68484846116ee565b90509392505050565b60006111eb8233611661565b82339091611230576040517f67cfe805000000000000000000000000000000000000000000000000000000008152600401611227929190613949565b60405180910390fd5b505061123c8433610e46565b84339091611281576040517f79f2cb38000000000000000000000000000000000000000000000000000000008152600401611278929190613920565b60405180910390fd5b5050600061129085858561146c565b905061129c8133611653565b809150509392505050565b60006006600083815260200190815260200160002060009054906101000a900473ffffffffffffffffffffffffffffffffffffffff169050919050565b6112ec611a32565b600073ffffffffffffffffffffffffffffffffffffffff168173ffffffffffffffffffffffffffffffffffffffff160361135e5760006040517f1e4fbdf700000000000000000000000000000000000000000000000000000000815260040161135591906134ab565b60405180910390fd5b61136781611ab9565b50565b6000611374610c86565b73ffffffffffffffffffffffffffffffffffffffff166370a08231306040518263ffffffff1660e01b81526004016113ac91906134ab565b602060405180830381865afa1580156113c9573d6000803e3d6000fd5b505050506040513d601f19601f820116820180604052508101906113ed9190613a53565b905090565b60007f4958f2a4000000000000000000000000000000000000000000000000000000007bffffffffffffffffffffffffffffffffffffffffffffffffffffffff1916827bffffffffffffffffffffffffffffffffffffffffffffffffffffffff19161480611465575061146482611df9565b5b9050919050565b60008073ffffffffffffffffffffffffffffffffffffffff168473ffffffffffffffffffffffffffffffffffffffff1614156000906114e1576040517fee457ebf0000000000000000000000000000000000000000000000000000000081526004016114d891906134ab565b60405180910390fd5b50600073ffffffffffffffffffffffffffffffffffffffff168373ffffffffffffffffffffffffffffffffffffffff161415600090611556576040517f8d51880100000000000000000000000000000000000000000000000000000000815260040161154d91906134ab565b60405180910390fd5b50611562848484611e63565b90509392505050565b600080849050611579611eb5565b73ffffffffffffffffffffffffffffffffffffffff1663d0571e428233878760236040518663ffffffff1660e01b81526004016115ba959493929190613b53565b600060405180830381600087803b1580156115d457600080fd5b505af11580156115e8573d6000803e3d6000fd5b50505050809150509392505050565b60008061160587878761146c565b90506000611617338989858989611ec4565b90506000611639888a6116348561162e6000611b7f565b88612005565b611e63565b905061164583826120b5565b935050505095945050505050565b61165d8282612158565b5050565b600061166b611eb5565b73ffffffffffffffffffffffffffffffffffffffff166382027b6d84846040518363ffffffff1660e01b81526004016116a5929190613ba1565b602060405180830381865afa1580156116c2573d6000803e3d6000fd5b505050506040513d601f19601f820116820180604052508101906116e69190613bf6565b905092915050565b60008073ffffffffffffffffffffffffffffffffffffffff168373ffffffffffffffffffffffffffffffffffffffff1614158390611762576040517f8d51880100000000000000000000000000000000000000000000000000000000815260040161175991906134ab565b60405180910390fd5b503373ffffffffffffffffffffffffffffffffffffffff168473ffffffffffffffffffffffffffffffffffffffff1614806117a357506117a28433610e46565b5b843390916117e8576040517f79f2cb380000000000000000000000000000000000000000000000000000000081526004016117df929190613920565b60405180910390fd5b505060006117f685846121de565b905061180181612268565b600073ffffffffffffffffffffffffffffffffffffffff16611822826112a7565b73ffffffffffffffffffffffffffffffffffffffff161461184657611845613c23565b5b836006600083815260200190815260200160002060006101000a81548173ffffffffffffffffffffffffffffffffffffffff021916908373ffffffffffffffffffffffffffffffffffffffff1602179055508373ffffffffffffffffffffffffffffffffffffffff167f77d02d353c5629272875d11f1b34ec4c65d7430b075575b78cd2502034c469ee826040516118de9190613199565b60405180910390a2809150509392505050565b6000806118fc611eb5565b73ffffffffffffffffffffffffffffffffffffffff16634dc752ec8686866040518463ffffffff1660e01b815260040161193893929190613c52565b600060405180830381865afa158015611955573d6000803e3d6000fd5b505050506040513d6000823e3d601f19601f8201168201806040525081019061197e9190613da5565b9050602081511481906119c7576040517fa50222240000000000000000000000000000000000000000000000000000000081526004016119be9190613e32565b60405180910390fd5b50806119d290613e79565b60001c9150509392505050565b6119ec83838360016122dd565b611a2d57826040517f5274afe7000000000000000000000000000000000000000000000000000000008152600401611a2491906134ab565b60405180910390fd5b505050565b611a3a612347565b73ffffffffffffffffffffffffffffffffffffffff16611a58610d8a565b73ffffffffffffffffffffffffffffffffffffffff1614611ab757611a7b612347565b6040517f118cdaa7000000000000000000000000000000000000000000000000000000008152600401611aae91906134ab565b60405180910390fd5b565b6000600760009054906101000a900473ffffffffffffffffffffffffffffffffffffffff16905081600760006101000a81548173ffffffffffffffffffffffffffffffffffffffff021916908373ffffffffffffffffffffffffffffffffffffffff1602179055508173ffffffffffffffffffffffffffffffffffffffff168173ffffffffffffffffffffffffffffffffffffffff167f8be0079c531659141344cd1fd0a4f28419497f9722a3daafe3b4186f6b6457e060405160405180910390a35050565b6000611b89611eb5565b73ffffffffffffffffffffffffffffffffffffffff1663d56497c38360001b60236040518363ffffffff1660e01b8152600401611bc7929190613ee0565b6020604051808303816000875af1158015611be6573d6000803e3d6000fd5b505050506040513d601f19601f82011682018060405250810190611c0a9190613f35565b9050919050565b60008073ffffffffffffffffffffffffffffffffffffffff168373ffffffffffffffffffffffffffffffffffffffff161415600090611c86576040517f8d518801000000000000000000000000000000000000000000000000000000008152600401611c7d91906134ab565b60405180910390fd5b50611c9360008484611e63565b905092915050565b611ca984848484600161234f565b611cea57836040517f5274afe7000000000000000000000000000000000000000000000000000000008152600401611ce191906134ab565b60405180910390fd5b50505050565b80600160008573ffffffffffffffffffffffffffffffffffffffff1673ffffffffffffffffffffffffffffffffffffffff16815260200190815260200160002060008473ffffffffffffffffffffffffffffffffffffffff1673ffffffffffffffffffffffffffffffffffffffff16815260200190815260200160002060006101000a81548165ffffffffffff021916908365ffffffffffff1602179055508173ffffffffffffffffffffffffffffffffffffffff168373ffffffffffffffffffffffffffffffffffffffff167f921a218a75d18e8ec5704851e6b234a85725b21a2521ce889622c35dedc1fa1283604051611dec9190613f71565b60405180910390a3505050565b60007f01ffc9a7000000000000000000000000000000000000000000000000000000007bffffffffffffffffffffffffffffffffffffffffffffffffffffffff1916827bffffffffffffffffffffffffffffffffffffffffffffffffffffffff1916149050919050565b60008073ffffffffffffffffffffffffffffffffffffffff168473ffffffffffffffffffffffffffffffffffffffff1603611ea157611ea06123ca565b5b611eac848484612414565b90509392505050565b6000611ebf6127fb565b905090565b6000808573ffffffffffffffffffffffffffffffffffffffff163b03611ef557611eee6001612898565b9050611ffb565b8473ffffffffffffffffffffffffffffffffffffffff166346083bfd88888787876040518663ffffffff1660e01b8152600401611f36959493929190613f8c565b6020604051808303816000875af1925050508015611f7257506040513d601f19601f82011682018060405250810190611f6f9190614006565b60015b611ff6573d8060008114611fa2576040519150601f19603f3d011682016040523d82523d6000602084013e611fa7565b606091505b506000815103611fee57856040517f8d518801000000000000000000000000000000000000000000000000000000008152600401611fe591906134ab565b60405180910390fd5b805181602001fd5b809150505b9695505050505050565b600061200f611eb5565b73ffffffffffffffffffffffffffffffffffffffff1663973ab10b61203586600061293b565b61204086602361293b565b61204b86602361293b565b6040518463ffffffff1660e01b815260040161206993929190614033565b6020604051808303816000875af1158015612088573d6000803e3d6000fd5b505050506040513d601f19601f820116820180604052508101906120ac9190613f35565b90509392505050565b60006120bf611eb5565b73ffffffffffffffffffffffffffffffffffffffff166341aa00806120e585602361293b565b6120f085602361293b565b6040518363ffffffff1660e01b815260040161210d92919061406a565b6020604051808303816000875af115801561212c573d6000803e3d6000fd5b505050506040513d601f19601f820116820180604052508101906121509190613f35565b905092915050565b6121618261295f565b6121da5761216d611eb5565b73ffffffffffffffffffffffffffffffffffffffff16633e395cec83836040518363ffffffff1660e01b81526004016121a7929190613ba1565b600060405180830381600087803b1580156121c157600080fd5b505af11580156121d5573d6000803e3d6000fd5b505050505b5050565b60008073ffffffffffffffffffffffffffffffffffffffff168373ffffffffffffffffffffffffffffffffffffffff161415600090612253576040517fee457ebf00000000000000000000000000000000000000000000000000000000815260040161224a91906134ab565b60405180910390fd5b5061226083600084611e63565b905092915050565b612270611eb5565b73ffffffffffffffffffffffffffffffffffffffff166369c39d90826040518263ffffffff1660e01b81526004016122a89190614093565b600060405180830381600087803b1580156122c257600080fd5b505af11580156122d6573d6000803e3d6000fd5b5050505050565b60008063a9059cbb60e01b90506040518160005260001960601c8616600452846024526020600060446000808b5af19250600160005114831661233957838315161561232c573d6000823e3d81fd5b6000873b113d1516831692505b806040525050949350505050565b600033905090565b6000806323b872dd60e01b90506040518160005260001960601c871660045260001960601c8616602452846044526020600060646000808c5af1925060016000511483166123b65783831516156123a9573d6000823e3d81fd5b6000883b113d1516831692505b806040526000606052505095945050505050565b6123d2610917565b6123da61136a565b1115612412576040517fa9e53fc300000000000000000000000000000000000000000000000000000000815260040160405180910390fd5b565b60008060008073ffffffffffffffffffffffffffffffffffffffff168673ffffffffffffffffffffffffffffffffffffffff16036124a8576124576002546129ad565b61246f576124656001612898565b9150839050612493565b61247b600254856129bd565b80925081935050506124908282600254612005565b90505b61249c81612a6e565b806002819055506125ae565b60008060008873ffffffffffffffffffffffffffffffffffffffff1673ffffffffffffffffffffffffffffffffffffffff1681526020019081526020016000205490506124f4816129ad565b8790612536576040517f5ff91cdc00000000000000000000000000000000000000000000000000000000815260040161252d91906134ab565b60405180910390fd5b506125418186612a7b565b8093508194505050612554838383612005565b915061255f82612a6e565b6125698288612b2c565b816000808973ffffffffffffffffffffffffffffffffffffffff1673ffffffffffffffffffffffffffffffffffffffff16815260200190815260200160002081905550505b6125c282856125bd6000611b7f565b612005565b9250600073ffffffffffffffffffffffffffffffffffffffff168573ffffffffffffffffffffffffffffffffffffffff160361261b57612604600254846120b5565b905061260f81612a6e565b80600281905550612710565b6126626000808773ffffffffffffffffffffffffffffffffffffffff1673ffffffffffffffffffffffffffffffffffffffff168152602001908152602001600020546129ad565b61266e578290506126b9565b6126b66000808773ffffffffffffffffffffffffffffffffffffffff1673ffffffffffffffffffffffffffffffffffffffff1681526020019081526020016000205484612b3a565b90505b6126c281612a6e565b6126cc8186612b2c565b806000808773ffffffffffffffffffffffffffffffffffffffff1673ffffffffffffffffffffffffffffffffffffffff168152602001908152602001600020819055505b600073ffffffffffffffffffffffffffffffffffffffff168673ffffffffffffffffffffffffffffffffffffffff161461274f5761274e8387612b2c565b5b600073ffffffffffffffffffffffffffffffffffffffff168573ffffffffffffffffffffffffffffffffffffffff161461278e5761278d8386612b2c565b5b61279783612a6e565b828573ffffffffffffffffffffffffffffffffffffffff168773ffffffffffffffffffffffffffffffffffffffff167f67500e8d0ed826d2194f514dd0d8124f35648ab6e3fb5e6ed867134cffe661e960405160405180910390a450509392505050565b600061a4b1460361280f5760009050612895565b62066eee46036128355773d464b198f06756a1d00be223634b85e0a731c2299050612895565b617a69460361285a577339847aeba923cc7367d4684194091d022b3f85489050612895565b6040517f08c379a000000000000000000000000000000000000000000000000000000000815260040161288c906140fa565b60405180910390fd5b90565b60006128a2611eb5565b73ffffffffffffffffffffffffffffffffffffffff1663d56497c3836128c95760006128cc565b60015b60ff1660001b60006040518363ffffffff1660e01b81526004016128f1929190613ee0565b6020604051808303816000875af1158015612910573d6000803e3d6000fd5b505050506040513d601f19601f820116820180604052508101906129349190613f35565b9050919050565b60008060001b831461294d5782612957565b61295682612bdd565b5b905092915050565b60008060f81b600160f81b8360066020811061297e5761297d6138f1565b5b1a60f81b167effffffffffffffffffffffffffffffffffffffffffffffffffffffffffffff1916149050919050565b60008060001b8214159050919050565b6000806000806129cb611eb5565b73ffffffffffffffffffffffffffffffffffffffff1663f30c42606129f188602361293b565b6129fc88602361293b565b6040518363ffffffff1660e01b8152600401612a1992919061406a565b60408051808303816000875af1158015612a37573d6000803e3d6000fd5b505050506040513d601f19601f82011682018060405250810190612a5b919061411a565b9150915081819350935050509250929050565b612a788130612c4a565b50565b600080600080612a89611eb5565b73ffffffffffffffffffffffffffffffffffffffff166386fc3bc3612aaf88602361293b565b612aba88602361293b565b6040518363ffffffff1660e01b8152600401612ad792919061406a565b60408051808303816000875af1158015612af5573d6000803e3d6000fd5b505050506040513d601f19601f82011682018060405250810190612b19919061411a565b9150915081819350935050509250929050565b612b368282612c4a565b5050565b6000612b44611eb5565b73ffffffffffffffffffffffffffffffffffffffff1663d1de592a612b6a85602361293b565b612b7585602361293b565b6040518363ffffffff1660e01b8152600401612b9292919061406a565b6020604051808303816000875af1158015612bb1573d6000803e3d6000fd5b505050506040513d601f19601f82011682018060405250810190612bd59190613f35565b905092915050565b60006028826063811115612bf457612bf3613adc565b5b60f81b7effffffffffffffffffffffffffffffffffffffffffffffffffffffffffffff1916901c60084660e01b7bffffffffffffffffffffffffffffffffffffffffffffffffffffffff1916901c179050919050565b612c538261295f565b612ccc57612c5f611eb5565b73ffffffffffffffffffffffffffffffffffffffff1663b9496b6283836040518363ffffffff1660e01b8152600401612c99929190613ba1565b600060405180830381600087803b158015612cb357600080fd5b505af1158015612cc7573d6000803e3d6000fd5b505050505b5050565b6000604051905090565b600080fd5b600080fd5b60007fffffffff0000000000000000000000000000000000000000000000000000000082169050919050565b612d1981612ce4565b8114612d2457600080fd5b50565b600081359050612d3681612d10565b92915050565b600060208284031215612d5257612d51612cda565b5b6000612d6084828501612d27565b91505092915050565b60008115159050919050565b612d7e81612d69565b82525050565b6000602082019050612d996000830184612d75565b92915050565b600081519050919050565b600082825260208201905092915050565b60005b83811015612dd9578082015181840152602081019050612dbe565b60008484015250505050565b6000601f19601f8301169050919050565b6000612e0182612d9f565b612e0b8185612daa565b9350612e1b818560208601612dbb565b612e2481612de5565b840191505092915050565b60006020820190508181036000830152612e498184612df6565b905092915050565b600080fd5b600080fd5b600080fd5b60008083601f840112612e7657612e75612e51565b5b8235905067ffffffffffffffff811115612e9357612e92612e56565b5b602083019150836020820283011115612eaf57612eae612e5b565b5b9250929050565b60008083601f840112612ecc57612ecb612e51565b5b8235905067ffffffffffffffff811115612ee957612ee8612e56565b5b602083019150836020820283011115612f0557612f04612e5b565b5b9250929050565b60008060008060408587031215612f2657612f25612cda565b5b600085013567ffffffffffffffff811115612f4457612f43612cdf565b5b612f5087828801612e60565b9450945050602085013567ffffffffffffffff811115612f7357612f72612cdf565b5b612f7f87828801612eb6565b925092505092959194509250565b6000819050919050565b612fa081612f8d565b8114612fab57600080fd5b50565b600081359050612fbd81612f97565b92915050565b600060208284031215612fd957612fd8612cda565b5b6000612fe784828501612fae565b91505092915050565b612ff981612f8d565b82525050565b60006020820190506130146000830184612ff0565b92915050565b600073ffffffffffffffffffffffffffffffffffffffff82169050919050565b60006130458261301a565b9050919050565b6130558161303a565b811461306057600080fd5b50565b6000813590506130728161304c565b92915050565b6000819050919050565b61308b81613078565b811461309657600080fd5b50565b6000813590506130a881613082565b92915050565b60008083601f8401126130c4576130c3612e51565b5b8235905067ffffffffffffffff8111156130e1576130e0612e56565b5b6020830191508360018202830111156130fd576130fc612e5b565b5b9250929050565b6000806000806060858703121561311e5761311d612cda565b5b600061312c87828801613063565b945050602061313d87828801613099565b935050604085013567ffffffffffffffff81111561315e5761315d612cdf565b5b61316a878288016130ae565b925092505092959194509250565b600061318382613078565b9050919050565b61319381613178565b82525050565b60006020820190506131ae600083018461318a565b92915050565b600060ff82169050919050565b6131ca816131b4565b82525050565b60006020820190506131e560008301846131c1565b92915050565b60006020828403121561320157613200612cda565b5b600061320f84828501613063565b91505092915050565b600080600080600080600060a0888a03121561323757613236612cda565b5b60006132458a828b01613063565b97505060206132568a828b01613063565b96505060406132678a828b01613099565b955050606088013567ffffffffffffffff81111561328857613287612cdf565b5b6132948a828b016130ae565b9450945050608088013567ffffffffffffffff8111156132b7576132b6612cdf565b5b6132c38a828b016130ae565b925092505092959891949750929550565b6132dd81613078565b81146132e857600080fd5b50565b6000813590506132fa816132d4565b92915050565b6000806000806060858703121561331a57613319612cda565b5b600061332887828801613063565b9450506020613339878288016132eb565b935050604085013567ffffffffffffffff81111561335a57613359612cdf565b5b613366878288016130ae565b925092505092959194509250565b6000806040838503121561338b5761338a612cda565b5b600061339985828601613063565b92505060206133aa858286016132eb565b9150509250929050565b6000806000806000608086880312156133d0576133cf612cda565b5b60006133de88828901613063565b95505060206133ef88828901613063565b945050604061340088828901613099565b935050606086013567ffffffffffffffff81111561342157613420612cdf565b5b61342d888289016130ae565b92509250509295509295909350565b60008060006040848603121561345557613454612cda565b5b6000613463868287016132eb565b935050602084013567ffffffffffffffff81111561348457613483612cdf565b5b613490868287016130ae565b92509250509250925092565b6134a58161303a565b82525050565b60006020820190506134c0600083018461349c565b92915050565b6000806000806000608086880312156134e2576134e1612cda565b5b60006134f088828901613063565b955050602061350188828901613063565b945050604061351288828901612fae565b935050606086013567ffffffffffffffff81111561353357613532612cdf565b5b61353f888289016130ae565b92509250509295509295909350565b61355781612ce4565b82525050565b6000602082019050613572600083018461354e565b92915050565b6000806040838503121561358f5761358e612cda565b5b600061359d85828601613063565b92505060206135ae85828601613063565b9150509250929050565b600080604083850312156135cf576135ce612cda565b5b60006135dd85828601613063565b92505060206135ee85828601612fae565b9150509250929050565b60008060008060006080868803121561361457613613612cda565b5b600061362288828901613063565b955050602061363388828901613063565b9450506040613644888289016132eb565b935050606086013567ffffffffffffffff81111561366557613664612cdf565b5b613671888289016130ae565b92509250509295509295909350565b600065ffffffffffff82169050919050565b61369b81613680565b81146136a657600080fd5b50565b6000813590506136b881613692565b92915050565b600080604083850312156136d5576136d4612cda565b5b60006136e385828601613063565b92505060206136f4858286016136a9565b9150509250929050565b6000806000806000806080878903121561371b5761371a612cda565b5b600061372989828a01613063565b965050602061373a89828a01613099565b955050604087013567ffffffffffffffff81111561375b5761375a612cdf565b5b61376789828a016130ae565b9450945050606087013567ffffffffffffffff81111561378a57613789612cdf565b5b61379689828a016130ae565b92509250509295509295509295565b6000806000606084860312156137be576137bd612cda565b5b60006137cc86828701613063565b93505060206137dd86828701613063565b92505060406137ee868287016132eb565b9150509250925092565b60006020828403121561380e5761380d612cda565b5b600061381c848285016132eb565b91505092915050565b7f4e487b7100000000000000000000000000000000000000000000000000000000600052602260045260246000fd5b6000600282049050600182168061386c57607f821691505b60208210810361387f5761387e613825565b5b50919050565b7f47686f73745061793a204c656e677468206d69736d6174636800000000000000600082015250565b60006138bb601983612daa565b91506138c682613885565b602082019050919050565b600060208201905081810360008301526138ea816138ae565b9050919050565b7f4e487b7100000000000000000000000000000000000000000000000000000000600052603260045260246000fd5b6000604082019050613935600083018561349c565b613942602083018461349c565b9392505050565b600060408201905061395e600083018561318a565b61396b602083018461349c565b9392505050565b6000604082019050613987600083018561318a565b6139946020830184612ff0565b9392505050565b600082905092915050565b60007fffffffffffffffffffffffffffffffffffffffff00000000000000000000000082169050919050565b600082821b905092915050565b60006139eb838361399b565b826139f681356139a6565b92506014821015613a3657613a317fffffffffffffffffffffffffffffffffffffffff000000000000000000000000836014036008026139d2565b831692505b505092915050565b600081519050613a4d81612f97565b92915050565b600060208284031215613a6957613a68612cda565b5b6000613a7784828501613a3e565b91505092915050565b613a8981613078565b82525050565b600082825260208201905092915050565b82818337600083830152505050565b6000613abb8385613a8f565b9350613ac8838584613aa0565b613ad183612de5565b840190509392505050565b7f4e487b7100000000000000000000000000000000000000000000000000000000600052602160045260246000fd5b60648110613b1c57613b1b613adc565b5b50565b6000819050613b2d82613b0b565b919050565b6000613b3d82613b1f565b9050919050565b613b4d81613b32565b82525050565b6000608082019050613b686000830188613a80565b613b75602083018761349c565b8181036040830152613b88818587613aaf565b9050613b976060830184613b44565b9695505050505050565b6000604082019050613bb66000830185613a80565b613bc3602083018461349c565b9392505050565b613bd381612d69565b8114613bde57600080fd5b50565b600081519050613bf081613bca565b92915050565b600060208284031215613c0c57613c0b612cda565b5b6000613c1a84828501613be1565b91505092915050565b7f4e487b7100000000000000000000000000000000000000000000000000000000600052600160045260246000fd5b6000604082019050613c676000830186613a80565b8181036020830152613c7a818486613aaf565b9050949350505050565b600080fd5b7f4e487b7100000000000000000000000000000000000000000000000000000000600052604160045260246000fd5b613cc182612de5565b810181811067ffffffffffffffff82111715613ce057613cdf613c89565b5b80604052505050565b6000613cf3612cd0565b9050613cff8282613cb8565b919050565b600067ffffffffffffffff821115613d1f57613d1e613c89565b5b613d2882612de5565b9050602081019050919050565b6000613d48613d4384613d04565b613ce9565b905082815260208101848484011115613d6457613d63613c84565b5b613d6f848285612dbb565b509392505050565b600082601f830112613d8c57613d8b612e51565b5b8151613d9c848260208601613d35565b91505092915050565b600060208284031215613dbb57613dba612cda565b5b600082015167ffffffffffffffff811115613dd957613dd8612cdf565b5b613de584828501613d77565b91505092915050565b600081519050919050565b6000613e0482613dee565b613e0e8185613a8f565b9350613e1e818560208601612dbb565b613e2781612de5565b840191505092915050565b60006020820190508181036000830152613e4c8184613df9565b905092915050565b6000819050602082019050919050565b6000613e708251613078565b80915050919050565b6000613e8482613dee565b82613e8e84613e54565b9050613e9981613e64565b92506020821015613ed957613ed47fffffffffffffffffffffffffffffffffffffffffffffffffffffffffffffffff836020036008026139d2565b831692505b5050919050565b6000604082019050613ef56000830185613a80565b613f026020830184613b44565b9392505050565b613f1281613078565b8114613f1d57600080fd5b50565b600081519050613f2f81613f09565b92915050565b600060208284031215613f4b57613f4a612cda565b5b6000613f5984828501613f20565b91505092915050565b613f6b81613680565b82525050565b6000602082019050613f866000830184613f62565b92915050565b6000608082019050613fa1600083018861349c565b613fae602083018761349c565b613fbb604083018661318a565b8181036060830152613fce818486613aaf565b90509695505050505050565b613fe381613078565b8114613fee57600080fd5b50565b60008151905061400081613fda565b92915050565b60006020828403121561401c5761401b612cda565b5b600061402a84828501613ff1565b91505092915050565b60006060820190506140486000830186613a80565b6140556020830185613a80565b6140626040830184613a80565b949350505050565b600060408201905061407f6000830185613a80565b61408c6020830184613a80565b9392505050565b60006020820190506140a86000830184613a80565b92915050565b7f4e6f783a20556e737570706f7274656420636861696e00000000000000000000600082015250565b60006140e4601683612daa565b91506140ef826140ae565b602082019050919050565b60006020820190508181036000830152614113816140d7565b9050919050565b6000806040838503121561413157614130612cda565b5b600061413f85828601613f20565b925050602061415085828601613f20565b915050925092905056fea2646970667358221220b6155d110b869e453526aa9b8164978edfe326fb507663bc1783a6c7353daad964736f6c634300081c0033","opcodes":"PUSH1 0xC0 PUSH1 0x40 MSTORE CALLVALUE DUP1 ISZERO PUSH2 0x10 JUMPI PUSH1 0x0 DUP1 REVERT JUMPDEST POP PUSH1 0x40 MLOAD PUSH2 0x4B4C CODESIZE SUB DUP1 PUSH2 0x4B4C DUP4 CODECOPY DUP2 DUP2 ADD PUSH1 0x40 MSTORE DUP2 ADD SWAP1 PUSH2 0x32 SWAP2 SWAP1 PUSH2 0x4FB JUMP JUMPDEST CALLER DUP5 DUP5 DUP5 DUP5 DUP3 PUSH1 0x3 SWAP1 DUP2 PUSH2 0x46 SWAP2 SWAP1 PUSH2 0x7D7 JUMP JUMPDEST POP DUP2 PUSH1 0x4 SWAP1 DUP2 PUSH2 0x56 SWAP2 SWAP1 PUSH2 0x7D7 JUMP JUMPDEST POP DUP1 PUSH1 0x5 SWAP1 DUP2 PUSH2 0x66 SWAP2 SWAP1 PUSH2 0x7D7 JUMP JUMPDEST POP POP POP POP DUP1 PUSH20 0xFFFFFFFFFFFFFFFFFFFFFFFFFFFFFFFFFFFFFFFF AND PUSH1 0x80 DUP2 PUSH20 0xFFFFFFFFFFFFFFFFFFFFFFFFFFFFFFFFFFFFFFFF AND DUP2 MSTORE POP POP PUSH2 0xAD DUP2 PUSH2 0x146 PUSH1 0x20 SHL PUSH1 0x20 SHR JUMP JUMPDEST PUSH1 0xFF AND PUSH1 0xA0 DUP2 PUSH1 0xFF AND DUP2 MSTORE POP POP POP PUSH1 0x0 PUSH20 0xFFFFFFFFFFFFFFFFFFFFFFFFFFFFFFFFFFFFFFFF AND DUP2 PUSH20 0xFFFFFFFFFFFFFFFFFFFFFFFFFFFFFFFFFFFFFFFF AND SUB PUSH2 0x12D JUMPI PUSH1 0x0 PUSH1 0x40 MLOAD PUSH32 0x1E4FBDF700000000000000000000000000000000000000000000000000000000 DUP2 MSTORE PUSH1 0x4 ADD PUSH2 0x124 SWAP2 SWAP1 PUSH2 0x8B8 JUMP JUMPDEST PUSH1 0x40 MLOAD DUP1 SWAP2 SUB SWAP1 REVERT JUMPDEST PUSH2 0x13C DUP2 PUSH2 0x247 PUSH1 0x20 SHL PUSH1 0x20 SHR JUMP JUMPDEST POP POP POP POP POP PUSH2 0x997 JUMP JUMPDEST PUSH1 0x0 DUP1 PUSH1 0x0 DUP4 PUSH20 0xFFFFFFFFFFFFFFFFFFFFFFFFFFFFFFFFFFFFFFFF AND PUSH1 0x40 MLOAD PUSH1 0x24 ADD PUSH1 0x40 MLOAD PUSH1 0x20 DUP2 DUP4 SUB SUB DUP2 MSTORE SWAP1 PUSH1 0x40 MSTORE PUSH4 0x313CE567 PUSH1 0xE0 SHL PUSH1 0x20 DUP3 ADD DUP1 MLOAD PUSH28 0xFFFFFFFFFFFFFFFFFFFFFFFFFFFFFFFFFFFFFFFFFFFFFFFFFFFFFFFF DUP4 DUP2 DUP4 AND OR DUP4 MSTORE POP POP POP POP PUSH1 0x40 MLOAD PUSH2 0x1BA SWAP2 SWAP1 PUSH2 0x91A JUMP JUMPDEST PUSH1 0x0 PUSH1 0x40 MLOAD DUP1 DUP4 SUB DUP2 DUP6 GAS STATICCALL SWAP2 POP POP RETURNDATASIZE DUP1 PUSH1 0x0 DUP2 EQ PUSH2 0x1F5 JUMPI PUSH1 0x40 MLOAD SWAP2 POP PUSH1 0x1F NOT PUSH1 0x3F RETURNDATASIZE ADD AND DUP3 ADD PUSH1 0x40 MSTORE RETURNDATASIZE DUP3 MSTORE RETURNDATASIZE PUSH1 0x0 PUSH1 0x20 DUP5 ADD RETURNDATACOPY PUSH2 0x1FA JUMP JUMPDEST PUSH1 0x60 SWAP2 POP JUMPDEST POP SWAP2 POP SWAP2 POP DUP2 DUP1 ISZERO PUSH2 0x20D JUMPI POP PUSH1 0x20 DUP2 MLOAD EQ JUMPDEST ISZERO PUSH2 0x22F JUMPI DUP1 DUP1 PUSH1 0x20 ADD SWAP1 MLOAD DUP2 ADD SWAP1 PUSH2 0x226 SWAP2 SWAP1 PUSH2 0x96A JUMP JUMPDEST SWAP3 POP POP POP PUSH2 0x242 JUMP JUMPDEST PUSH2 0x23D PUSH2 0x30D PUSH1 0x20 SHL PUSH1 0x20 SHR JUMP JUMPDEST SWAP3 POP POP POP JUMPDEST SWAP2 SWAP1 POP JUMP JUMPDEST PUSH1 0x0 PUSH1 0x7 PUSH1 0x0 SWAP1 SLOAD SWAP1 PUSH2 0x100 EXP SWAP1 DIV PUSH20 0xFFFFFFFFFFFFFFFFFFFFFFFFFFFFFFFFFFFFFFFF AND SWAP1 POP DUP2 PUSH1 0x7 PUSH1 0x0 PUSH2 0x100 EXP DUP2 SLOAD DUP2 PUSH20 0xFFFFFFFFFFFFFFFFFFFFFFFFFFFFFFFFFFFFFFFF MUL NOT AND SWAP1 DUP4 PUSH20 0xFFFFFFFFFFFFFFFFFFFFFFFFFFFFFFFFFFFFFFFF AND MUL OR SWAP1 SSTORE POP DUP2 PUSH20 0xFFFFFFFFFFFFFFFFFFFFFFFFFFFFFFFFFFFFFFFF AND DUP2 PUSH20 0xFFFFFFFFFFFFFFFFFFFFFFFFFFFFFFFFFFFFFFFF AND PUSH32 0x8BE0079C531659141344CD1FD0A4F28419497F9722A3DAAFE3B4186F6B6457E0 PUSH1 0x40 MLOAD PUSH1 0x40 MLOAD DUP1 SWAP2 SUB SWAP1 LOG3 POP POP JUMP JUMPDEST PUSH1 0x0 PUSH1 0x12 SWAP1 POP SWAP1 JUMP JUMPDEST PUSH1 0x0 PUSH1 0x40 MLOAD SWAP1 POP SWAP1 JUMP JUMPDEST PUSH1 0x0 DUP1 REVERT JUMPDEST PUSH1 0x0 DUP1 REVERT JUMPDEST PUSH1 0x0 PUSH20 0xFFFFFFFFFFFFFFFFFFFFFFFFFFFFFFFFFFFFFFFF DUP3 AND SWAP1 POP SWAP2 SWAP1 POP JUMP JUMPDEST PUSH1 0x0 PUSH2 0x355 DUP3 PUSH2 0x32A JUMP JUMPDEST SWAP1 POP SWAP2 SWAP1 POP JUMP JUMPDEST PUSH1 0x0 PUSH2 0x367 DUP3 PUSH2 0x34A JUMP JUMPDEST SWAP1 POP SWAP2 SWAP1 POP JUMP JUMPDEST PUSH2 0x377 DUP2 PUSH2 0x35C JUMP JUMPDEST DUP2 EQ PUSH2 0x382 JUMPI PUSH1 0x0 DUP1 REVERT JUMPDEST POP JUMP JUMPDEST PUSH1 0x0 DUP2 MLOAD SWAP1 POP PUSH2 0x394 DUP2 PUSH2 0x36E JUMP JUMPDEST SWAP3 SWAP2 POP POP JUMP JUMPDEST PUSH1 0x0 DUP1 REVERT JUMPDEST PUSH1 0x0 DUP1 REVERT JUMPDEST PUSH1 0x0 PUSH1 0x1F NOT PUSH1 0x1F DUP4 ADD AND SWAP1 POP SWAP2 SWAP1 POP JUMP JUMPDEST PUSH32 0x4E487B7100000000000000000000000000000000000000000000000000000000 PUSH1 0x0 MSTORE PUSH1 0x41 PUSH1 0x4 MSTORE PUSH1 0x24 PUSH1 0x0 REVERT JUMPDEST PUSH2 0x3ED DUP3 PUSH2 0x3A4 JUMP JUMPDEST DUP2 ADD DUP2 DUP2 LT PUSH8 0xFFFFFFFFFFFFFFFF DUP3 GT OR ISZERO PUSH2 0x40C JUMPI PUSH2 0x40B PUSH2 0x3B5 JUMP JUMPDEST JUMPDEST DUP1 PUSH1 0x40 MSTORE POP POP POP JUMP JUMPDEST PUSH1 0x0 PUSH2 0x41F PUSH2 0x316 JUMP JUMPDEST SWAP1 POP PUSH2 0x42B DUP3 DUP3 PUSH2 0x3E4 JUMP JUMPDEST SWAP2 SWAP1 POP JUMP JUMPDEST PUSH1 0x0 PUSH8 0xFFFFFFFFFFFFFFFF DUP3 GT ISZERO PUSH2 0x44B JUMPI PUSH2 0x44A PUSH2 0x3B5 JUMP JUMPDEST JUMPDEST PUSH2 0x454 DUP3 PUSH2 0x3A4 JUMP JUMPDEST SWAP1 POP PUSH1 0x20 DUP2 ADD SWAP1 POP SWAP2 SWAP1 POP JUMP JUMPDEST PUSH1 0x0 JUMPDEST DUP4 DUP2 LT ISZERO PUSH2 0x47F JUMPI DUP1 DUP3 ADD MLOAD DUP2 DUP5 ADD MSTORE PUSH1 0x20 DUP2 ADD SWAP1 POP PUSH2 0x464 JUMP JUMPDEST PUSH1 0x0 DUP5 DUP5 ADD MSTORE POP POP POP POP JUMP JUMPDEST PUSH1 0x0 PUSH2 0x49E PUSH2 0x499 DUP5 PUSH2 0x430 JUMP JUMPDEST PUSH2 0x415 JUMP JUMPDEST SWAP1 POP DUP3 DUP2 MSTORE PUSH1 0x20 DUP2 ADD DUP5 DUP5 DUP5 ADD GT ISZERO PUSH2 0x4BA JUMPI PUSH2 0x4B9 PUSH2 0x39F JUMP JUMPDEST JUMPDEST PUSH2 0x4C5 DUP5 DUP3 DUP6 PUSH2 0x461 JUMP JUMPDEST POP SWAP4 SWAP3 POP POP POP JUMP JUMPDEST PUSH1 0x0 DUP3 PUSH1 0x1F DUP4 ADD SLT PUSH2 0x4E2 JUMPI PUSH2 0x4E1 PUSH2 0x39A JUMP JUMPDEST JUMPDEST DUP2 MLOAD PUSH2 0x4F2 DUP5 DUP3 PUSH1 0x20 DUP7 ADD PUSH2 0x48B JUMP JUMPDEST SWAP2 POP POP SWAP3 SWAP2 POP POP JUMP JUMPDEST PUSH1 0x0 DUP1 PUSH1 0x0 DUP1 PUSH1 0x80 DUP6 DUP8 SUB SLT ISZERO PUSH2 0x515 JUMPI PUSH2 0x514 PUSH2 0x320 JUMP JUMPDEST JUMPDEST PUSH1 0x0 PUSH2 0x523 DUP8 DUP3 DUP9 ADD PUSH2 0x385 JUMP JUMPDEST SWAP5 POP POP PUSH1 0x20 DUP6 ADD MLOAD PUSH8 0xFFFFFFFFFFFFFFFF DUP2 GT ISZERO PUSH2 0x544 JUMPI PUSH2 0x543 PUSH2 0x325 JUMP JUMPDEST JUMPDEST PUSH2 0x550 DUP8 DUP3 DUP9 ADD PUSH2 0x4CD JUMP JUMPDEST SWAP4 POP POP PUSH1 0x40 DUP6 ADD MLOAD PUSH8 0xFFFFFFFFFFFFFFFF DUP2 GT ISZERO PUSH2 0x571 JUMPI PUSH2 0x570 PUSH2 0x325 JUMP JUMPDEST JUMPDEST PUSH2 0x57D DUP8 DUP3 DUP9 ADD PUSH2 0x4CD JUMP JUMPDEST SWAP3 POP POP PUSH1 0x60 DUP6 ADD MLOAD PUSH8 0xFFFFFFFFFFFFFFFF DUP2 GT ISZERO PUSH2 0x59E JUMPI PUSH2 0x59D PUSH2 0x325 JUMP JUMPDEST JUMPDEST PUSH2 0x5AA DUP8 DUP3 DUP9 ADD PUSH2 0x4CD JUMP JUMPDEST SWAP2 POP POP SWAP3 SWAP6 SWAP2 SWAP5 POP SWAP3 POP JUMP JUMPDEST PUSH1 0x0 DUP2 MLOAD SWAP1 POP SWAP2 SWAP1 POP JUMP JUMPDEST PUSH32 0x4E487B7100000000000000000000000000000000000000000000000000000000 PUSH1 0x0 MSTORE PUSH1 0x22 PUSH1 0x4 MSTORE PUSH1 0x24 PUSH1 0x0 REVERT JUMPDEST PUSH1 0x0 PUSH1 0x2 DUP3 DIV SWAP1 POP PUSH1 0x1 DUP3 AND DUP1 PUSH2 0x608 JUMPI PUSH1 0x7F DUP3 AND SWAP2 POP JUMPDEST PUSH1 0x20 DUP3 LT DUP2 SUB PUSH2 0x61B JUMPI PUSH2 0x61A PUSH2 0x5C1 JUMP JUMPDEST JUMPDEST POP SWAP2 SWAP1 POP JUMP JUMPDEST PUSH1 0x0 DUP2 SWAP1 POP DUP2 PUSH1 0x0 MSTORE PUSH1 0x20 PUSH1 0x0 KECCAK256 SWAP1 POP SWAP2 SWAP1 POP JUMP JUMPDEST PUSH1 0x0 PUSH1 0x20 PUSH1 0x1F DUP4 ADD DIV SWAP1 POP SWAP2 SWAP1 POP JUMP JUMPDEST PUSH1 0x0 DUP3 DUP3 SHL SWAP1 POP SWAP3 SWAP2 POP POP JUMP JUMPDEST PUSH1 0x0 PUSH1 0x8 DUP4 MUL PUSH2 0x683 PUSH32 0xFFFFFFFFFFFFFFFFFFFFFFFFFFFFFFFFFFFFFFFFFFFFFFFFFFFFFFFFFFFFFFFF DUP3 PUSH2 0x646 JUMP JUMPDEST PUSH2 0x68D DUP7 DUP4 PUSH2 0x646 JUMP JUMPDEST SWAP6 POP DUP1 NOT DUP5 AND SWAP4 POP DUP1 DUP7 AND DUP5 OR SWAP3 POP POP POP SWAP4 SWAP3 POP POP POP JUMP JUMPDEST PUSH1 0x0 DUP2 SWAP1 POP SWAP2 SWAP1 POP JUMP JUMPDEST PUSH1 0x0 DUP2 SWAP1 POP SWAP2 SWAP1 POP JUMP JUMPDEST PUSH1 0x0 PUSH2 0x6D4 PUSH2 0x6CF PUSH2 0x6CA DUP5 PUSH2 0x6A5 JUMP JUMPDEST PUSH2 0x6AF JUMP JUMPDEST PUSH2 0x6A5 JUMP JUMPDEST SWAP1 POP SWAP2 SWAP1 POP JUMP JUMPDEST PUSH1 0x0 DUP2 SWAP1 POP SWAP2 SWAP1 POP JUMP JUMPDEST PUSH2 0x6EE DUP4 PUSH2 0x6B9 JUMP JUMPDEST PUSH2 0x702 PUSH2 0x6FA DUP3 PUSH2 0x6DB JUMP JUMPDEST DUP5 DUP5 SLOAD PUSH2 0x653 JUMP JUMPDEST DUP3 SSTORE POP POP POP POP JUMP JUMPDEST PUSH1 0x0 SWAP1 JUMP JUMPDEST PUSH2 0x717 PUSH2 0x70A JUMP JUMPDEST PUSH2 0x722 DUP2 DUP5 DUP5 PUSH2 0x6E5 JUMP JUMPDEST POP POP POP JUMP JUMPDEST JUMPDEST DUP2 DUP2 LT ISZERO PUSH2 0x746 JUMPI PUSH2 0x73B PUSH1 0x0 DUP3 PUSH2 0x70F JUMP JUMPDEST PUSH1 0x1 DUP2 ADD SWAP1 POP PUSH2 0x728 JUMP JUMPDEST POP POP JUMP JUMPDEST PUSH1 0x1F DUP3 GT ISZERO PUSH2 0x78B JUMPI PUSH2 0x75C DUP2 PUSH2 0x621 JUMP JUMPDEST PUSH2 0x765 DUP5 PUSH2 0x636 JUMP JUMPDEST DUP2 ADD PUSH1 0x20 DUP6 LT ISZERO PUSH2 0x774 JUMPI DUP2 SWAP1 POP JUMPDEST PUSH2 0x788 PUSH2 0x780 DUP6 PUSH2 0x636 JUMP JUMPDEST DUP4 ADD DUP3 PUSH2 0x727 JUMP JUMPDEST POP POP JUMPDEST POP POP POP JUMP JUMPDEST PUSH1 0x0 DUP3 DUP3 SHR SWAP1 POP SWAP3 SWAP2 POP POP JUMP JUMPDEST PUSH1 0x0 PUSH2 0x7AE PUSH1 0x0 NOT DUP5 PUSH1 0x8 MUL PUSH2 0x790 JUMP JUMPDEST NOT DUP1 DUP4 AND SWAP2 POP POP SWAP3 SWAP2 POP POP JUMP JUMPDEST PUSH1 0x0 PUSH2 0x7C7 DUP4 DUP4 PUSH2 0x79D JUMP JUMPDEST SWAP2 POP DUP3 PUSH1 0x2 MUL DUP3 OR SWAP1 POP SWAP3 SWAP2 POP POP JUMP JUMPDEST PUSH2 0x7E0 DUP3 PUSH2 0x5B6 JUMP JUMPDEST PUSH8 0xFFFFFFFFFFFFFFFF DUP2 GT ISZERO PUSH2 0x7F9 JUMPI PUSH2 0x7F8 PUSH2 0x3B5 JUMP JUMPDEST JUMPDEST PUSH2 0x803 DUP3 SLOAD PUSH2 0x5F0 JUMP JUMPDEST PUSH2 0x80E DUP3 DUP3 DUP6 PUSH2 0x74A JUMP JUMPDEST PUSH1 0x0 PUSH1 0x20 SWAP1 POP PUSH1 0x1F DUP4 GT PUSH1 0x1 DUP2 EQ PUSH2 0x841 JUMPI PUSH1 0x0 DUP5 ISZERO PUSH2 0x82F JUMPI DUP3 DUP8 ADD MLOAD SWAP1 POP JUMPDEST PUSH2 0x839 DUP6 DUP3 PUSH2 0x7BB JUMP JUMPDEST DUP7 SSTORE POP PUSH2 0x8A1 JUMP JUMPDEST PUSH1 0x1F NOT DUP5 AND PUSH2 0x84F DUP7 PUSH2 0x621 JUMP JUMPDEST PUSH1 0x0 JUMPDEST DUP3 DUP2 LT ISZERO PUSH2 0x877 JUMPI DUP5 DUP10 ADD MLOAD DUP3 SSTORE PUSH1 0x1 DUP3 ADD SWAP2 POP PUSH1 0x20 DUP6 ADD SWAP5 POP PUSH1 0x20 DUP2 ADD SWAP1 POP PUSH2 0x852 JUMP JUMPDEST DUP7 DUP4 LT ISZERO PUSH2 0x894 JUMPI DUP5 DUP10 ADD MLOAD PUSH2 0x890 PUSH1 0x1F DUP10 AND DUP3 PUSH2 0x79D JUMP JUMPDEST DUP4 SSTORE POP JUMPDEST PUSH1 0x1 PUSH1 0x2 DUP9 MUL ADD DUP9 SSTORE POP POP POP JUMPDEST POP POP POP POP POP POP JUMP JUMPDEST PUSH2 0x8B2 DUP2 PUSH2 0x34A JUMP JUMPDEST DUP3 MSTORE POP POP JUMP JUMPDEST PUSH1 0x0 PUSH1 0x20 DUP3 ADD SWAP1 POP PUSH2 0x8CD PUSH1 0x0 DUP4 ADD DUP5 PUSH2 0x8A9 JUMP JUMPDEST SWAP3 SWAP2 POP POP JUMP JUMPDEST PUSH1 0x0 DUP2 MLOAD SWAP1 POP SWAP2 SWAP1 POP JUMP JUMPDEST PUSH1 0x0 DUP2 SWAP1 POP SWAP3 SWAP2 POP POP JUMP JUMPDEST PUSH1 0x0 PUSH2 0x8F4 DUP3 PUSH2 0x8D3 JUMP JUMPDEST PUSH2 0x8FE DUP2 DUP6 PUSH2 0x8DE JUMP JUMPDEST SWAP4 POP PUSH2 0x90E DUP2 DUP6 PUSH1 0x20 DUP7 ADD PUSH2 0x461 JUMP JUMPDEST DUP1 DUP5 ADD SWAP2 POP POP SWAP3 SWAP2 POP POP JUMP JUMPDEST PUSH1 0x0 PUSH2 0x926 DUP3 DUP5 PUSH2 0x8E9 JUMP JUMPDEST SWAP2 POP DUP2 SWAP1 POP SWAP3 SWAP2 POP POP JUMP JUMPDEST PUSH1 0x0 PUSH1 0xFF DUP3 AND SWAP1 POP SWAP2 SWAP1 POP JUMP JUMPDEST PUSH2 0x947 DUP2 PUSH2 0x931 JUMP JUMPDEST DUP2 EQ PUSH2 0x952 JUMPI PUSH1 0x0 DUP1 REVERT JUMPDEST POP JUMP JUMPDEST PUSH1 0x0 DUP2 MLOAD SWAP1 POP PUSH2 0x964 DUP2 PUSH2 0x93E JUMP JUMPDEST SWAP3 SWAP2 POP POP JUMP JUMPDEST PUSH1 0x0 PUSH1 0x20 DUP3 DUP5 SUB SLT ISZERO PUSH2 0x980 JUMPI PUSH2 0x97F PUSH2 0x320 JUMP JUMPDEST JUMPDEST PUSH1 0x0 PUSH2 0x98E DUP5 DUP3 DUP6 ADD PUSH2 0x955 JUMP JUMPDEST SWAP2 POP POP SWAP3 SWAP2 POP POP JUMP JUMPDEST PUSH1 0x80 MLOAD PUSH1 0xA0 MLOAD PUSH2 0x4190 PUSH2 0x9BC PUSH1 0x0 CODECOPY PUSH1 0x0 PUSH2 0x964 ADD MSTORE PUSH1 0x0 PUSH2 0xC8A ADD MSTORE PUSH2 0x4190 PUSH1 0x0 RETURN INVALID PUSH1 0x80 PUSH1 0x40 MSTORE CALLVALUE DUP1 ISZERO PUSH2 0x10 JUMPI PUSH1 0x0 DUP1 REVERT JUMPDEST POP PUSH1 0x4 CALLDATASIZE LT PUSH2 0x1E5 JUMPI PUSH1 0x0 CALLDATALOAD PUSH1 0xE0 SHR DUP1 PUSH4 0x715018A6 GT PUSH2 0x10F JUMPI DUP1 PUSH4 0xDE642119 GT PUSH2 0xA2 JUMPI DUP1 PUSH4 0xEB3155B5 GT PUSH2 0x71 JUMPI DUP1 PUSH4 0xEB3155B5 EQ PUSH2 0x5F4 JUMPI DUP1 PUSH4 0xEEE8A0E8 EQ PUSH2 0x624 JUMPI DUP1 PUSH4 0xF2FDE38B EQ PUSH2 0x654 JUMPI DUP1 PUSH4 0xF89D30B1 EQ PUSH2 0x670 JUMPI PUSH2 0x1E5 JUMP JUMPDEST DUP1 PUSH4 0xDE642119 EQ PUSH2 0x546 JUMPI DUP1 PUSH4 0xE064B9BB EQ PUSH2 0x576 JUMPI DUP1 PUSH4 0xE8A3D485 EQ PUSH2 0x5A6 JUMPI DUP1 PUSH4 0xE8C15FD4 EQ PUSH2 0x5C4 JUMPI PUSH2 0x1E5 JUMP JUMPDEST DUP1 PUSH4 0xB6363CF2 GT PUSH2 0xDE JUMPI DUP1 PUSH4 0xB6363CF2 EQ PUSH2 0x49A JUMPI DUP1 PUSH4 0xBF376C7A EQ PUSH2 0x4CA JUMPI DUP1 PUSH4 0xC7B8A75E EQ PUSH2 0x4FA JUMPI DUP1 PUSH4 0xD4FEBB96 EQ PUSH2 0x52A JUMPI PUSH2 0x1E5 JUMP JUMPDEST DUP1 PUSH4 0x715018A6 EQ PUSH2 0x424 JUMPI DUP1 PUSH4 0x88A7CA5C EQ PUSH2 0x42E JUMPI DUP1 PUSH4 0x8DA5CB5B EQ PUSH2 0x45E JUMPI DUP1 PUSH4 0x95D89B41 EQ PUSH2 0x47C JUMPI PUSH2 0x1E5 JUMP JUMPDEST DUP1 PUSH4 0x344FF101 GT PUSH2 0x187 JUMPI DUP1 PUSH4 0x5BEBED7E GT PUSH2 0x156 JUMPI DUP1 PUSH4 0x5BEBED7E EQ PUSH2 0x38A JUMPI DUP1 PUSH4 0x5BF4EF06 EQ PUSH2 0x3BA JUMPI DUP1 PUSH4 0x65F94FDB EQ PUSH2 0x3EA JUMPI DUP1 PUSH4 0x6F307DC3 EQ PUSH2 0x406 JUMPI PUSH2 0x1E5 JUMP JUMPDEST DUP1 PUSH4 0x344FF101 EQ PUSH2 0x2DC JUMPI DUP1 PUSH4 0x34C45743 EQ PUSH2 0x30C JUMPI DUP1 PUSH4 0x537D3C50 EQ PUSH2 0x33C JUMPI DUP1 PUSH4 0x54095227 EQ PUSH2 0x36C JUMPI PUSH2 0x1E5 JUMP JUMPDEST DUP1 PUSH4 0xC248955 GT PUSH2 0x1C3 JUMPI DUP1 PUSH4 0xC248955 EQ PUSH2 0x254 JUMPI DUP1 PUSH4 0x2AB4D052 EQ PUSH2 0x270 JUMPI DUP1 PUSH4 0x2FB74E62 EQ PUSH2 0x28E JUMPI DUP1 PUSH4 0x313CE567 EQ PUSH2 0x2BE JUMPI PUSH2 0x1E5 JUMP JUMPDEST DUP1 PUSH4 0x1FFC9A7 EQ PUSH2 0x1EA JUMPI DUP1 PUSH4 0x6FDDE03 EQ PUSH2 0x21A JUMPI DUP1 PUSH4 0x733F7B5 EQ PUSH2 0x238 JUMPI JUMPDEST PUSH1 0x0 DUP1 REVERT JUMPDEST PUSH2 0x204 PUSH1 0x4 DUP1 CALLDATASIZE SUB DUP2 ADD SWAP1 PUSH2 0x1FF SWAP2 SWAP1 PUSH2 0x2D3C JUMP JUMPDEST PUSH2 0x68E JUMP JUMPDEST PUSH1 0x40 MLOAD PUSH2 0x211 SWAP2 SWAP1 PUSH2 0x2D84 JUMP JUMPDEST PUSH1 0x40 MLOAD DUP1 SWAP2 SUB SWAP1 RETURN JUMPDEST PUSH2 0x222 PUSH2 0x770 JUMP JUMPDEST PUSH1 0x40 MLOAD PUSH2 0x22F SWAP2 SWAP1 PUSH2 0x2E2F JUMP JUMPDEST PUSH1 0x40 MLOAD DUP1 SWAP2 SUB SWAP1 RETURN JUMPDEST PUSH2 0x252 PUSH1 0x4 DUP1 CALLDATASIZE SUB DUP2 ADD SWAP1 PUSH2 0x24D SWAP2 SWAP1 PUSH2 0x2F0C JUMP JUMPDEST PUSH2 0x802 JUMP JUMPDEST STOP JUMPDEST PUSH2 0x26E PUSH1 0x4 DUP1 CALLDATASIZE SUB DUP2 ADD SWAP1 PUSH2 0x269 SWAP2 SWAP1 PUSH2 0x2FC3 JUMP JUMPDEST PUSH2 0x909 JUMP JUMPDEST STOP JUMPDEST PUSH2 0x278 PUSH2 0x917 JUMP JUMPDEST PUSH1 0x40 MLOAD PUSH2 0x285 SWAP2 SWAP1 PUSH2 0x2FFF JUMP JUMPDEST PUSH1 0x40 MLOAD DUP1 SWAP2 SUB SWAP1 RETURN JUMPDEST PUSH2 0x2A8 PUSH1 0x4 DUP1 CALLDATASIZE SUB DUP2 ADD SWAP1 PUSH2 0x2A3 SWAP2 SWAP1 PUSH2 0x3104 JUMP JUMPDEST PUSH2 0x93F JUMP JUMPDEST PUSH1 0x40 MLOAD PUSH2 0x2B5 SWAP2 SWAP1 PUSH2 0x3199 JUMP JUMPDEST PUSH1 0x40 MLOAD DUP1 SWAP2 SUB SWAP1 RETURN JUMPDEST PUSH2 0x2C6 PUSH2 0x960 JUMP JUMPDEST PUSH1 0x40 MLOAD PUSH2 0x2D3 SWAP2 SWAP1 PUSH2 0x31D0 JUMP JUMPDEST PUSH1 0x40 MLOAD DUP1 SWAP2 SUB SWAP1 RETURN JUMPDEST PUSH2 0x2F6 PUSH1 0x4 DUP1 CALLDATASIZE SUB DUP2 ADD SWAP1 PUSH2 0x2F1 SWAP2 SWAP1 PUSH2 0x31EB JUMP JUMPDEST PUSH2 0x988 JUMP JUMPDEST PUSH1 0x40 MLOAD PUSH2 0x303 SWAP2 SWAP1 PUSH2 0x3199 JUMP JUMPDEST PUSH1 0x40 MLOAD DUP1 SWAP2 SUB SWAP1 RETURN JUMPDEST PUSH2 0x326 PUSH1 0x4 DUP1 CALLDATASIZE SUB DUP2 ADD SWAP1 PUSH2 0x321 SWAP2 SWAP1 PUSH2 0x3218 JUMP JUMPDEST PUSH2 0x9D0 JUMP JUMPDEST PUSH1 0x40 MLOAD PUSH2 0x333 SWAP2 SWAP1 PUSH2 0x3199 JUMP JUMPDEST PUSH1 0x40 MLOAD DUP1 SWAP2 SUB SWAP1 RETURN JUMPDEST PUSH2 0x356 PUSH1 0x4 DUP1 CALLDATASIZE SUB DUP2 ADD SWAP1 PUSH2 0x351 SWAP2 SWAP1 PUSH2 0x3300 JUMP JUMPDEST PUSH2 0xA51 JUMP JUMPDEST PUSH1 0x40 MLOAD PUSH2 0x363 SWAP2 SWAP1 PUSH2 0x3199 JUMP JUMPDEST PUSH1 0x40 MLOAD DUP1 SWAP2 SUB SWAP1 RETURN JUMPDEST PUSH2 0x374 PUSH2 0xAC5 JUMP JUMPDEST PUSH1 0x40 MLOAD PUSH2 0x381 SWAP2 SWAP1 PUSH2 0x3199 JUMP JUMPDEST PUSH1 0x40 MLOAD DUP1 SWAP2 SUB SWAP1 RETURN JUMPDEST PUSH2 0x3A4 PUSH1 0x4 DUP1 CALLDATASIZE SUB DUP2 ADD SWAP1 PUSH2 0x39F SWAP2 SWAP1 PUSH2 0x3374 JUMP JUMPDEST PUSH2 0xACF JUMP JUMPDEST PUSH1 0x40 MLOAD PUSH2 0x3B1 SWAP2 SWAP1 PUSH2 0x3199 JUMP JUMPDEST PUSH1 0x40 MLOAD DUP1 SWAP2 SUB SWAP1 RETURN JUMPDEST PUSH2 0x3D4 PUSH1 0x4 DUP1 CALLDATASIZE SUB DUP2 ADD SWAP1 PUSH2 0x3CF SWAP2 SWAP1 PUSH2 0x33B4 JUMP JUMPDEST PUSH2 0xB35 JUMP JUMPDEST PUSH1 0x40 MLOAD PUSH2 0x3E1 SWAP2 SWAP1 PUSH2 0x3199 JUMP JUMPDEST PUSH1 0x40 MLOAD DUP1 SWAP2 SUB SWAP1 RETURN JUMPDEST PUSH2 0x404 PUSH1 0x4 DUP1 CALLDATASIZE SUB DUP2 ADD SWAP1 PUSH2 0x3FF SWAP2 SWAP1 PUSH2 0x343C JUMP JUMPDEST PUSH2 0xB57 JUMP JUMPDEST STOP JUMPDEST PUSH2 0x40E PUSH2 0xC86 JUMP JUMPDEST PUSH1 0x40 MLOAD PUSH2 0x41B SWAP2 SWAP1 PUSH2 0x34AB JUMP JUMPDEST PUSH1 0x40 MLOAD DUP1 SWAP2 SUB SWAP1 RETURN JUMPDEST PUSH2 0x42C PUSH2 0xCAE JUMP JUMPDEST STOP JUMPDEST PUSH2 0x448 PUSH1 0x4 DUP1 CALLDATASIZE SUB DUP2 ADD SWAP1 PUSH2 0x443 SWAP2 SWAP1 PUSH2 0x34C6 JUMP JUMPDEST PUSH2 0xCC2 JUMP JUMPDEST PUSH1 0x40 MLOAD PUSH2 0x455 SWAP2 SWAP1 PUSH2 0x355D JUMP JUMPDEST PUSH1 0x40 MLOAD DUP1 SWAP2 SUB SWAP1 RETURN JUMPDEST PUSH2 0x466 PUSH2 0xD8A JUMP JUMPDEST PUSH1 0x40 MLOAD PUSH2 0x473 SWAP2 SWAP1 PUSH2 0x34AB JUMP JUMPDEST PUSH1 0x40 MLOAD DUP1 SWAP2 SUB SWAP1 RETURN JUMPDEST PUSH2 0x484 PUSH2 0xDB4 JUMP JUMPDEST PUSH1 0x40 MLOAD PUSH2 0x491 SWAP2 SWAP1 PUSH2 0x2E2F JUMP JUMPDEST PUSH1 0x40 MLOAD DUP1 SWAP2 SUB SWAP1 RETURN JUMPDEST PUSH2 0x4B4 PUSH1 0x4 DUP1 CALLDATASIZE SUB DUP2 ADD SWAP1 PUSH2 0x4AF SWAP2 SWAP1 PUSH2 0x3578 JUMP JUMPDEST PUSH2 0xE46 JUMP JUMPDEST PUSH1 0x40 MLOAD PUSH2 0x4C1 SWAP2 SWAP1 PUSH2 0x2D84 JUMP JUMPDEST PUSH1 0x40 MLOAD DUP1 SWAP2 SUB SWAP1 RETURN JUMPDEST PUSH2 0x4E4 PUSH1 0x4 DUP1 CALLDATASIZE SUB DUP2 ADD SWAP1 PUSH2 0x4DF SWAP2 SWAP1 PUSH2 0x35B8 JUMP JUMPDEST PUSH2 0xF20 JUMP JUMPDEST PUSH1 0x40 MLOAD PUSH2 0x4F1 SWAP2 SWAP1 PUSH2 0x3199 JUMP JUMPDEST PUSH1 0x40 MLOAD DUP1 SWAP2 SUB SWAP1 RETURN JUMPDEST PUSH2 0x514 PUSH1 0x4 DUP1 CALLDATASIZE SUB DUP2 ADD SWAP1 PUSH2 0x50F SWAP2 SWAP1 PUSH2 0x35F8 JUMP JUMPDEST PUSH2 0xF5F JUMP JUMPDEST PUSH1 0x40 MLOAD PUSH2 0x521 SWAP2 SWAP1 PUSH2 0x3199 JUMP JUMPDEST PUSH1 0x40 MLOAD DUP1 SWAP2 SUB SWAP1 RETURN JUMPDEST PUSH2 0x544 PUSH1 0x4 DUP1 CALLDATASIZE SUB DUP2 ADD SWAP1 PUSH2 0x53F SWAP2 SWAP1 PUSH2 0x36BE JUMP JUMPDEST PUSH2 0x1025 JUMP JUMPDEST STOP JUMPDEST PUSH2 0x560 PUSH1 0x4 DUP1 CALLDATASIZE SUB DUP2 ADD SWAP1 PUSH2 0x55B SWAP2 SWAP1 PUSH2 0x36FE JUMP JUMPDEST PUSH2 0x1034 JUMP JUMPDEST PUSH1 0x40 MLOAD PUSH2 0x56D SWAP2 SWAP1 PUSH2 0x3199 JUMP JUMPDEST PUSH1 0x40 MLOAD DUP1 SWAP2 SUB SWAP1 RETURN JUMPDEST PUSH2 0x590 PUSH1 0x4 DUP1 CALLDATASIZE SUB DUP2 ADD SWAP1 PUSH2 0x58B SWAP2 SWAP1 PUSH2 0x33B4 JUMP JUMPDEST PUSH2 0x1063 JUMP JUMPDEST PUSH1 0x40 MLOAD PUSH2 0x59D SWAP2 SWAP1 PUSH2 0x3199 JUMP JUMPDEST PUSH1 0x40 MLOAD DUP1 SWAP2 SUB SWAP1 RETURN JUMPDEST PUSH2 0x5AE PUSH2 0x10E6 JUMP JUMPDEST PUSH1 0x40 MLOAD PUSH2 0x5BB SWAP2 SWAP1 PUSH2 0x2E2F JUMP JUMPDEST PUSH1 0x40 MLOAD DUP1 SWAP2 SUB SWAP1 RETURN JUMPDEST PUSH2 0x5DE PUSH1 0x4 DUP1 CALLDATASIZE SUB DUP2 ADD SWAP1 PUSH2 0x5D9 SWAP2 SWAP1 PUSH2 0x37A5 JUMP JUMPDEST PUSH2 0x1178 JUMP JUMPDEST PUSH1 0x40 MLOAD PUSH2 0x5EB SWAP2 SWAP1 PUSH2 0x3199 JUMP JUMPDEST PUSH1 0x40 MLOAD DUP1 SWAP2 SUB SWAP1 RETURN JUMPDEST PUSH2 0x60E PUSH1 0x4 DUP1 CALLDATASIZE SUB DUP2 ADD SWAP1 PUSH2 0x609 SWAP2 SWAP1 PUSH2 0x37A5 JUMP JUMPDEST PUSH2 0x11DF JUMP JUMPDEST PUSH1 0x40 MLOAD PUSH2 0x61B SWAP2 SWAP1 PUSH2 0x3199 JUMP JUMPDEST PUSH1 0x40 MLOAD DUP1 SWAP2 SUB SWAP1 RETURN JUMPDEST PUSH2 0x63E PUSH1 0x4 DUP1 CALLDATASIZE SUB DUP2 ADD SWAP1 PUSH2 0x639 SWAP2 SWAP1 PUSH2 0x37F8 JUMP JUMPDEST PUSH2 0x12A7 JUMP JUMPDEST PUSH1 0x40 MLOAD PUSH2 0x64B SWAP2 SWAP1 PUSH2 0x34AB JUMP JUMPDEST PUSH1 0x40 MLOAD DUP1 SWAP2 SUB SWAP1 RETURN JUMPDEST PUSH2 0x66E PUSH1 0x4 DUP1 CALLDATASIZE SUB DUP2 ADD SWAP1 PUSH2 0x669 SWAP2 SWAP1 PUSH2 0x31EB JUMP JUMPDEST PUSH2 0x12E4 JUMP JUMPDEST STOP JUMPDEST PUSH2 0x678 PUSH2 0x136A JUMP JUMPDEST PUSH1 0x40 MLOAD PUSH2 0x685 SWAP2 SWAP1 PUSH2 0x2FFF JUMP JUMPDEST PUSH1 0x40 MLOAD DUP1 SWAP2 SUB SWAP1 RETURN JUMPDEST PUSH1 0x0 PUSH32 0x3A0AAEBB00000000000000000000000000000000000000000000000000000000 PUSH28 0xFFFFFFFFFFFFFFFFFFFFFFFFFFFFFFFFFFFFFFFFFFFFFFFFFFFFFFFF NOT AND DUP3 PUSH28 0xFFFFFFFFFFFFFFFFFFFFFFFFFFFFFFFFFFFFFFFFFFFFFFFFFFFFFFFF NOT AND EQ DUP1 PUSH2 0x759 JUMPI POP PUSH32 0x88A7CA5C00000000000000000000000000000000000000000000000000000000 PUSH28 0xFFFFFFFFFFFFFFFFFFFFFFFFFFFFFFFFFFFFFFFFFFFFFFFFFFFFFFFF NOT AND DUP3 PUSH28 0xFFFFFFFFFFFFFFFFFFFFFFFFFFFFFFFFFFFFFFFFFFFFFFFFFFFFFFFF NOT AND EQ JUMPDEST DUP1 PUSH2 0x769 JUMPI POP PUSH2 0x768 DUP3 PUSH2 0x13F2 JUMP JUMPDEST JUMPDEST SWAP1 POP SWAP2 SWAP1 POP JUMP JUMPDEST PUSH1 0x60 PUSH1 0x3 DUP1 SLOAD PUSH2 0x77F SWAP1 PUSH2 0x3854 JUMP JUMPDEST DUP1 PUSH1 0x1F ADD PUSH1 0x20 DUP1 SWAP2 DIV MUL PUSH1 0x20 ADD PUSH1 0x40 MLOAD SWAP1 DUP2 ADD PUSH1 0x40 MSTORE DUP1 SWAP3 SWAP2 SWAP1 DUP2 DUP2 MSTORE PUSH1 0x20 ADD DUP3 DUP1 SLOAD PUSH2 0x7AB SWAP1 PUSH2 0x3854 JUMP JUMPDEST DUP1 ISZERO PUSH2 0x7F8 JUMPI DUP1 PUSH1 0x1F LT PUSH2 0x7CD JUMPI PUSH2 0x100 DUP1 DUP4 SLOAD DIV MUL DUP4 MSTORE SWAP2 PUSH1 0x20 ADD SWAP2 PUSH2 0x7F8 JUMP JUMPDEST DUP3 ADD SWAP2 SWAP1 PUSH1 0x0 MSTORE PUSH1 0x20 PUSH1 0x0 KECCAK256 SWAP1 JUMPDEST DUP2 SLOAD DUP2 MSTORE SWAP1 PUSH1 0x1 ADD SWAP1 PUSH1 0x20 ADD DUP1 DUP4 GT PUSH2 0x7DB JUMPI DUP3 SWAP1 SUB PUSH1 0x1F AND DUP3 ADD SWAP2 JUMPDEST POP POP POP POP POP SWAP1 POP SWAP1 JUMP JUMPDEST DUP2 DUP2 SWAP1 POP DUP5 DUP5 SWAP1 POP EQ PUSH2 0x84A JUMPI PUSH1 0x40 MLOAD PUSH32 0x8C379A000000000000000000000000000000000000000000000000000000000 DUP2 MSTORE PUSH1 0x4 ADD PUSH2 0x841 SWAP1 PUSH2 0x38D1 JUMP JUMPDEST PUSH1 0x40 MLOAD DUP1 SWAP2 SUB SWAP1 REVERT JUMPDEST PUSH1 0x0 JUMPDEST DUP5 DUP5 SWAP1 POP DUP2 LT ISZERO PUSH2 0x8B1 JUMPI PUSH2 0x8A3 CALLER DUP7 DUP7 DUP5 DUP2 DUP2 LT PUSH2 0x86F JUMPI PUSH2 0x86E PUSH2 0x38F1 JUMP JUMPDEST JUMPDEST SWAP1 POP PUSH1 0x20 MUL ADD PUSH1 0x20 DUP2 ADD SWAP1 PUSH2 0x884 SWAP2 SWAP1 PUSH2 0x31EB JUMP JUMPDEST DUP6 DUP6 DUP6 DUP2 DUP2 LT PUSH2 0x897 JUMPI PUSH2 0x896 PUSH2 0x38F1 JUMP JUMPDEST JUMPDEST SWAP1 POP PUSH1 0x20 MUL ADD CALLDATALOAD PUSH2 0x146C JUMP JUMPDEST POP DUP1 DUP1 PUSH1 0x1 ADD SWAP2 POP POP PUSH2 0x84D JUMP JUMPDEST POP CALLER PUSH20 0xFFFFFFFFFFFFFFFFFFFFFFFFFFFFFFFFFFFFFFFF AND PUSH32 0x21E2E7F50D6A579A7033232C971F20ED7E795C1BB05EBAB17E4CE1811021E609 DUP6 DUP6 SWAP1 POP PUSH1 0x40 MLOAD PUSH2 0x8FB SWAP2 SWAP1 PUSH2 0x2FFF JUMP JUMPDEST PUSH1 0x40 MLOAD DUP1 SWAP2 SUB SWAP1 LOG2 POP POP POP POP JUMP JUMPDEST PUSH2 0x913 CALLER DUP3 PUSH2 0xF20 JUMP JUMPDEST POP POP JUMP JUMPDEST PUSH1 0x0 PUSH32 0xFFFFFFFFFFFFFFFFFFFFFFFFFFFFFFFFFFFFFFFFFFFFFFFFFFFFFFFFFFFFFFFF SWAP1 POP SWAP1 JUMP JUMPDEST PUSH1 0x0 PUSH2 0x956 CALLER DUP7 PUSH2 0x951 DUP8 DUP8 DUP8 PUSH2 0x156B JUMP JUMPDEST PUSH2 0x146C JUMP JUMPDEST SWAP1 POP SWAP5 SWAP4 POP POP POP POP JUMP JUMPDEST PUSH1 0x0 PUSH32 0x0 SWAP1 POP SWAP1 JUMP JUMPDEST PUSH1 0x0 DUP1 PUSH1 0x0 DUP4 PUSH20 0xFFFFFFFFFFFFFFFFFFFFFFFFFFFFFFFFFFFFFFFF AND PUSH20 0xFFFFFFFFFFFFFFFFFFFFFFFFFFFFFFFFFFFFFFFF AND DUP2 MSTORE PUSH1 0x20 ADD SWAP1 DUP2 MSTORE PUSH1 0x20 ADD PUSH1 0x0 KECCAK256 SLOAD SWAP1 POP SWAP2 SWAP1 POP JUMP JUMPDEST PUSH1 0x0 PUSH2 0x9DC DUP9 CALLER PUSH2 0xE46 JUMP JUMPDEST DUP9 CALLER SWAP1 SWAP2 PUSH2 0xA21 JUMPI PUSH1 0x40 MLOAD PUSH32 0x79F2CB3800000000000000000000000000000000000000000000000000000000 DUP2 MSTORE PUSH1 0x4 ADD PUSH2 0xA18 SWAP3 SWAP2 SWAP1 PUSH2 0x3920 JUMP JUMPDEST PUSH1 0x40 MLOAD DUP1 SWAP2 SUB SWAP1 REVERT JUMPDEST POP POP PUSH2 0xA3A DUP9 DUP9 PUSH2 0xA33 DUP10 DUP10 DUP10 PUSH2 0x156B JUMP JUMPDEST DUP7 DUP7 PUSH2 0x15F7 JUMP JUMPDEST SWAP1 POP PUSH2 0xA46 DUP2 CALLER PUSH2 0x1653 JUMP JUMPDEST SWAP8 SWAP7 POP POP POP POP POP POP POP JUMP JUMPDEST PUSH1 0x0 PUSH2 0xA5D DUP5 CALLER PUSH2 0x1661 JUMP JUMPDEST DUP5 CALLER SWAP1 SWAP2 PUSH2 0xAA2 JUMPI PUSH1 0x40 MLOAD PUSH32 0x67CFE80500000000000000000000000000000000000000000000000000000000 DUP2 MSTORE PUSH1 0x4 ADD PUSH2 0xA99 SWAP3 SWAP2 SWAP1 PUSH2 0x3949 JUMP JUMPDEST PUSH1 0x40 MLOAD DUP1 SWAP2 SUB SWAP1 REVERT JUMPDEST POP POP PUSH2 0xAB1 CALLER DUP7 DUP7 DUP7 DUP7 PUSH2 0x15F7 JUMP JUMPDEST SWAP1 POP PUSH2 0xABD DUP2 CALLER PUSH2 0x1653 JUMP JUMPDEST SWAP5 SWAP4 POP POP POP POP JUMP JUMPDEST PUSH1 0x0 PUSH1 0x2 SLOAD SWAP1 POP SWAP1 JUMP JUMPDEST PUSH1 0x0 PUSH2 0xADB DUP3 CALLER PUSH2 0x1661 JUMP JUMPDEST DUP3 CALLER SWAP1 SWAP2 PUSH2 0xB20 JUMPI PUSH1 0x40 MLOAD PUSH32 0x67CFE80500000000000000000000000000000000000000000000000000000000 DUP2 MSTORE PUSH1 0x4 ADD PUSH2 0xB17 SWAP3 SWAP2 SWAP1 PUSH2 0x3949 JUMP JUMPDEST PUSH1 0x40 MLOAD DUP1 SWAP2 SUB SWAP1 REVERT JUMPDEST POP POP PUSH2 0xB2D CALLER DUP5 DUP5 PUSH2 0x146C JUMP JUMPDEST SWAP1 POP SWAP3 SWAP2 POP POP JUMP JUMPDEST PUSH1 0x0 PUSH2 0xB4C DUP7 DUP7 PUSH2 0xB47 DUP8 DUP8 DUP8 PUSH2 0x156B JUMP JUMPDEST PUSH2 0x16EE JUMP JUMPDEST SWAP1 POP SWAP6 SWAP5 POP POP POP POP POP JUMP JUMPDEST PUSH1 0x0 PUSH2 0xB62 DUP5 PUSH2 0x12A7 JUMP JUMPDEST SWAP1 POP PUSH1 0x0 PUSH20 0xFFFFFFFFFFFFFFFFFFFFFFFFFFFFFFFFFFFFFFFF AND DUP2 PUSH20 0xFFFFFFFFFFFFFFFFFFFFFFFFFFFFFFFFFFFFFFFF AND EQ ISZERO DUP5 SWAP1 PUSH2 0xBD7 JUMPI PUSH1 0x40 MLOAD PUSH32 0xD1630F8E00000000000000000000000000000000000000000000000000000000 DUP2 MSTORE PUSH1 0x4 ADD PUSH2 0xBCE SWAP2 SWAP1 PUSH2 0x3199 JUMP JUMPDEST PUSH1 0x40 MLOAD DUP1 SWAP2 SUB SWAP1 REVERT JUMPDEST POP PUSH1 0x6 PUSH1 0x0 DUP6 DUP2 MSTORE PUSH1 0x20 ADD SWAP1 DUP2 MSTORE PUSH1 0x20 ADD PUSH1 0x0 KECCAK256 PUSH1 0x0 PUSH2 0x100 EXP DUP2 SLOAD SWAP1 PUSH20 0xFFFFFFFFFFFFFFFFFFFFFFFFFFFFFFFFFFFFFFFF MUL NOT AND SWAP1 SSTORE PUSH1 0x0 PUSH2 0xC1B DUP6 DUP6 DUP6 PUSH2 0x18F1 JUMP JUMPDEST SWAP1 POP PUSH2 0xC2F PUSH2 0xC28 PUSH2 0xC86 JUMP JUMPDEST DUP4 DUP4 PUSH2 0x19DF JUMP JUMPDEST DUP2 PUSH20 0xFFFFFFFFFFFFFFFFFFFFFFFFFFFFFFFFFFFFFFFF AND PUSH32 0x387CE7199AF53BE9F77AB809CFADD7A3BA121BA687C4059D4F55A0A4A8D5ECAD DUP7 DUP4 PUSH1 0x40 MLOAD PUSH2 0xC77 SWAP3 SWAP2 SWAP1 PUSH2 0x3972 JUMP JUMPDEST PUSH1 0x40 MLOAD DUP1 SWAP2 SUB SWAP1 LOG2 POP POP POP POP POP JUMP JUMPDEST PUSH1 0x0 PUSH32 0x0 SWAP1 POP SWAP1 JUMP JUMPDEST PUSH2 0xCB6 PUSH2 0x1A32 JUMP JUMPDEST PUSH2 0xCC0 PUSH1 0x0 PUSH2 0x1AB9 JUMP JUMPDEST JUMP JUMPDEST PUSH1 0x0 CALLER PUSH20 0xFFFFFFFFFFFFFFFFFFFFFFFFFFFFFFFFFFFFFFFF AND PUSH2 0xCE3 PUSH2 0xC86 JUMP JUMPDEST PUSH20 0xFFFFFFFFFFFFFFFFFFFFFFFFFFFFFFFFFFFFFFFF AND EQ CALLER SWAP1 PUSH2 0xD3C JUMPI PUSH1 0x40 MLOAD PUSH32 0x782C6FFD00000000000000000000000000000000000000000000000000000000 DUP2 MSTORE PUSH1 0x4 ADD PUSH2 0xD33 SWAP2 SWAP1 PUSH2 0x34AB JUMP JUMPDEST PUSH1 0x40 MLOAD DUP1 SWAP2 SUB SWAP1 REVERT JUMPDEST POP PUSH1 0x0 PUSH1 0x14 DUP5 DUP5 SWAP1 POP LT PUSH2 0xD5F JUMPI DUP4 DUP4 SWAP1 PUSH2 0xD57 SWAP2 SWAP1 PUSH2 0x39DF JUMP JUMPDEST PUSH1 0x60 SHR PUSH2 0xD61 JUMP JUMPDEST DUP6 JUMPDEST SWAP1 POP PUSH2 0xD75 DUP2 PUSH2 0xD70 DUP8 PUSH2 0x1B7F JUMP JUMPDEST PUSH2 0x1C11 JUMP JUMPDEST POP PUSH4 0x88A7CA5C PUSH1 0xE0 SHL SWAP2 POP POP SWAP6 SWAP5 POP POP POP POP POP JUMP JUMPDEST PUSH1 0x0 PUSH1 0x7 PUSH1 0x0 SWAP1 SLOAD SWAP1 PUSH2 0x100 EXP SWAP1 DIV PUSH20 0xFFFFFFFFFFFFFFFFFFFFFFFFFFFFFFFFFFFFFFFF AND SWAP1 POP SWAP1 JUMP JUMPDEST PUSH1 0x60 PUSH1 0x4 DUP1 SLOAD PUSH2 0xDC3 SWAP1 PUSH2 0x3854 JUMP JUMPDEST DUP1 PUSH1 0x1F ADD PUSH1 0x20 DUP1 SWAP2 DIV MUL PUSH1 0x20 ADD PUSH1 0x40 MLOAD SWAP1 DUP2 ADD PUSH1 0x40 MSTORE DUP1 SWAP3 SWAP2 SWAP1 DUP2 DUP2 MSTORE PUSH1 0x20 ADD DUP3 DUP1 SLOAD PUSH2 0xDEF SWAP1 PUSH2 0x3854 JUMP JUMPDEST DUP1 ISZERO PUSH2 0xE3C JUMPI DUP1 PUSH1 0x1F LT PUSH2 0xE11 JUMPI PUSH2 0x100 DUP1 DUP4 SLOAD DIV MUL DUP4 MSTORE SWAP2 PUSH1 0x20 ADD SWAP2 PUSH2 0xE3C JUMP JUMPDEST DUP3 ADD SWAP2 SWAP1 PUSH1 0x0 MSTORE PUSH1 0x20 PUSH1 0x0 KECCAK256 SWAP1 JUMPDEST DUP2 SLOAD DUP2 MSTORE SWAP1 PUSH1 0x1 ADD SWAP1 PUSH1 0x20 ADD DUP1 DUP4 GT PUSH2 0xE1F JUMPI DUP3 SWAP1 SUB PUSH1 0x1F AND DUP3 ADD SWAP2 JUMPDEST POP POP POP POP POP SWAP1 POP SWAP1 JUMP JUMPDEST PUSH1 0x0 DUP2 PUSH20 0xFFFFFFFFFFFFFFFFFFFFFFFFFFFFFFFFFFFFFFFF AND DUP4 PUSH20 0xFFFFFFFFFFFFFFFFFFFFFFFFFFFFFFFFFFFFFFFF AND EQ DUP1 PUSH2 0xF18 JUMPI POP PUSH1 0x1 PUSH1 0x0 DUP5 PUSH20 0xFFFFFFFFFFFFFFFFFFFFFFFFFFFFFFFFFFFFFFFF AND PUSH20 0xFFFFFFFFFFFFFFFFFFFFFFFFFFFFFFFFFFFFFFFF AND DUP2 MSTORE PUSH1 0x20 ADD SWAP1 DUP2 MSTORE PUSH1 0x20 ADD PUSH1 0x0 KECCAK256 PUSH1 0x0 DUP4 PUSH20 0xFFFFFFFFFFFFFFFFFFFFFFFFFFFFFFFFFFFFFFFF AND PUSH20 0xFFFFFFFFFFFFFFFFFFFFFFFFFFFFFFFFFFFFFFFF AND DUP2 MSTORE PUSH1 0x20 ADD SWAP1 DUP2 MSTORE PUSH1 0x20 ADD PUSH1 0x0 KECCAK256 PUSH1 0x0 SWAP1 SLOAD SWAP1 PUSH2 0x100 EXP SWAP1 DIV PUSH6 0xFFFFFFFFFFFF AND PUSH6 0xFFFFFFFFFFFF AND TIMESTAMP GT ISZERO JUMPDEST SWAP1 POP SWAP3 SWAP2 POP POP JUMP JUMPDEST PUSH1 0x0 PUSH2 0xF35 PUSH2 0xF2D PUSH2 0xC86 JUMP JUMPDEST CALLER ADDRESS DUP6 PUSH2 0x1C9B JUMP JUMPDEST PUSH1 0x0 PUSH2 0xF49 DUP5 PUSH2 0xF44 DUP6 PUSH2 0x1B7F JUMP JUMPDEST PUSH2 0x1C11 JUMP JUMPDEST SWAP1 POP PUSH2 0xF55 DUP2 CALLER PUSH2 0x1653 JUMP JUMPDEST DUP1 SWAP2 POP POP SWAP3 SWAP2 POP POP JUMP JUMPDEST PUSH1 0x0 PUSH2 0xF6B DUP5 CALLER PUSH2 0x1661 JUMP JUMPDEST DUP5 CALLER SWAP1 SWAP2 PUSH2 0xFB0 JUMPI PUSH1 0x40 MLOAD PUSH32 0x67CFE80500000000000000000000000000000000000000000000000000000000 DUP2 MSTORE PUSH1 0x4 ADD PUSH2 0xFA7 SWAP3 SWAP2 SWAP1 PUSH2 0x3949 JUMP JUMPDEST PUSH1 0x40 MLOAD DUP1 SWAP2 SUB SWAP1 REVERT JUMPDEST POP POP PUSH2 0xFBC DUP7 CALLER PUSH2 0xE46 JUMP JUMPDEST DUP7 CALLER SWAP1 SWAP2 PUSH2 0x1001 JUMPI PUSH1 0x40 MLOAD PUSH32 0x79F2CB3800000000000000000000000000000000000000000000000000000000 DUP2 MSTORE PUSH1 0x4 ADD PUSH2 0xFF8 SWAP3 SWAP2 SWAP1 PUSH2 0x3920 JUMP JUMPDEST PUSH1 0x40 MLOAD DUP1 SWAP2 SUB SWAP1 REVERT JUMPDEST POP POP PUSH2 0x1010 DUP7 DUP7 DUP7 DUP7 DUP7 PUSH2 0x15F7 JUMP JUMPDEST SWAP1 POP PUSH2 0x101C DUP2 CALLER PUSH2 0x1653 JUMP JUMPDEST SWAP6 SWAP5 POP POP POP POP POP JUMP JUMPDEST PUSH2 0x1030 CALLER DUP4 DUP4 PUSH2 0x1CF0 JUMP JUMPDEST POP POP JUMP JUMPDEST PUSH1 0x0 PUSH2 0x104D CALLER DUP9 PUSH2 0x1046 DUP10 DUP10 DUP10 PUSH2 0x156B JUMP JUMPDEST DUP7 DUP7 PUSH2 0x15F7 JUMP JUMPDEST SWAP1 POP PUSH2 0x1059 DUP2 CALLER PUSH2 0x1653 JUMP JUMPDEST SWAP7 SWAP6 POP POP POP POP POP POP JUMP JUMPDEST PUSH1 0x0 PUSH2 0x106F DUP7 CALLER PUSH2 0xE46 JUMP JUMPDEST DUP7 CALLER SWAP1 SWAP2 PUSH2 0x10B4 JUMPI PUSH1 0x40 MLOAD PUSH32 0x79F2CB3800000000000000000000000000000000000000000000000000000000 DUP2 MSTORE PUSH1 0x4 ADD PUSH2 0x10AB SWAP3 SWAP2 SWAP1 PUSH2 0x3920 JUMP JUMPDEST PUSH1 0x40 MLOAD DUP1 SWAP2 SUB SWAP1 REVERT JUMPDEST POP POP PUSH1 0x0 PUSH2 0x10CD DUP8 DUP8 PUSH2 0x10C8 DUP9 DUP9 DUP9 PUSH2 0x156B JUMP JUMPDEST PUSH2 0x146C JUMP JUMPDEST SWAP1 POP PUSH2 0x10D9 DUP2 CALLER PUSH2 0x1653 JUMP JUMPDEST DUP1 SWAP2 POP POP SWAP6 SWAP5 POP POP POP POP POP JUMP JUMPDEST PUSH1 0x60 PUSH1 0x5 DUP1 SLOAD PUSH2 0x10F5 SWAP1 PUSH2 0x3854 JUMP JUMPDEST DUP1 PUSH1 0x1F ADD PUSH1 0x20 DUP1 SWAP2 DIV MUL PUSH1 0x20 ADD PUSH1 0x40 MLOAD SWAP1 DUP2 ADD PUSH1 0x40 MSTORE DUP1 SWAP3 SWAP2 SWAP1 DUP2 DUP2 MSTORE PUSH1 0x20 ADD DUP3 DUP1 SLOAD PUSH2 0x1121 SWAP1 PUSH2 0x3854 JUMP JUMPDEST DUP1 ISZERO PUSH2 0x116E JUMPI DUP1 PUSH1 0x1F LT PUSH2 0x1143 JUMPI PUSH2 0x100 DUP1 DUP4 SLOAD DIV MUL DUP4 MSTORE SWAP2 PUSH1 0x20 ADD SWAP2 PUSH2 0x116E JUMP JUMPDEST DUP3 ADD SWAP2 SWAP1 PUSH1 0x0 MSTORE PUSH1 0x20 PUSH1 0x0 KECCAK256 SWAP1 JUMPDEST DUP2 SLOAD DUP2 MSTORE SWAP1 PUSH1 0x1 ADD SWAP1 PUSH1 0x20 ADD DUP1 DUP4 GT PUSH2 0x1151 JUMPI DUP3 SWAP1 SUB PUSH1 0x1F AND DUP3 ADD SWAP2 JUMPDEST POP POP POP POP POP SWAP1 POP SWAP1 JUMP JUMPDEST PUSH1 0x0 PUSH2 0x1184 DUP3 CALLER PUSH2 0x1661 JUMP JUMPDEST DUP3 CALLER SWAP1 SWAP2 PUSH2 0x11C9 JUMPI PUSH1 0x40 MLOAD PUSH32 0x67CFE80500000000000000000000000000000000000000000000000000000000 DUP2 MSTORE PUSH1 0x4 ADD PUSH2 0x11C0 SWAP3 SWAP2 SWAP1 PUSH2 0x3949 JUMP JUMPDEST PUSH1 0x40 MLOAD DUP1 SWAP2 SUB SWAP1 REVERT JUMPDEST POP POP PUSH2 0x11D6 DUP5 DUP5 DUP5 PUSH2 0x16EE JUMP JUMPDEST SWAP1 POP SWAP4 SWAP3 POP POP POP JUMP JUMPDEST PUSH1 0x0 PUSH2 0x11EB DUP3 CALLER PUSH2 0x1661 JUMP JUMPDEST DUP3 CALLER SWAP1 SWAP2 PUSH2 0x1230 JUMPI PUSH1 0x40 MLOAD PUSH32 0x67CFE80500000000000000000000000000000000000000000000000000000000 DUP2 MSTORE PUSH1 0x4 ADD PUSH2 0x1227 SWAP3 SWAP2 SWAP1 PUSH2 0x3949 JUMP JUMPDEST PUSH1 0x40 MLOAD DUP1 SWAP2 SUB SWAP1 REVERT JUMPDEST POP POP PUSH2 0x123C DUP5 CALLER PUSH2 0xE46 JUMP JUMPDEST DUP5 CALLER SWAP1 SWAP2 PUSH2 0x1281 JUMPI PUSH1 0x40 MLOAD PUSH32 0x79F2CB3800000000000000000000000000000000000000000000000000000000 DUP2 MSTORE PUSH1 0x4 ADD PUSH2 0x1278 SWAP3 SWAP2 SWAP1 PUSH2 0x3920 JUMP JUMPDEST PUSH1 0x40 MLOAD DUP1 SWAP2 SUB SWAP1 REVERT JUMPDEST POP POP PUSH1 0x0 PUSH2 0x1290 DUP6 DUP6 DUP6 PUSH2 0x146C JUMP JUMPDEST SWAP1 POP PUSH2 0x129C DUP2 CALLER PUSH2 0x1653 JUMP JUMPDEST DUP1 SWAP2 POP POP SWAP4 SWAP3 POP POP POP JUMP JUMPDEST PUSH1 0x0 PUSH1 0x6 PUSH1 0x0 DUP4 DUP2 MSTORE PUSH1 0x20 ADD SWAP1 DUP2 MSTORE PUSH1 0x20 ADD PUSH1 0x0 KECCAK256 PUSH1 0x0 SWAP1 SLOAD SWAP1 PUSH2 0x100 EXP SWAP1 DIV PUSH20 0xFFFFFFFFFFFFFFFFFFFFFFFFFFFFFFFFFFFFFFFF AND SWAP1 POP SWAP2 SWAP1 POP JUMP JUMPDEST PUSH2 0x12EC PUSH2 0x1A32 JUMP JUMPDEST PUSH1 0x0 PUSH20 0xFFFFFFFFFFFFFFFFFFFFFFFFFFFFFFFFFFFFFFFF AND DUP2 PUSH20 0xFFFFFFFFFFFFFFFFFFFFFFFFFFFFFFFFFFFFFFFF AND SUB PUSH2 0x135E JUMPI PUSH1 0x0 PUSH1 0x40 MLOAD PUSH32 0x1E4FBDF700000000000000000000000000000000000000000000000000000000 DUP2 MSTORE PUSH1 0x4 ADD PUSH2 0x1355 SWAP2 SWAP1 PUSH2 0x34AB JUMP JUMPDEST PUSH1 0x40 MLOAD DUP1 SWAP2 SUB SWAP1 REVERT JUMPDEST PUSH2 0x1367 DUP2 PUSH2 0x1AB9 JUMP JUMPDEST POP JUMP JUMPDEST PUSH1 0x0 PUSH2 0x1374 PUSH2 0xC86 JUMP JUMPDEST PUSH20 0xFFFFFFFFFFFFFFFFFFFFFFFFFFFFFFFFFFFFFFFF AND PUSH4 0x70A08231 ADDRESS PUSH1 0x40 MLOAD DUP3 PUSH4 0xFFFFFFFF AND PUSH1 0xE0 SHL DUP2 MSTORE PUSH1 0x4 ADD PUSH2 0x13AC SWAP2 SWAP1 PUSH2 0x34AB JUMP JUMPDEST PUSH1 0x20 PUSH1 0x40 MLOAD DUP1 DUP4 SUB DUP2 DUP7 GAS STATICCALL ISZERO DUP1 ISZERO PUSH2 0x13C9 JUMPI RETURNDATASIZE PUSH1 0x0 DUP1 RETURNDATACOPY RETURNDATASIZE PUSH1 0x0 REVERT JUMPDEST POP POP POP POP PUSH1 0x40 MLOAD RETURNDATASIZE PUSH1 0x1F NOT PUSH1 0x1F DUP3 ADD AND DUP3 ADD DUP1 PUSH1 0x40 MSTORE POP DUP2 ADD SWAP1 PUSH2 0x13ED SWAP2 SWAP1 PUSH2 0x3A53 JUMP JUMPDEST SWAP1 POP SWAP1 JUMP JUMPDEST PUSH1 0x0 PUSH32 0x4958F2A400000000000000000000000000000000000000000000000000000000 PUSH28 0xFFFFFFFFFFFFFFFFFFFFFFFFFFFFFFFFFFFFFFFFFFFFFFFFFFFFFFFF NOT AND DUP3 PUSH28 0xFFFFFFFFFFFFFFFFFFFFFFFFFFFFFFFFFFFFFFFFFFFFFFFFFFFFFFFF NOT AND EQ DUP1 PUSH2 0x1465 JUMPI POP PUSH2 0x1464 DUP3 PUSH2 0x1DF9 JUMP JUMPDEST JUMPDEST SWAP1 POP SWAP2 SWAP1 POP JUMP JUMPDEST PUSH1 0x0 DUP1 PUSH20 0xFFFFFFFFFFFFFFFFFFFFFFFFFFFFFFFFFFFFFFFF AND DUP5 PUSH20 0xFFFFFFFFFFFFFFFFFFFFFFFFFFFFFFFFFFFFFFFF AND EQ ISZERO PUSH1 0x0 SWAP1 PUSH2 0x14E1 JUMPI PUSH1 0x40 MLOAD PUSH32 0xEE457EBF00000000000000000000000000000000000000000000000000000000 DUP2 MSTORE PUSH1 0x4 ADD PUSH2 0x14D8 SWAP2 SWAP1 PUSH2 0x34AB JUMP JUMPDEST PUSH1 0x40 MLOAD DUP1 SWAP2 SUB SWAP1 REVERT JUMPDEST POP PUSH1 0x0 PUSH20 0xFFFFFFFFFFFFFFFFFFFFFFFFFFFFFFFFFFFFFFFF AND DUP4 PUSH20 0xFFFFFFFFFFFFFFFFFFFFFFFFFFFFFFFFFFFFFFFF AND EQ ISZERO PUSH1 0x0 SWAP1 PUSH2 0x1556 JUMPI PUSH1 0x40 MLOAD PUSH32 0x8D51880100000000000000000000000000000000000000000000000000000000 DUP2 MSTORE PUSH1 0x4 ADD PUSH2 0x154D SWAP2 SWAP1 PUSH2 0x34AB JUMP JUMPDEST PUSH1 0x40 MLOAD DUP1 SWAP2 SUB SWAP1 REVERT JUMPDEST POP PUSH2 0x1562 DUP5 DUP5 DUP5 PUSH2 0x1E63 JUMP JUMPDEST SWAP1 POP SWAP4 SWAP3 POP POP POP JUMP JUMPDEST PUSH1 0x0 DUP1 DUP5 SWAP1 POP PUSH2 0x1579 PUSH2 0x1EB5 JUMP JUMPDEST PUSH20 0xFFFFFFFFFFFFFFFFFFFFFFFFFFFFFFFFFFFFFFFF AND PUSH4 0xD0571E42 DUP3 CALLER DUP8 DUP8 PUSH1 0x23 PUSH1 0x40 MLOAD DUP7 PUSH4 0xFFFFFFFF AND PUSH1 0xE0 SHL DUP2 MSTORE PUSH1 0x4 ADD PUSH2 0x15BA SWAP6 SWAP5 SWAP4 SWAP3 SWAP2 SWAP1 PUSH2 0x3B53 JUMP JUMPDEST PUSH1 0x0 PUSH1 0x40 MLOAD DUP1 DUP4 SUB DUP2 PUSH1 0x0 DUP8 DUP1 EXTCODESIZE ISZERO DUP1 ISZERO PUSH2 0x15D4 JUMPI PUSH1 0x0 DUP1 REVERT JUMPDEST POP GAS CALL ISZERO DUP1 ISZERO PUSH2 0x15E8 JUMPI RETURNDATASIZE PUSH1 0x0 DUP1 RETURNDATACOPY RETURNDATASIZE PUSH1 0x0 REVERT JUMPDEST POP POP POP POP DUP1 SWAP2 POP POP SWAP4 SWAP3 POP POP POP JUMP JUMPDEST PUSH1 0x0 DUP1 PUSH2 0x1605 DUP8 DUP8 DUP8 PUSH2 0x146C JUMP JUMPDEST SWAP1 POP PUSH1 0x0 PUSH2 0x1617 CALLER DUP10 DUP10 DUP6 DUP10 DUP10 PUSH2 0x1EC4 JUMP JUMPDEST SWAP1 POP PUSH1 0x0 PUSH2 0x1639 DUP9 DUP11 PUSH2 0x1634 DUP6 PUSH2 0x162E PUSH1 0x0 PUSH2 0x1B7F JUMP JUMPDEST DUP9 PUSH2 0x2005 JUMP JUMPDEST PUSH2 0x1E63 JUMP JUMPDEST SWAP1 POP PUSH2 0x1645 DUP4 DUP3 PUSH2 0x20B5 JUMP JUMPDEST SWAP4 POP POP POP POP SWAP6 SWAP5 POP POP POP POP POP JUMP JUMPDEST PUSH2 0x165D DUP3 DUP3 PUSH2 0x2158 JUMP JUMPDEST POP POP JUMP JUMPDEST PUSH1 0x0 PUSH2 0x166B PUSH2 0x1EB5 JUMP JUMPDEST PUSH20 0xFFFFFFFFFFFFFFFFFFFFFFFFFFFFFFFFFFFFFFFF AND PUSH4 0x82027B6D DUP5 DUP5 PUSH1 0x40 MLOAD DUP4 PUSH4 0xFFFFFFFF AND PUSH1 0xE0 SHL DUP2 MSTORE PUSH1 0x4 ADD PUSH2 0x16A5 SWAP3 SWAP2 SWAP1 PUSH2 0x3BA1 JUMP JUMPDEST PUSH1 0x20 PUSH1 0x40 MLOAD DUP1 DUP4 SUB DUP2 DUP7 GAS STATICCALL ISZERO DUP1 ISZERO PUSH2 0x16C2 JUMPI RETURNDATASIZE PUSH1 0x0 DUP1 RETURNDATACOPY RETURNDATASIZE PUSH1 0x0 REVERT JUMPDEST POP POP POP POP PUSH1 0x40 MLOAD RETURNDATASIZE PUSH1 0x1F NOT PUSH1 0x1F DUP3 ADD AND DUP3 ADD DUP1 PUSH1 0x40 MSTORE POP DUP2 ADD SWAP1 PUSH2 0x16E6 SWAP2 SWAP1 PUSH2 0x3BF6 JUMP JUMPDEST SWAP1 POP SWAP3 SWAP2 POP POP JUMP JUMPDEST PUSH1 0x0 DUP1 PUSH20 0xFFFFFFFFFFFFFFFFFFFFFFFFFFFFFFFFFFFFFFFF AND DUP4 PUSH20 0xFFFFFFFFFFFFFFFFFFFFFFFFFFFFFFFFFFFFFFFF AND EQ ISZERO DUP4 SWAP1 PUSH2 0x1762 JUMPI PUSH1 0x40 MLOAD PUSH32 0x8D51880100000000000000000000000000000000000000000000000000000000 DUP2 MSTORE PUSH1 0x4 ADD PUSH2 0x1759 SWAP2 SWAP1 PUSH2 0x34AB JUMP JUMPDEST PUSH1 0x40 MLOAD DUP1 SWAP2 SUB SWAP1 REVERT JUMPDEST POP CALLER PUSH20 0xFFFFFFFFFFFFFFFFFFFFFFFFFFFFFFFFFFFFFFFF AND DUP5 PUSH20 0xFFFFFFFFFFFFFFFFFFFFFFFFFFFFFFFFFFFFFFFF AND EQ DUP1 PUSH2 0x17A3 JUMPI POP PUSH2 0x17A2 DUP5 CALLER PUSH2 0xE46 JUMP JUMPDEST JUMPDEST DUP5 CALLER SWAP1 SWAP2 PUSH2 0x17E8 JUMPI PUSH1 0x40 MLOAD PUSH32 0x79F2CB3800000000000000000000000000000000000000000000000000000000 DUP2 MSTORE PUSH1 0x4 ADD PUSH2 0x17DF SWAP3 SWAP2 SWAP1 PUSH2 0x3920 JUMP JUMPDEST PUSH1 0x40 MLOAD DUP1 SWAP2 SUB SWAP1 REVERT JUMPDEST POP POP PUSH1 0x0 PUSH2 0x17F6 DUP6 DUP5 PUSH2 0x21DE JUMP JUMPDEST SWAP1 POP PUSH2 0x1801 DUP2 PUSH2 0x2268 JUMP JUMPDEST PUSH1 0x0 PUSH20 0xFFFFFFFFFFFFFFFFFFFFFFFFFFFFFFFFFFFFFFFF AND PUSH2 0x1822 DUP3 PUSH2 0x12A7 JUMP JUMPDEST PUSH20 0xFFFFFFFFFFFFFFFFFFFFFFFFFFFFFFFFFFFFFFFF AND EQ PUSH2 0x1846 JUMPI PUSH2 0x1845 PUSH2 0x3C23 JUMP JUMPDEST JUMPDEST DUP4 PUSH1 0x6 PUSH1 0x0 DUP4 DUP2 MSTORE PUSH1 0x20 ADD SWAP1 DUP2 MSTORE PUSH1 0x20 ADD PUSH1 0x0 KECCAK256 PUSH1 0x0 PUSH2 0x100 EXP DUP2 SLOAD DUP2 PUSH20 0xFFFFFFFFFFFFFFFFFFFFFFFFFFFFFFFFFFFFFFFF MUL NOT AND SWAP1 DUP4 PUSH20 0xFFFFFFFFFFFFFFFFFFFFFFFFFFFFFFFFFFFFFFFF AND MUL OR SWAP1 SSTORE POP DUP4 PUSH20 0xFFFFFFFFFFFFFFFFFFFFFFFFFFFFFFFFFFFFFFFF AND PUSH32 0x77D02D353C5629272875D11F1B34EC4C65D7430B075575B78CD2502034C469EE DUP3 PUSH1 0x40 MLOAD PUSH2 0x18DE SWAP2 SWAP1 PUSH2 0x3199 JUMP JUMPDEST PUSH1 0x40 MLOAD DUP1 SWAP2 SUB SWAP1 LOG2 DUP1 SWAP2 POP POP SWAP4 SWAP3 POP POP POP JUMP JUMPDEST PUSH1 0x0 DUP1 PUSH2 0x18FC PUSH2 0x1EB5 JUMP JUMPDEST PUSH20 0xFFFFFFFFFFFFFFFFFFFFFFFFFFFFFFFFFFFFFFFF AND PUSH4 0x4DC752EC DUP7 DUP7 DUP7 PUSH1 0x40 MLOAD DUP5 PUSH4 0xFFFFFFFF AND PUSH1 0xE0 SHL DUP2 MSTORE PUSH1 0x4 ADD PUSH2 0x1938 SWAP4 SWAP3 SWAP2 SWAP1 PUSH2 0x3C52 JUMP JUMPDEST PUSH1 0x0 PUSH1 0x40 MLOAD DUP1 DUP4 SUB DUP2 DUP7 GAS STATICCALL ISZERO DUP1 ISZERO PUSH2 0x1955 JUMPI RETURNDATASIZE PUSH1 0x0 DUP1 RETURNDATACOPY RETURNDATASIZE PUSH1 0x0 REVERT JUMPDEST POP POP POP POP PUSH1 0x40 MLOAD RETURNDATASIZE PUSH1 0x0 DUP3 RETURNDATACOPY RETURNDATASIZE PUSH1 0x1F NOT PUSH1 0x1F DUP3 ADD AND DUP3 ADD DUP1 PUSH1 0x40 MSTORE POP DUP2 ADD SWAP1 PUSH2 0x197E SWAP2 SWAP1 PUSH2 0x3DA5 JUMP JUMPDEST SWAP1 POP PUSH1 0x20 DUP2 MLOAD EQ DUP2 SWAP1 PUSH2 0x19C7 JUMPI PUSH1 0x40 MLOAD PUSH32 0xA502222400000000000000000000000000000000000000000000000000000000 DUP2 MSTORE PUSH1 0x4 ADD PUSH2 0x19BE SWAP2 SWAP1 PUSH2 0x3E32 JUMP JUMPDEST PUSH1 0x40 MLOAD DUP1 SWAP2 SUB SWAP1 REVERT JUMPDEST POP DUP1 PUSH2 0x19D2 SWAP1 PUSH2 0x3E79 JUMP JUMPDEST PUSH1 0x0 SHR SWAP2 POP POP SWAP4 SWAP3 POP POP POP JUMP JUMPDEST PUSH2 0x19EC DUP4 DUP4 DUP4 PUSH1 0x1 PUSH2 0x22DD JUMP JUMPDEST PUSH2 0x1A2D JUMPI DUP3 PUSH1 0x40 MLOAD PUSH32 0x5274AFE700000000000000000000000000000000000000000000000000000000 DUP2 MSTORE PUSH1 0x4 ADD PUSH2 0x1A24 SWAP2 SWAP1 PUSH2 0x34AB JUMP JUMPDEST PUSH1 0x40 MLOAD DUP1 SWAP2 SUB SWAP1 REVERT JUMPDEST POP POP POP JUMP JUMPDEST PUSH2 0x1A3A PUSH2 0x2347 JUMP JUMPDEST PUSH20 0xFFFFFFFFFFFFFFFFFFFFFFFFFFFFFFFFFFFFFFFF AND PUSH2 0x1A58 PUSH2 0xD8A JUMP JUMPDEST PUSH20 0xFFFFFFFFFFFFFFFFFFFFFFFFFFFFFFFFFFFFFFFF AND EQ PUSH2 0x1AB7 JUMPI PUSH2 0x1A7B PUSH2 0x2347 JUMP JUMPDEST PUSH1 0x40 MLOAD PUSH32 0x118CDAA700000000000000000000000000000000000000000000000000000000 DUP2 MSTORE PUSH1 0x4 ADD PUSH2 0x1AAE SWAP2 SWAP1 PUSH2 0x34AB JUMP JUMPDEST PUSH1 0x40 MLOAD DUP1 SWAP2 SUB SWAP1 REVERT JUMPDEST JUMP JUMPDEST PUSH1 0x0 PUSH1 0x7 PUSH1 0x0 SWAP1 SLOAD SWAP1 PUSH2 0x100 EXP SWAP1 DIV PUSH20 0xFFFFFFFFFFFFFFFFFFFFFFFFFFFFFFFFFFFFFFFF AND SWAP1 POP DUP2 PUSH1 0x7 PUSH1 0x0 PUSH2 0x100 EXP DUP2 SLOAD DUP2 PUSH20 0xFFFFFFFFFFFFFFFFFFFFFFFFFFFFFFFFFFFFFFFF MUL NOT AND SWAP1 DUP4 PUSH20 0xFFFFFFFFFFFFFFFFFFFFFFFFFFFFFFFFFFFFFFFF AND MUL OR SWAP1 SSTORE POP DUP2 PUSH20 0xFFFFFFFFFFFFFFFFFFFFFFFFFFFFFFFFFFFFFFFF AND DUP2 PUSH20 0xFFFFFFFFFFFFFFFFFFFFFFFFFFFFFFFFFFFFFFFF AND PUSH32 0x8BE0079C531659141344CD1FD0A4F28419497F9722A3DAAFE3B4186F6B6457E0 PUSH1 0x40 MLOAD PUSH1 0x40 MLOAD DUP1 SWAP2 SUB SWAP1 LOG3 POP POP JUMP JUMPDEST PUSH1 0x0 PUSH2 0x1B89 PUSH2 0x1EB5 JUMP JUMPDEST PUSH20 0xFFFFFFFFFFFFFFFFFFFFFFFFFFFFFFFFFFFFFFFF AND PUSH4 0xD56497C3 DUP4 PUSH1 0x0 SHL PUSH1 0x23 PUSH1 0x40 MLOAD DUP4 PUSH4 0xFFFFFFFF AND PUSH1 0xE0 SHL DUP2 MSTORE PUSH1 0x4 ADD PUSH2 0x1BC7 SWAP3 SWAP2 SWAP1 PUSH2 0x3EE0 JUMP JUMPDEST PUSH1 0x20 PUSH1 0x40 MLOAD DUP1 DUP4 SUB DUP2 PUSH1 0x0 DUP8 GAS CALL ISZERO DUP1 ISZERO PUSH2 0x1BE6 JUMPI RETURNDATASIZE PUSH1 0x0 DUP1 RETURNDATACOPY RETURNDATASIZE PUSH1 0x0 REVERT JUMPDEST POP POP POP POP PUSH1 0x40 MLOAD RETURNDATASIZE PUSH1 0x1F NOT PUSH1 0x1F DUP3 ADD AND DUP3 ADD DUP1 PUSH1 0x40 MSTORE POP DUP2 ADD SWAP1 PUSH2 0x1C0A SWAP2 SWAP1 PUSH2 0x3F35 JUMP JUMPDEST SWAP1 POP SWAP2 SWAP1 POP JUMP JUMPDEST PUSH1 0x0 DUP1 PUSH20 0xFFFFFFFFFFFFFFFFFFFFFFFFFFFFFFFFFFFFFFFF AND DUP4 PUSH20 0xFFFFFFFFFFFFFFFFFFFFFFFFFFFFFFFFFFFFFFFF AND EQ ISZERO PUSH1 0x0 SWAP1 PUSH2 0x1C86 JUMPI PUSH1 0x40 MLOAD PUSH32 0x8D51880100000000000000000000000000000000000000000000000000000000 DUP2 MSTORE PUSH1 0x4 ADD PUSH2 0x1C7D SWAP2 SWAP1 PUSH2 0x34AB JUMP JUMPDEST PUSH1 0x40 MLOAD DUP1 SWAP2 SUB SWAP1 REVERT JUMPDEST POP PUSH2 0x1C93 PUSH1 0x0 DUP5 DUP5 PUSH2 0x1E63 JUMP JUMPDEST SWAP1 POP SWAP3 SWAP2 POP POP JUMP JUMPDEST PUSH2 0x1CA9 DUP5 DUP5 DUP5 DUP5 PUSH1 0x1 PUSH2 0x234F JUMP JUMPDEST PUSH2 0x1CEA JUMPI DUP4 PUSH1 0x40 MLOAD PUSH32 0x5274AFE700000000000000000000000000000000000000000000000000000000 DUP2 MSTORE PUSH1 0x4 ADD PUSH2 0x1CE1 SWAP2 SWAP1 PUSH2 0x34AB JUMP JUMPDEST PUSH1 0x40 MLOAD DUP1 SWAP2 SUB SWAP1 REVERT JUMPDEST POP POP POP POP JUMP JUMPDEST DUP1 PUSH1 0x1 PUSH1 0x0 DUP6 PUSH20 0xFFFFFFFFFFFFFFFFFFFFFFFFFFFFFFFFFFFFFFFF AND PUSH20 0xFFFFFFFFFFFFFFFFFFFFFFFFFFFFFFFFFFFFFFFF AND DUP2 MSTORE PUSH1 0x20 ADD SWAP1 DUP2 MSTORE PUSH1 0x20 ADD PUSH1 0x0 KECCAK256 PUSH1 0x0 DUP5 PUSH20 0xFFFFFFFFFFFFFFFFFFFFFFFFFFFFFFFFFFFFFFFF AND PUSH20 0xFFFFFFFFFFFFFFFFFFFFFFFFFFFFFFFFFFFFFFFF AND DUP2 MSTORE PUSH1 0x20 ADD SWAP1 DUP2 MSTORE PUSH1 0x20 ADD PUSH1 0x0 KECCAK256 PUSH1 0x0 PUSH2 0x100 EXP DUP2 SLOAD DUP2 PUSH6 0xFFFFFFFFFFFF MUL NOT AND SWAP1 DUP4 PUSH6 0xFFFFFFFFFFFF AND MUL OR SWAP1 SSTORE POP DUP2 PUSH20 0xFFFFFFFFFFFFFFFFFFFFFFFFFFFFFFFFFFFFFFFF AND DUP4 PUSH20 0xFFFFFFFFFFFFFFFFFFFFFFFFFFFFFFFFFFFFFFFF AND PUSH32 0x921A218A75D18E8EC5704851E6B234A85725B21A2521CE889622C35DEDC1FA12 DUP4 PUSH1 0x40 MLOAD PUSH2 0x1DEC SWAP2 SWAP1 PUSH2 0x3F71 JUMP JUMPDEST PUSH1 0x40 MLOAD DUP1 SWAP2 SUB SWAP1 LOG3 POP POP POP JUMP JUMPDEST PUSH1 0x0 PUSH32 0x1FFC9A700000000000000000000000000000000000000000000000000000000 PUSH28 0xFFFFFFFFFFFFFFFFFFFFFFFFFFFFFFFFFFFFFFFFFFFFFFFFFFFFFFFF NOT AND DUP3 PUSH28 0xFFFFFFFFFFFFFFFFFFFFFFFFFFFFFFFFFFFFFFFFFFFFFFFFFFFFFFFF NOT AND EQ SWAP1 POP SWAP2 SWAP1 POP JUMP JUMPDEST PUSH1 0x0 DUP1 PUSH20 0xFFFFFFFFFFFFFFFFFFFFFFFFFFFFFFFFFFFFFFFF AND DUP5 PUSH20 0xFFFFFFFFFFFFFFFFFFFFFFFFFFFFFFFFFFFFFFFF AND SUB PUSH2 0x1EA1 JUMPI PUSH2 0x1EA0 PUSH2 0x23CA JUMP JUMPDEST JUMPDEST PUSH2 0x1EAC DUP5 DUP5 DUP5 PUSH2 0x2414 JUMP JUMPDEST SWAP1 POP SWAP4 SWAP3 POP POP POP JUMP JUMPDEST PUSH1 0x0 PUSH2 0x1EBF PUSH2 0x27FB JUMP JUMPDEST SWAP1 POP SWAP1 JUMP JUMPDEST PUSH1 0x0 DUP1 DUP6 PUSH20 0xFFFFFFFFFFFFFFFFFFFFFFFFFFFFFFFFFFFFFFFF AND EXTCODESIZE SUB PUSH2 0x1EF5 JUMPI PUSH2 0x1EEE PUSH1 0x1 PUSH2 0x2898 JUMP JUMPDEST SWAP1 POP PUSH2 0x1FFB JUMP JUMPDEST DUP5 PUSH20 0xFFFFFFFFFFFFFFFFFFFFFFFFFFFFFFFFFFFFFFFF AND PUSH4 0x46083BFD DUP9 DUP9 DUP8 DUP8 DUP8 PUSH1 0x40 MLOAD DUP7 PUSH4 0xFFFFFFFF AND PUSH1 0xE0 SHL DUP2 MSTORE PUSH1 0x4 ADD PUSH2 0x1F36 SWAP6 SWAP5 SWAP4 SWAP3 SWAP2 SWAP1 PUSH2 0x3F8C JUMP JUMPDEST PUSH1 0x20 PUSH1 0x40 MLOAD DUP1 DUP4 SUB DUP2 PUSH1 0x0 DUP8 GAS CALL SWAP3 POP POP POP DUP1 ISZERO PUSH2 0x1F72 JUMPI POP PUSH1 0x40 MLOAD RETURNDATASIZE PUSH1 0x1F NOT PUSH1 0x1F DUP3 ADD AND DUP3 ADD DUP1 PUSH1 0x40 MSTORE POP DUP2 ADD SWAP1 PUSH2 0x1F6F SWAP2 SWAP1 PUSH2 0x4006 JUMP JUMPDEST PUSH1 0x1 JUMPDEST PUSH2 0x1FF6 JUMPI RETURNDATASIZE DUP1 PUSH1 0x0 DUP2 EQ PUSH2 0x1FA2 JUMPI PUSH1 0x40 MLOAD SWAP2 POP PUSH1 0x1F NOT PUSH1 0x3F RETURNDATASIZE ADD AND DUP3 ADD PUSH1 0x40 MSTORE RETURNDATASIZE DUP3 MSTORE RETURNDATASIZE PUSH1 0x0 PUSH1 0x20 DUP5 ADD RETURNDATACOPY PUSH2 0x1FA7 JUMP JUMPDEST PUSH1 0x60 SWAP2 POP JUMPDEST POP PUSH1 0x0 DUP2 MLOAD SUB PUSH2 0x1FEE JUMPI DUP6 PUSH1 0x40 MLOAD PUSH32 0x8D51880100000000000000000000000000000000000000000000000000000000 DUP2 MSTORE PUSH1 0x4 ADD PUSH2 0x1FE5 SWAP2 SWAP1 PUSH2 0x34AB JUMP JUMPDEST PUSH1 0x40 MLOAD DUP1 SWAP2 SUB SWAP1 REVERT JUMPDEST DUP1 MLOAD DUP2 PUSH1 0x20 ADD REVERT JUMPDEST DUP1 SWAP2 POP POP JUMPDEST SWAP7 SWAP6 POP POP POP POP POP POP JUMP JUMPDEST PUSH1 0x0 PUSH2 0x200F PUSH2 0x1EB5 JUMP JUMPDEST PUSH20 0xFFFFFFFFFFFFFFFFFFFFFFFFFFFFFFFFFFFFFFFF AND PUSH4 0x973AB10B PUSH2 0x2035 DUP7 PUSH1 0x0 PUSH2 0x293B JUMP JUMPDEST PUSH2 0x2040 DUP7 PUSH1 0x23 PUSH2 0x293B JUMP JUMPDEST PUSH2 0x204B DUP7 PUSH1 0x23 PUSH2 0x293B JUMP JUMPDEST PUSH1 0x40 MLOAD DUP5 PUSH4 0xFFFFFFFF AND PUSH1 0xE0 SHL DUP2 MSTORE PUSH1 0x4 ADD PUSH2 0x2069 SWAP4 SWAP3 SWAP2 SWAP1 PUSH2 0x4033 JUMP JUMPDEST PUSH1 0x20 PUSH1 0x40 MLOAD DUP1 DUP4 SUB DUP2 PUSH1 0x0 DUP8 GAS CALL ISZERO DUP1 ISZERO PUSH2 0x2088 JUMPI RETURNDATASIZE PUSH1 0x0 DUP1 RETURNDATACOPY RETURNDATASIZE PUSH1 0x0 REVERT JUMPDEST POP POP POP POP PUSH1 0x40 MLOAD RETURNDATASIZE PUSH1 0x1F NOT PUSH1 0x1F DUP3 ADD AND DUP3 ADD DUP1 PUSH1 0x40 MSTORE POP DUP2 ADD SWAP1 PUSH2 0x20AC SWAP2 SWAP1 PUSH2 0x3F35 JUMP JUMPDEST SWAP1 POP SWAP4 SWAP3 POP POP POP JUMP JUMPDEST PUSH1 0x0 PUSH2 0x20BF PUSH2 0x1EB5 JUMP JUMPDEST PUSH20 0xFFFFFFFFFFFFFFFFFFFFFFFFFFFFFFFFFFFFFFFF AND PUSH4 0x41AA0080 PUSH2 0x20E5 DUP6 PUSH1 0x23 PUSH2 0x293B JUMP JUMPDEST PUSH2 0x20F0 DUP6 PUSH1 0x23 PUSH2 0x293B JUMP JUMPDEST PUSH1 0x40 MLOAD DUP4 PUSH4 0xFFFFFFFF AND PUSH1 0xE0 SHL DUP2 MSTORE PUSH1 0x4 ADD PUSH2 0x210D SWAP3 SWAP2 SWAP1 PUSH2 0x406A JUMP JUMPDEST PUSH1 0x20 PUSH1 0x40 MLOAD DUP1 DUP4 SUB DUP2 PUSH1 0x0 DUP8 GAS CALL ISZERO DUP1 ISZERO PUSH2 0x212C JUMPI RETURNDATASIZE PUSH1 0x0 DUP1 RETURNDATACOPY RETURNDATASIZE PUSH1 0x0 REVERT JUMPDEST POP POP POP POP PUSH1 0x40 MLOAD RETURNDATASIZE PUSH1 0x1F NOT PUSH1 0x1F DUP3 ADD AND DUP3 ADD DUP1 PUSH1 0x40 MSTORE POP DUP2 ADD SWAP1 PUSH2 0x2150 SWAP2 SWAP1 PUSH2 0x3F35 JUMP JUMPDEST SWAP1 POP SWAP3 SWAP2 POP POP JUMP JUMPDEST PUSH2 0x2161 DUP3 PUSH2 0x295F JUMP JUMPDEST PUSH2 0x21DA JUMPI PUSH2 0x216D PUSH2 0x1EB5 JUMP JUMPDEST PUSH20 0xFFFFFFFFFFFFFFFFFFFFFFFFFFFFFFFFFFFFFFFF AND PUSH4 0x3E395CEC DUP4 DUP4 PUSH1 0x40 MLOAD DUP4 PUSH4 0xFFFFFFFF AND PUSH1 0xE0 SHL DUP2 MSTORE PUSH1 0x4 ADD PUSH2 0x21A7 SWAP3 SWAP2 SWAP1 PUSH2 0x3BA1 JUMP JUMPDEST PUSH1 0x0 PUSH1 0x40 MLOAD DUP1 DUP4 SUB DUP2 PUSH1 0x0 DUP8 DUP1 EXTCODESIZE ISZERO DUP1 ISZERO PUSH2 0x21C1 JUMPI PUSH1 0x0 DUP1 REVERT JUMPDEST POP GAS CALL ISZERO DUP1 ISZERO PUSH2 0x21D5 JUMPI RETURNDATASIZE PUSH1 0x0 DUP1 RETURNDATACOPY RETURNDATASIZE PUSH1 0x0 REVERT JUMPDEST POP POP POP POP JUMPDEST POP POP JUMP JUMPDEST PUSH1 0x0 DUP1 PUSH20 0xFFFFFFFFFFFFFFFFFFFFFFFFFFFFFFFFFFFFFFFF AND DUP4 PUSH20 0xFFFFFFFFFFFFFFFFFFFFFFFFFFFFFFFFFFFFFFFF AND EQ ISZERO PUSH1 0x0 SWAP1 PUSH2 0x2253 JUMPI PUSH1 0x40 MLOAD PUSH32 0xEE457EBF00000000000000000000000000000000000000000000000000000000 DUP2 MSTORE PUSH1 0x4 ADD PUSH2 0x224A SWAP2 SWAP1 PUSH2 0x34AB JUMP JUMPDEST PUSH1 0x40 MLOAD DUP1 SWAP2 SUB SWAP1 REVERT JUMPDEST POP PUSH2 0x2260 DUP4 PUSH1 0x0 DUP5 PUSH2 0x1E63 JUMP JUMPDEST SWAP1 POP SWAP3 SWAP2 POP POP JUMP JUMPDEST PUSH2 0x2270 PUSH2 0x1EB5 JUMP JUMPDEST PUSH20 0xFFFFFFFFFFFFFFFFFFFFFFFFFFFFFFFFFFFFFFFF AND PUSH4 0x69C39D90 DUP3 PUSH1 0x40 MLOAD DUP3 PUSH4 0xFFFFFFFF AND PUSH1 0xE0 SHL DUP2 MSTORE PUSH1 0x4 ADD PUSH2 0x22A8 SWAP2 SWAP1 PUSH2 0x4093 JUMP JUMPDEST PUSH1 0x0 PUSH1 0x40 MLOAD DUP1 DUP4 SUB DUP2 PUSH1 0x0 DUP8 DUP1 EXTCODESIZE ISZERO DUP1 ISZERO PUSH2 0x22C2 JUMPI PUSH1 0x0 DUP1 REVERT JUMPDEST POP GAS CALL ISZERO DUP1 ISZERO PUSH2 0x22D6 JUMPI RETURNDATASIZE PUSH1 0x0 DUP1 RETURNDATACOPY RETURNDATASIZE PUSH1 0x0 REVERT JUMPDEST POP POP POP POP POP JUMP JUMPDEST PUSH1 0x0 DUP1 PUSH4 0xA9059CBB PUSH1 0xE0 SHL SWAP1 POP PUSH1 0x40 MLOAD DUP2 PUSH1 0x0 MSTORE PUSH1 0x0 NOT PUSH1 0x60 SHR DUP7 AND PUSH1 0x4 MSTORE DUP5 PUSH1 0x24 MSTORE PUSH1 0x20 PUSH1 0x0 PUSH1 0x44 PUSH1 0x0 DUP1 DUP12 GAS CALL SWAP3 POP PUSH1 0x1 PUSH1 0x0 MLOAD EQ DUP4 AND PUSH2 0x2339 JUMPI DUP4 DUP4 ISZERO AND ISZERO PUSH2 0x232C JUMPI RETURNDATASIZE PUSH1 0x0 DUP3 RETURNDATACOPY RETURNDATASIZE DUP2 REVERT JUMPDEST PUSH1 0x0 DUP8 EXTCODESIZE GT RETURNDATASIZE ISZERO AND DUP4 AND SWAP3 POP JUMPDEST DUP1 PUSH1 0x40 MSTORE POP POP SWAP5 SWAP4 POP POP POP POP JUMP JUMPDEST PUSH1 0x0 CALLER SWAP1 POP SWAP1 JUMP JUMPDEST PUSH1 0x0 DUP1 PUSH4 0x23B872DD PUSH1 0xE0 SHL SWAP1 POP PUSH1 0x40 MLOAD DUP2 PUSH1 0x0 MSTORE PUSH1 0x0 NOT PUSH1 0x60 SHR DUP8 AND PUSH1 0x4 MSTORE PUSH1 0x0 NOT PUSH1 0x60 SHR DUP7 AND PUSH1 0x24 MSTORE DUP5 PUSH1 0x44 MSTORE PUSH1 0x20 PUSH1 0x0 PUSH1 0x64 PUSH1 0x0 DUP1 DUP13 GAS CALL SWAP3 POP PUSH1 0x1 PUSH1 0x0 MLOAD EQ DUP4 AND PUSH2 0x23B6 JUMPI DUP4 DUP4 ISZERO AND ISZERO PUSH2 0x23A9 JUMPI RETURNDATASIZE PUSH1 0x0 DUP3 RETURNDATACOPY RETURNDATASIZE DUP2 REVERT JUMPDEST PUSH1 0x0 DUP9 EXTCODESIZE GT RETURNDATASIZE ISZERO AND DUP4 AND SWAP3 POP JUMPDEST DUP1 PUSH1 0x40 MSTORE PUSH1 0x0 PUSH1 0x60 MSTORE POP POP SWAP6 SWAP5 POP POP POP POP POP JUMP JUMPDEST PUSH2 0x23D2 PUSH2 0x917 JUMP JUMPDEST PUSH2 0x23DA PUSH2 0x136A JUMP JUMPDEST GT ISZERO PUSH2 0x2412 JUMPI PUSH1 0x40 MLOAD PUSH32 0xA9E53FC300000000000000000000000000000000000000000000000000000000 DUP2 MSTORE PUSH1 0x4 ADD PUSH1 0x40 MLOAD DUP1 SWAP2 SUB SWAP1 REVERT JUMPDEST JUMP JUMPDEST PUSH1 0x0 DUP1 PUSH1 0x0 DUP1 PUSH20 0xFFFFFFFFFFFFFFFFFFFFFFFFFFFFFFFFFFFFFFFF AND DUP7 PUSH20 0xFFFFFFFFFFFFFFFFFFFFFFFFFFFFFFFFFFFFFFFF AND SUB PUSH2 0x24A8 JUMPI PUSH2 0x2457 PUSH1 0x2 SLOAD PUSH2 0x29AD JUMP JUMPDEST PUSH2 0x246F JUMPI PUSH2 0x2465 PUSH1 0x1 PUSH2 0x2898 JUMP JUMPDEST SWAP2 POP DUP4 SWAP1 POP PUSH2 0x2493 JUMP JUMPDEST PUSH2 0x247B PUSH1 0x2 SLOAD DUP6 PUSH2 0x29BD JUMP JUMPDEST DUP1 SWAP3 POP DUP2 SWAP4 POP POP POP PUSH2 0x2490 DUP3 DUP3 PUSH1 0x2 SLOAD PUSH2 0x2005 JUMP JUMPDEST SWAP1 POP JUMPDEST PUSH2 0x249C DUP2 PUSH2 0x2A6E JUMP JUMPDEST DUP1 PUSH1 0x2 DUP2 SWAP1 SSTORE POP PUSH2 0x25AE JUMP JUMPDEST PUSH1 0x0 DUP1 PUSH1 0x0 DUP9 PUSH20 0xFFFFFFFFFFFFFFFFFFFFFFFFFFFFFFFFFFFFFFFF AND PUSH20 0xFFFFFFFFFFFFFFFFFFFFFFFFFFFFFFFFFFFFFFFF AND DUP2 MSTORE PUSH1 0x20 ADD SWAP1 DUP2 MSTORE PUSH1 0x20 ADD PUSH1 0x0 KECCAK256 SLOAD SWAP1 POP PUSH2 0x24F4 DUP2 PUSH2 0x29AD JUMP JUMPDEST DUP8 SWAP1 PUSH2 0x2536 JUMPI PUSH1 0x40 MLOAD PUSH32 0x5FF91CDC00000000000000000000000000000000000000000000000000000000 DUP2 MSTORE PUSH1 0x4 ADD PUSH2 0x252D SWAP2 SWAP1 PUSH2 0x34AB JUMP JUMPDEST PUSH1 0x40 MLOAD DUP1 SWAP2 SUB SWAP1 REVERT JUMPDEST POP PUSH2 0x2541 DUP2 DUP7 PUSH2 0x2A7B JUMP JUMPDEST DUP1 SWAP4 POP DUP2 SWAP5 POP POP POP PUSH2 0x2554 DUP4 DUP4 DUP4 PUSH2 0x2005 JUMP JUMPDEST SWAP2 POP PUSH2 0x255F DUP3 PUSH2 0x2A6E JUMP JUMPDEST PUSH2 0x2569 DUP3 DUP9 PUSH2 0x2B2C JUMP JUMPDEST DUP2 PUSH1 0x0 DUP1 DUP10 PUSH20 0xFFFFFFFFFFFFFFFFFFFFFFFFFFFFFFFFFFFFFFFF AND PUSH20 0xFFFFFFFFFFFFFFFFFFFFFFFFFFFFFFFFFFFFFFFF AND DUP2 MSTORE PUSH1 0x20 ADD SWAP1 DUP2 MSTORE PUSH1 0x20 ADD PUSH1 0x0 KECCAK256 DUP2 SWAP1 SSTORE POP POP JUMPDEST PUSH2 0x25C2 DUP3 DUP6 PUSH2 0x25BD PUSH1 0x0 PUSH2 0x1B7F JUMP JUMPDEST PUSH2 0x2005 JUMP JUMPDEST SWAP3 POP PUSH1 0x0 PUSH20 0xFFFFFFFFFFFFFFFFFFFFFFFFFFFFFFFFFFFFFFFF AND DUP6 PUSH20 0xFFFFFFFFFFFFFFFFFFFFFFFFFFFFFFFFFFFFFFFF AND SUB PUSH2 0x261B JUMPI PUSH2 0x2604 PUSH1 0x2 SLOAD DUP5 PUSH2 0x20B5 JUMP JUMPDEST SWAP1 POP PUSH2 0x260F DUP2 PUSH2 0x2A6E JUMP JUMPDEST DUP1 PUSH1 0x2 DUP2 SWAP1 SSTORE POP PUSH2 0x2710 JUMP JUMPDEST PUSH2 0x2662 PUSH1 0x0 DUP1 DUP8 PUSH20 0xFFFFFFFFFFFFFFFFFFFFFFFFFFFFFFFFFFFFFFFF AND PUSH20 0xFFFFFFFFFFFFFFFFFFFFFFFFFFFFFFFFFFFFFFFF AND DUP2 MSTORE PUSH1 0x20 ADD SWAP1 DUP2 MSTORE PUSH1 0x20 ADD PUSH1 0x0 KECCAK256 SLOAD PUSH2 0x29AD JUMP JUMPDEST PUSH2 0x266E JUMPI DUP3 SWAP1 POP PUSH2 0x26B9 JUMP JUMPDEST PUSH2 0x26B6 PUSH1 0x0 DUP1 DUP8 PUSH20 0xFFFFFFFFFFFFFFFFFFFFFFFFFFFFFFFFFFFFFFFF AND PUSH20 0xFFFFFFFFFFFFFFFFFFFFFFFFFFFFFFFFFFFFFFFF AND DUP2 MSTORE PUSH1 0x20 ADD SWAP1 DUP2 MSTORE PUSH1 0x20 ADD PUSH1 0x0 KECCAK256 SLOAD DUP5 PUSH2 0x2B3A JUMP JUMPDEST SWAP1 POP JUMPDEST PUSH2 0x26C2 DUP2 PUSH2 0x2A6E JUMP JUMPDEST PUSH2 0x26CC DUP2 DUP7 PUSH2 0x2B2C JUMP JUMPDEST DUP1 PUSH1 0x0 DUP1 DUP8 PUSH20 0xFFFFFFFFFFFFFFFFFFFFFFFFFFFFFFFFFFFFFFFF AND PUSH20 0xFFFFFFFFFFFFFFFFFFFFFFFFFFFFFFFFFFFFFFFF AND DUP2 MSTORE PUSH1 0x20 ADD SWAP1 DUP2 MSTORE PUSH1 0x20 ADD PUSH1 0x0 KECCAK256 DUP2 SWAP1 SSTORE POP JUMPDEST PUSH1 0x0 PUSH20 0xFFFFFFFFFFFFFFFFFFFFFFFFFFFFFFFFFFFFFFFF AND DUP7 PUSH20 0xFFFFFFFFFFFFFFFFFFFFFFFFFFFFFFFFFFFFFFFF AND EQ PUSH2 0x274F JUMPI PUSH2 0x274E DUP4 DUP8 PUSH2 0x2B2C JUMP JUMPDEST JUMPDEST PUSH1 0x0 PUSH20 0xFFFFFFFFFFFFFFFFFFFFFFFFFFFFFFFFFFFFFFFF AND DUP6 PUSH20 0xFFFFFFFFFFFFFFFFFFFFFFFFFFFFFFFFFFFFFFFF AND EQ PUSH2 0x278E JUMPI PUSH2 0x278D DUP4 DUP7 PUSH2 0x2B2C JUMP JUMPDEST JUMPDEST PUSH2 0x2797 DUP4 PUSH2 0x2A6E JUMP JUMPDEST DUP3 DUP6 PUSH20 0xFFFFFFFFFFFFFFFFFFFFFFFFFFFFFFFFFFFFFFFF AND DUP8 PUSH20 0xFFFFFFFFFFFFFFFFFFFFFFFFFFFFFFFFFFFFFFFF AND PUSH32 0x67500E8D0ED826D2194F514DD0D8124F35648AB6E3FB5E6ED867134CFFE661E9 PUSH1 0x40 MLOAD PUSH1 0x40 MLOAD DUP1 SWAP2 SUB SWAP1 LOG4 POP POP SWAP4 SWAP3 POP POP POP JUMP JUMPDEST PUSH1 0x0 PUSH2 0xA4B1 CHAINID SUB PUSH2 0x280F JUMPI PUSH1 0x0 SWAP1 POP PUSH2 0x2895 JUMP JUMPDEST PUSH3 0x66EEE CHAINID SUB PUSH2 0x2835 JUMPI PUSH20 0xD464B198F06756A1D00BE223634B85E0A731C229 SWAP1 POP PUSH2 0x2895 JUMP JUMPDEST PUSH2 0x7A69 CHAINID SUB PUSH2 0x285A JUMPI PUSH20 0x39847AEBA923CC7367D4684194091D022B3F8548 SWAP1 POP PUSH2 0x2895 JUMP JUMPDEST PUSH1 0x40 MLOAD PUSH32 0x8C379A000000000000000000000000000000000000000000000000000000000 DUP2 MSTORE PUSH1 0x4 ADD PUSH2 0x288C SWAP1 PUSH2 0x40FA JUMP JUMPDEST PUSH1 0x40 MLOAD DUP1 SWAP2 SUB SWAP1 REVERT JUMPDEST SWAP1 JUMP JUMPDEST PUSH1 0x0 PUSH2 0x28A2 PUSH2 0x1EB5 JUMP JUMPDEST PUSH20 0xFFFFFFFFFFFFFFFFFFFFFFFFFFFFFFFFFFFFFFFF AND PUSH4 0xD56497C3 DUP4 PUSH2 0x28C9 JUMPI PUSH1 0x0 PUSH2 0x28CC JUMP JUMPDEST PUSH1 0x1 JUMPDEST PUSH1 0xFF AND PUSH1 0x0 SHL PUSH1 0x0 PUSH1 0x40 MLOAD DUP4 PUSH4 0xFFFFFFFF AND PUSH1 0xE0 SHL DUP2 MSTORE PUSH1 0x4 ADD PUSH2 0x28F1 SWAP3 SWAP2 SWAP1 PUSH2 0x3EE0 JUMP JUMPDEST PUSH1 0x20 PUSH1 0x40 MLOAD DUP1 DUP4 SUB DUP2 PUSH1 0x0 DUP8 GAS CALL ISZERO DUP1 ISZERO PUSH2 0x2910 JUMPI RETURNDATASIZE PUSH1 0x0 DUP1 RETURNDATACOPY RETURNDATASIZE PUSH1 0x0 REVERT JUMPDEST POP POP POP POP PUSH1 0x40 MLOAD RETURNDATASIZE PUSH1 0x1F NOT PUSH1 0x1F DUP3 ADD AND DUP3 ADD DUP1 PUSH1 0x40 MSTORE POP DUP2 ADD SWAP1 PUSH2 0x2934 SWAP2 SWAP1 PUSH2 0x3F35 JUMP JUMPDEST SWAP1 POP SWAP2 SWAP1 POP JUMP JUMPDEST PUSH1 0x0 DUP1 PUSH1 0x0 SHL DUP4 EQ PUSH2 0x294D JUMPI DUP3 PUSH2 0x2957 JUMP JUMPDEST PUSH2 0x2956 DUP3 PUSH2 0x2BDD JUMP JUMPDEST JUMPDEST SWAP1 POP SWAP3 SWAP2 POP POP JUMP JUMPDEST PUSH1 0x0 DUP1 PUSH1 0xF8 SHL PUSH1 0x1 PUSH1 0xF8 SHL DUP4 PUSH1 0x6 PUSH1 0x20 DUP2 LT PUSH2 0x297E JUMPI PUSH2 0x297D PUSH2 0x38F1 JUMP JUMPDEST JUMPDEST BYTE PUSH1 0xF8 SHL AND PUSH31 0xFFFFFFFFFFFFFFFFFFFFFFFFFFFFFFFFFFFFFFFFFFFFFFFFFFFFFFFFFFFFFF NOT AND EQ SWAP1 POP SWAP2 SWAP1 POP JUMP JUMPDEST PUSH1 0x0 DUP1 PUSH1 0x0 SHL DUP3 EQ ISZERO SWAP1 POP SWAP2 SWAP1 POP JUMP JUMPDEST PUSH1 0x0 DUP1 PUSH1 0x0 DUP1 PUSH2 0x29CB PUSH2 0x1EB5 JUMP JUMPDEST PUSH20 0xFFFFFFFFFFFFFFFFFFFFFFFFFFFFFFFFFFFFFFFF AND PUSH4 0xF30C4260 PUSH2 0x29F1 DUP9 PUSH1 0x23 PUSH2 0x293B JUMP JUMPDEST PUSH2 0x29FC DUP9 PUSH1 0x23 PUSH2 0x293B JUMP JUMPDEST PUSH1 0x40 MLOAD DUP4 PUSH4 0xFFFFFFFF AND PUSH1 0xE0 SHL DUP2 MSTORE PUSH1 0x4 ADD PUSH2 0x2A19 SWAP3 SWAP2 SWAP1 PUSH2 0x406A JUMP JUMPDEST PUSH1 0x40 DUP1 MLOAD DUP1 DUP4 SUB DUP2 PUSH1 0x0 DUP8 GAS CALL ISZERO DUP1 ISZERO PUSH2 0x2A37 JUMPI RETURNDATASIZE PUSH1 0x0 DUP1 RETURNDATACOPY RETURNDATASIZE PUSH1 0x0 REVERT JUMPDEST POP POP POP POP PUSH1 0x40 MLOAD RETURNDATASIZE PUSH1 0x1F NOT PUSH1 0x1F DUP3 ADD AND DUP3 ADD DUP1 PUSH1 0x40 MSTORE POP DUP2 ADD SWAP1 PUSH2 0x2A5B SWAP2 SWAP1 PUSH2 0x411A JUMP JUMPDEST SWAP2 POP SWAP2 POP DUP2 DUP2 SWAP4 POP SWAP4 POP POP POP SWAP3 POP SWAP3 SWAP1 POP JUMP JUMPDEST PUSH2 0x2A78 DUP2 ADDRESS PUSH2 0x2C4A JUMP JUMPDEST POP JUMP JUMPDEST PUSH1 0x0 DUP1 PUSH1 0x0 DUP1 PUSH2 0x2A89 PUSH2 0x1EB5 JUMP JUMPDEST PUSH20 0xFFFFFFFFFFFFFFFFFFFFFFFFFFFFFFFFFFFFFFFF AND PUSH4 0x86FC3BC3 PUSH2 0x2AAF DUP9 PUSH1 0x23 PUSH2 0x293B JUMP JUMPDEST PUSH2 0x2ABA DUP9 PUSH1 0x23 PUSH2 0x293B JUMP JUMPDEST PUSH1 0x40 MLOAD DUP4 PUSH4 0xFFFFFFFF AND PUSH1 0xE0 SHL DUP2 MSTORE PUSH1 0x4 ADD PUSH2 0x2AD7 SWAP3 SWAP2 SWAP1 PUSH2 0x406A JUMP JUMPDEST PUSH1 0x40 DUP1 MLOAD DUP1 DUP4 SUB DUP2 PUSH1 0x0 DUP8 GAS CALL ISZERO DUP1 ISZERO PUSH2 0x2AF5 JUMPI RETURNDATASIZE PUSH1 0x0 DUP1 RETURNDATACOPY RETURNDATASIZE PUSH1 0x0 REVERT JUMPDEST POP POP POP POP PUSH1 0x40 MLOAD RETURNDATASIZE PUSH1 0x1F NOT PUSH1 0x1F DUP3 ADD AND DUP3 ADD DUP1 PUSH1 0x40 MSTORE POP DUP2 ADD SWAP1 PUSH2 0x2B19 SWAP2 SWAP1 PUSH2 0x411A JUMP JUMPDEST SWAP2 POP SWAP2 POP DUP2 DUP2 SWAP4 POP SWAP4 POP POP POP SWAP3 POP SWAP3 SWAP1 POP JUMP JUMPDEST PUSH2 0x2B36 DUP3 DUP3 PUSH2 0x2C4A JUMP JUMPDEST POP POP JUMP JUMPDEST PUSH1 0x0 PUSH2 0x2B44 PUSH2 0x1EB5 JUMP JUMPDEST PUSH20 0xFFFFFFFFFFFFFFFFFFFFFFFFFFFFFFFFFFFFFFFF AND PUSH4 0xD1DE592A PUSH2 0x2B6A DUP6 PUSH1 0x23 PUSH2 0x293B JUMP JUMPDEST PUSH2 0x2B75 DUP6 PUSH1 0x23 PUSH2 0x293B JUMP JUMPDEST PUSH1 0x40 MLOAD DUP4 PUSH4 0xFFFFFFFF AND PUSH1 0xE0 SHL DUP2 MSTORE PUSH1 0x4 ADD PUSH2 0x2B92 SWAP3 SWAP2 SWAP1 PUSH2 0x406A JUMP JUMPDEST PUSH1 0x20 PUSH1 0x40 MLOAD DUP1 DUP4 SUB DUP2 PUSH1 0x0 DUP8 GAS CALL ISZERO DUP1 ISZERO PUSH2 0x2BB1 JUMPI RETURNDATASIZE PUSH1 0x0 DUP1 RETURNDATACOPY RETURNDATASIZE PUSH1 0x0 REVERT JUMPDEST POP POP POP POP PUSH1 0x40 MLOAD RETURNDATASIZE PUSH1 0x1F NOT PUSH1 0x1F DUP3 ADD AND DUP3 ADD DUP1 PUSH1 0x40 MSTORE POP DUP2 ADD SWAP1 PUSH2 0x2BD5 SWAP2 SWAP1 PUSH2 0x3F35 JUMP JUMPDEST SWAP1 POP SWAP3 SWAP2 POP POP JUMP JUMPDEST PUSH1 0x0 PUSH1 0x28 DUP3 PUSH1 0x63 DUP2 GT ISZERO PUSH2 0x2BF4 JUMPI PUSH2 0x2BF3 PUSH2 0x3ADC JUMP JUMPDEST JUMPDEST PUSH1 0xF8 SHL PUSH31 0xFFFFFFFFFFFFFFFFFFFFFFFFFFFFFFFFFFFFFFFFFFFFFFFFFFFFFFFFFFFFFF NOT AND SWAP1 SHR PUSH1 0x8 CHAINID PUSH1 0xE0 SHL PUSH28 0xFFFFFFFFFFFFFFFFFFFFFFFFFFFFFFFFFFFFFFFFFFFFFFFFFFFFFFFF NOT AND SWAP1 SHR OR SWAP1 POP SWAP2 SWAP1 POP JUMP JUMPDEST PUSH2 0x2C53 DUP3 PUSH2 0x295F JUMP JUMPDEST PUSH2 0x2CCC JUMPI PUSH2 0x2C5F PUSH2 0x1EB5 JUMP JUMPDEST PUSH20 0xFFFFFFFFFFFFFFFFFFFFFFFFFFFFFFFFFFFFFFFF AND PUSH4 0xB9496B62 DUP4 DUP4 PUSH1 0x40 MLOAD DUP4 PUSH4 0xFFFFFFFF AND PUSH1 0xE0 SHL DUP2 MSTORE PUSH1 0x4 ADD PUSH2 0x2C99 SWAP3 SWAP2 SWAP1 PUSH2 0x3BA1 JUMP JUMPDEST PUSH1 0x0 PUSH1 0x40 MLOAD DUP1 DUP4 SUB DUP2 PUSH1 0x0 DUP8 DUP1 EXTCODESIZE ISZERO DUP1 ISZERO PUSH2 0x2CB3 JUMPI PUSH1 0x0 DUP1 REVERT JUMPDEST POP GAS CALL ISZERO DUP1 ISZERO PUSH2 0x2CC7 JUMPI RETURNDATASIZE PUSH1 0x0 DUP1 RETURNDATACOPY RETURNDATASIZE PUSH1 0x0 REVERT JUMPDEST POP POP POP POP JUMPDEST POP POP JUMP JUMPDEST PUSH1 0x0 PUSH1 0x40 MLOAD SWAP1 POP SWAP1 JUMP JUMPDEST PUSH1 0x0 DUP1 REVERT JUMPDEST PUSH1 0x0 DUP1 REVERT JUMPDEST PUSH1 0x0 PUSH32 0xFFFFFFFF00000000000000000000000000000000000000000000000000000000 DUP3 AND SWAP1 POP SWAP2 SWAP1 POP JUMP JUMPDEST PUSH2 0x2D19 DUP2 PUSH2 0x2CE4 JUMP JUMPDEST DUP2 EQ PUSH2 0x2D24 JUMPI PUSH1 0x0 DUP1 REVERT JUMPDEST POP JUMP JUMPDEST PUSH1 0x0 DUP2 CALLDATALOAD SWAP1 POP PUSH2 0x2D36 DUP2 PUSH2 0x2D10 JUMP JUMPDEST SWAP3 SWAP2 POP POP JUMP JUMPDEST PUSH1 0x0 PUSH1 0x20 DUP3 DUP5 SUB SLT ISZERO PUSH2 0x2D52 JUMPI PUSH2 0x2D51 PUSH2 0x2CDA JUMP JUMPDEST JUMPDEST PUSH1 0x0 PUSH2 0x2D60 DUP5 DUP3 DUP6 ADD PUSH2 0x2D27 JUMP JUMPDEST SWAP2 POP POP SWAP3 SWAP2 POP POP JUMP JUMPDEST PUSH1 0x0 DUP2 ISZERO ISZERO SWAP1 POP SWAP2 SWAP1 POP JUMP JUMPDEST PUSH2 0x2D7E DUP2 PUSH2 0x2D69 JUMP JUMPDEST DUP3 MSTORE POP POP JUMP JUMPDEST PUSH1 0x0 PUSH1 0x20 DUP3 ADD SWAP1 POP PUSH2 0x2D99 PUSH1 0x0 DUP4 ADD DUP5 PUSH2 0x2D75 JUMP JUMPDEST SWAP3 SWAP2 POP POP JUMP JUMPDEST PUSH1 0x0 DUP2 MLOAD SWAP1 POP SWAP2 SWAP1 POP JUMP JUMPDEST PUSH1 0x0 DUP3 DUP3 MSTORE PUSH1 0x20 DUP3 ADD SWAP1 POP SWAP3 SWAP2 POP POP JUMP JUMPDEST PUSH1 0x0 JUMPDEST DUP4 DUP2 LT ISZERO PUSH2 0x2DD9 JUMPI DUP1 DUP3 ADD MLOAD DUP2 DUP5 ADD MSTORE PUSH1 0x20 DUP2 ADD SWAP1 POP PUSH2 0x2DBE JUMP JUMPDEST PUSH1 0x0 DUP5 DUP5 ADD MSTORE POP POP POP POP JUMP JUMPDEST PUSH1 0x0 PUSH1 0x1F NOT PUSH1 0x1F DUP4 ADD AND SWAP1 POP SWAP2 SWAP1 POP JUMP JUMPDEST PUSH1 0x0 PUSH2 0x2E01 DUP3 PUSH2 0x2D9F JUMP JUMPDEST PUSH2 0x2E0B DUP2 DUP6 PUSH2 0x2DAA JUMP JUMPDEST SWAP4 POP PUSH2 0x2E1B DUP2 DUP6 PUSH1 0x20 DUP7 ADD PUSH2 0x2DBB JUMP JUMPDEST PUSH2 0x2E24 DUP2 PUSH2 0x2DE5 JUMP JUMPDEST DUP5 ADD SWAP2 POP POP SWAP3 SWAP2 POP POP JUMP JUMPDEST PUSH1 0x0 PUSH1 0x20 DUP3 ADD SWAP1 POP DUP2 DUP2 SUB PUSH1 0x0 DUP4 ADD MSTORE PUSH2 0x2E49 DUP2 DUP5 PUSH2 0x2DF6 JUMP JUMPDEST SWAP1 POP SWAP3 SWAP2 POP POP JUMP JUMPDEST PUSH1 0x0 DUP1 REVERT JUMPDEST PUSH1 0x0 DUP1 REVERT JUMPDEST PUSH1 0x0 DUP1 REVERT JUMPDEST PUSH1 0x0 DUP1 DUP4 PUSH1 0x1F DUP5 ADD SLT PUSH2 0x2E76 JUMPI PUSH2 0x2E75 PUSH2 0x2E51 JUMP JUMPDEST JUMPDEST DUP3 CALLDATALOAD SWAP1 POP PUSH8 0xFFFFFFFFFFFFFFFF DUP2 GT ISZERO PUSH2 0x2E93 JUMPI PUSH2 0x2E92 PUSH2 0x2E56 JUMP JUMPDEST JUMPDEST PUSH1 0x20 DUP4 ADD SWAP2 POP DUP4 PUSH1 0x20 DUP3 MUL DUP4 ADD GT ISZERO PUSH2 0x2EAF JUMPI PUSH2 0x2EAE PUSH2 0x2E5B JUMP JUMPDEST JUMPDEST SWAP3 POP SWAP3 SWAP1 POP JUMP JUMPDEST PUSH1 0x0 DUP1 DUP4 PUSH1 0x1F DUP5 ADD SLT PUSH2 0x2ECC JUMPI PUSH2 0x2ECB PUSH2 0x2E51 JUMP JUMPDEST JUMPDEST DUP3 CALLDATALOAD SWAP1 POP PUSH8 0xFFFFFFFFFFFFFFFF DUP2 GT ISZERO PUSH2 0x2EE9 JUMPI PUSH2 0x2EE8 PUSH2 0x2E56 JUMP JUMPDEST JUMPDEST PUSH1 0x20 DUP4 ADD SWAP2 POP DUP4 PUSH1 0x20 DUP3 MUL DUP4 ADD GT ISZERO PUSH2 0x2F05 JUMPI PUSH2 0x2F04 PUSH2 0x2E5B JUMP JUMPDEST JUMPDEST SWAP3 POP SWAP3 SWAP1 POP JUMP JUMPDEST PUSH1 0x0 DUP1 PUSH1 0x0 DUP1 PUSH1 0x40 DUP6 DUP8 SUB SLT ISZERO PUSH2 0x2F26 JUMPI PUSH2 0x2F25 PUSH2 0x2CDA JUMP JUMPDEST JUMPDEST PUSH1 0x0 DUP6 ADD CALLDATALOAD PUSH8 0xFFFFFFFFFFFFFFFF DUP2 GT ISZERO PUSH2 0x2F44 JUMPI PUSH2 0x2F43 PUSH2 0x2CDF JUMP JUMPDEST JUMPDEST PUSH2 0x2F50 DUP8 DUP3 DUP9 ADD PUSH2 0x2E60 JUMP JUMPDEST SWAP5 POP SWAP5 POP POP PUSH1 0x20 DUP6 ADD CALLDATALOAD PUSH8 0xFFFFFFFFFFFFFFFF DUP2 GT ISZERO PUSH2 0x2F73 JUMPI PUSH2 0x2F72 PUSH2 0x2CDF JUMP JUMPDEST JUMPDEST PUSH2 0x2F7F DUP8 DUP3 DUP9 ADD PUSH2 0x2EB6 JUMP JUMPDEST SWAP3 POP SWAP3 POP POP SWAP3 SWAP6 SWAP2 SWAP5 POP SWAP3 POP JUMP JUMPDEST PUSH1 0x0 DUP2 SWAP1 POP SWAP2 SWAP1 POP JUMP JUMPDEST PUSH2 0x2FA0 DUP2 PUSH2 0x2F8D JUMP JUMPDEST DUP2 EQ PUSH2 0x2FAB JUMPI PUSH1 0x0 DUP1 REVERT JUMPDEST POP JUMP JUMPDEST PUSH1 0x0 DUP2 CALLDATALOAD SWAP1 POP PUSH2 0x2FBD DUP2 PUSH2 0x2F97 JUMP JUMPDEST SWAP3 SWAP2 POP POP JUMP JUMPDEST PUSH1 0x0 PUSH1 0x20 DUP3 DUP5 SUB SLT ISZERO PUSH2 0x2FD9 JUMPI PUSH2 0x2FD8 PUSH2 0x2CDA JUMP JUMPDEST JUMPDEST PUSH1 0x0 PUSH2 0x2FE7 DUP5 DUP3 DUP6 ADD PUSH2 0x2FAE JUMP JUMPDEST SWAP2 POP POP SWAP3 SWAP2 POP POP JUMP JUMPDEST PUSH2 0x2FF9 DUP2 PUSH2 0x2F8D JUMP JUMPDEST DUP3 MSTORE POP POP JUMP JUMPDEST PUSH1 0x0 PUSH1 0x20 DUP3 ADD SWAP1 POP PUSH2 0x3014 PUSH1 0x0 DUP4 ADD DUP5 PUSH2 0x2FF0 JUMP JUMPDEST SWAP3 SWAP2 POP POP JUMP JUMPDEST PUSH1 0x0 PUSH20 0xFFFFFFFFFFFFFFFFFFFFFFFFFFFFFFFFFFFFFFFF DUP3 AND SWAP1 POP SWAP2 SWAP1 POP JUMP JUMPDEST PUSH1 0x0 PUSH2 0x3045 DUP3 PUSH2 0x301A JUMP JUMPDEST SWAP1 POP SWAP2 SWAP1 POP JUMP JUMPDEST PUSH2 0x3055 DUP2 PUSH2 0x303A JUMP JUMPDEST DUP2 EQ PUSH2 0x3060 JUMPI PUSH1 0x0 DUP1 REVERT JUMPDEST POP JUMP JUMPDEST PUSH1 0x0 DUP2 CALLDATALOAD SWAP1 POP PUSH2 0x3072 DUP2 PUSH2 0x304C JUMP JUMPDEST SWAP3 SWAP2 POP POP JUMP JUMPDEST PUSH1 0x0 DUP2 SWAP1 POP SWAP2 SWAP1 POP JUMP JUMPDEST PUSH2 0x308B DUP2 PUSH2 0x3078 JUMP JUMPDEST DUP2 EQ PUSH2 0x3096 JUMPI PUSH1 0x0 DUP1 REVERT JUMPDEST POP JUMP JUMPDEST PUSH1 0x0 DUP2 CALLDATALOAD SWAP1 POP PUSH2 0x30A8 DUP2 PUSH2 0x3082 JUMP JUMPDEST SWAP3 SWAP2 POP POP JUMP JUMPDEST PUSH1 0x0 DUP1 DUP4 PUSH1 0x1F DUP5 ADD SLT PUSH2 0x30C4 JUMPI PUSH2 0x30C3 PUSH2 0x2E51 JUMP JUMPDEST JUMPDEST DUP3 CALLDATALOAD SWAP1 POP PUSH8 0xFFFFFFFFFFFFFFFF DUP2 GT ISZERO PUSH2 0x30E1 JUMPI PUSH2 0x30E0 PUSH2 0x2E56 JUMP JUMPDEST JUMPDEST PUSH1 0x20 DUP4 ADD SWAP2 POP DUP4 PUSH1 0x1 DUP3 MUL DUP4 ADD GT ISZERO PUSH2 0x30FD JUMPI PUSH2 0x30FC PUSH2 0x2E5B JUMP JUMPDEST JUMPDEST SWAP3 POP SWAP3 SWAP1 POP JUMP JUMPDEST PUSH1 0x0 DUP1 PUSH1 0x0 DUP1 PUSH1 0x60 DUP6 DUP8 SUB SLT ISZERO PUSH2 0x311E JUMPI PUSH2 0x311D PUSH2 0x2CDA JUMP JUMPDEST JUMPDEST PUSH1 0x0 PUSH2 0x312C DUP8 DUP3 DUP9 ADD PUSH2 0x3063 JUMP JUMPDEST SWAP5 POP POP PUSH1 0x20 PUSH2 0x313D DUP8 DUP3 DUP9 ADD PUSH2 0x3099 JUMP JUMPDEST SWAP4 POP POP PUSH1 0x40 DUP6 ADD CALLDATALOAD PUSH8 0xFFFFFFFFFFFFFFFF DUP2 GT ISZERO PUSH2 0x315E JUMPI PUSH2 0x315D PUSH2 0x2CDF JUMP JUMPDEST JUMPDEST PUSH2 0x316A DUP8 DUP3 DUP9 ADD PUSH2 0x30AE JUMP JUMPDEST SWAP3 POP SWAP3 POP POP SWAP3 SWAP6 SWAP2 SWAP5 POP SWAP3 POP JUMP JUMPDEST PUSH1 0x0 PUSH2 0x3183 DUP3 PUSH2 0x3078 JUMP JUMPDEST SWAP1 POP SWAP2 SWAP1 POP JUMP JUMPDEST PUSH2 0x3193 DUP2 PUSH2 0x3178 JUMP JUMPDEST DUP3 MSTORE POP POP JUMP JUMPDEST PUSH1 0x0 PUSH1 0x20 DUP3 ADD SWAP1 POP PUSH2 0x31AE PUSH1 0x0 DUP4 ADD DUP5 PUSH2 0x318A JUMP JUMPDEST SWAP3 SWAP2 POP POP JUMP JUMPDEST PUSH1 0x0 PUSH1 0xFF DUP3 AND SWAP1 POP SWAP2 SWAP1 POP JUMP JUMPDEST PUSH2 0x31CA DUP2 PUSH2 0x31B4 JUMP JUMPDEST DUP3 MSTORE POP POP JUMP JUMPDEST PUSH1 0x0 PUSH1 0x20 DUP3 ADD SWAP1 POP PUSH2 0x31E5 PUSH1 0x0 DUP4 ADD DUP5 PUSH2 0x31C1 JUMP JUMPDEST SWAP3 SWAP2 POP POP JUMP JUMPDEST PUSH1 0x0 PUSH1 0x20 DUP3 DUP5 SUB SLT ISZERO PUSH2 0x3201 JUMPI PUSH2 0x3200 PUSH2 0x2CDA JUMP JUMPDEST JUMPDEST PUSH1 0x0 PUSH2 0x320F DUP5 DUP3 DUP6 ADD PUSH2 0x3063 JUMP JUMPDEST SWAP2 POP POP SWAP3 SWAP2 POP POP JUMP JUMPDEST PUSH1 0x0 DUP1 PUSH1 0x0 DUP1 PUSH1 0x0 DUP1 PUSH1 0x0 PUSH1 0xA0 DUP9 DUP11 SUB SLT ISZERO PUSH2 0x3237 JUMPI PUSH2 0x3236 PUSH2 0x2CDA JUMP JUMPDEST JUMPDEST PUSH1 0x0 PUSH2 0x3245 DUP11 DUP3 DUP12 ADD PUSH2 0x3063 JUMP JUMPDEST SWAP8 POP POP PUSH1 0x20 PUSH2 0x3256 DUP11 DUP3 DUP12 ADD PUSH2 0x3063 JUMP JUMPDEST SWAP7 POP POP PUSH1 0x40 PUSH2 0x3267 DUP11 DUP3 DUP12 ADD PUSH2 0x3099 JUMP JUMPDEST SWAP6 POP POP PUSH1 0x60 DUP9 ADD CALLDATALOAD PUSH8 0xFFFFFFFFFFFFFFFF DUP2 GT ISZERO PUSH2 0x3288 JUMPI PUSH2 0x3287 PUSH2 0x2CDF JUMP JUMPDEST JUMPDEST PUSH2 0x3294 DUP11 DUP3 DUP12 ADD PUSH2 0x30AE JUMP JUMPDEST SWAP5 POP SWAP5 POP POP PUSH1 0x80 DUP9 ADD CALLDATALOAD PUSH8 0xFFFFFFFFFFFFFFFF DUP2 GT ISZERO PUSH2 0x32B7 JUMPI PUSH2 0x32B6 PUSH2 0x2CDF JUMP JUMPDEST JUMPDEST PUSH2 0x32C3 DUP11 DUP3 DUP12 ADD PUSH2 0x30AE JUMP JUMPDEST SWAP3 POP SWAP3 POP POP SWAP3 SWAP6 SWAP9 SWAP2 SWAP5 SWAP8 POP SWAP3 SWAP6 POP JUMP JUMPDEST PUSH2 0x32DD DUP2 PUSH2 0x3078 JUMP JUMPDEST DUP2 EQ PUSH2 0x32E8 JUMPI PUSH1 0x0 DUP1 REVERT JUMPDEST POP JUMP JUMPDEST PUSH1 0x0 DUP2 CALLDATALOAD SWAP1 POP PUSH2 0x32FA DUP2 PUSH2 0x32D4 JUMP JUMPDEST SWAP3 SWAP2 POP POP JUMP JUMPDEST PUSH1 0x0 DUP1 PUSH1 0x0 DUP1 PUSH1 0x60 DUP6 DUP8 SUB SLT ISZERO PUSH2 0x331A JUMPI PUSH2 0x3319 PUSH2 0x2CDA JUMP JUMPDEST JUMPDEST PUSH1 0x0 PUSH2 0x3328 DUP8 DUP3 DUP9 ADD PUSH2 0x3063 JUMP JUMPDEST SWAP5 POP POP PUSH1 0x20 PUSH2 0x3339 DUP8 DUP3 DUP9 ADD PUSH2 0x32EB JUMP JUMPDEST SWAP4 POP POP PUSH1 0x40 DUP6 ADD CALLDATALOAD PUSH8 0xFFFFFFFFFFFFFFFF DUP2 GT ISZERO PUSH2 0x335A JUMPI PUSH2 0x3359 PUSH2 0x2CDF JUMP JUMPDEST JUMPDEST PUSH2 0x3366 DUP8 DUP3 DUP9 ADD PUSH2 0x30AE JUMP JUMPDEST SWAP3 POP SWAP3 POP POP SWAP3 SWAP6 SWAP2 SWAP5 POP SWAP3 POP JUMP JUMPDEST PUSH1 0x0 DUP1 PUSH1 0x40 DUP4 DUP6 SUB SLT ISZERO PUSH2 0x338B JUMPI PUSH2 0x338A PUSH2 0x2CDA JUMP JUMPDEST JUMPDEST PUSH1 0x0 PUSH2 0x3399 DUP6 DUP3 DUP7 ADD PUSH2 0x3063 JUMP JUMPDEST SWAP3 POP POP PUSH1 0x20 PUSH2 0x33AA DUP6 DUP3 DUP7 ADD PUSH2 0x32EB JUMP JUMPDEST SWAP2 POP POP SWAP3 POP SWAP3 SWAP1 POP JUMP JUMPDEST PUSH1 0x0 DUP1 PUSH1 0x0 DUP1 PUSH1 0x0 PUSH1 0x80 DUP7 DUP9 SUB SLT ISZERO PUSH2 0x33D0 JUMPI PUSH2 0x33CF PUSH2 0x2CDA JUMP JUMPDEST JUMPDEST PUSH1 0x0 PUSH2 0x33DE DUP9 DUP3 DUP10 ADD PUSH2 0x3063 JUMP JUMPDEST SWAP6 POP POP PUSH1 0x20 PUSH2 0x33EF DUP9 DUP3 DUP10 ADD PUSH2 0x3063 JUMP JUMPDEST SWAP5 POP POP PUSH1 0x40 PUSH2 0x3400 DUP9 DUP3 DUP10 ADD PUSH2 0x3099 JUMP JUMPDEST SWAP4 POP POP PUSH1 0x60 DUP7 ADD CALLDATALOAD PUSH8 0xFFFFFFFFFFFFFFFF DUP2 GT ISZERO PUSH2 0x3421 JUMPI PUSH2 0x3420 PUSH2 0x2CDF JUMP JUMPDEST JUMPDEST PUSH2 0x342D DUP9 DUP3 DUP10 ADD PUSH2 0x30AE JUMP JUMPDEST SWAP3 POP SWAP3 POP POP SWAP3 SWAP6 POP SWAP3 SWAP6 SWAP1 SWAP4 POP JUMP JUMPDEST PUSH1 0x0 DUP1 PUSH1 0x0 PUSH1 0x40 DUP5 DUP7 SUB SLT ISZERO PUSH2 0x3455 JUMPI PUSH2 0x3454 PUSH2 0x2CDA JUMP JUMPDEST JUMPDEST PUSH1 0x0 PUSH2 0x3463 DUP7 DUP3 DUP8 ADD PUSH2 0x32EB JUMP JUMPDEST SWAP4 POP POP PUSH1 0x20 DUP5 ADD CALLDATALOAD PUSH8 0xFFFFFFFFFFFFFFFF DUP2 GT ISZERO PUSH2 0x3484 JUMPI PUSH2 0x3483 PUSH2 0x2CDF JUMP JUMPDEST JUMPDEST PUSH2 0x3490 DUP7 DUP3 DUP8 ADD PUSH2 0x30AE JUMP JUMPDEST SWAP3 POP SWAP3 POP POP SWAP3 POP SWAP3 POP SWAP3 JUMP JUMPDEST PUSH2 0x34A5 DUP2 PUSH2 0x303A JUMP JUMPDEST DUP3 MSTORE POP POP JUMP JUMPDEST PUSH1 0x0 PUSH1 0x20 DUP3 ADD SWAP1 POP PUSH2 0x34C0 PUSH1 0x0 DUP4 ADD DUP5 PUSH2 0x349C JUMP JUMPDEST SWAP3 SWAP2 POP POP JUMP JUMPDEST PUSH1 0x0 DUP1 PUSH1 0x0 DUP1 PUSH1 0x0 PUSH1 0x80 DUP7 DUP9 SUB SLT ISZERO PUSH2 0x34E2 JUMPI PUSH2 0x34E1 PUSH2 0x2CDA JUMP JUMPDEST JUMPDEST PUSH1 0x0 PUSH2 0x34F0 DUP9 DUP3 DUP10 ADD PUSH2 0x3063 JUMP JUMPDEST SWAP6 POP POP PUSH1 0x20 PUSH2 0x3501 DUP9 DUP3 DUP10 ADD PUSH2 0x3063 JUMP JUMPDEST SWAP5 POP POP PUSH1 0x40 PUSH2 0x3512 DUP9 DUP3 DUP10 ADD PUSH2 0x2FAE JUMP JUMPDEST SWAP4 POP POP PUSH1 0x60 DUP7 ADD CALLDATALOAD PUSH8 0xFFFFFFFFFFFFFFFF DUP2 GT ISZERO PUSH2 0x3533 JUMPI PUSH2 0x3532 PUSH2 0x2CDF JUMP JUMPDEST JUMPDEST PUSH2 0x353F DUP9 DUP3 DUP10 ADD PUSH2 0x30AE JUMP JUMPDEST SWAP3 POP SWAP3 POP POP SWAP3 SWAP6 POP SWAP3 SWAP6 SWAP1 SWAP4 POP JUMP JUMPDEST PUSH2 0x3557 DUP2 PUSH2 0x2CE4 JUMP JUMPDEST DUP3 MSTORE POP POP JUMP JUMPDEST PUSH1 0x0 PUSH1 0x20 DUP3 ADD SWAP1 POP PUSH2 0x3572 PUSH1 0x0 DUP4 ADD DUP5 PUSH2 0x354E JUMP JUMPDEST SWAP3 SWAP2 POP POP JUMP JUMPDEST PUSH1 0x0 DUP1 PUSH1 0x40 DUP4 DUP6 SUB SLT ISZERO PUSH2 0x358F JUMPI PUSH2 0x358E PUSH2 0x2CDA JUMP JUMPDEST JUMPDEST PUSH1 0x0 PUSH2 0x359D DUP6 DUP3 DUP7 ADD PUSH2 0x3063 JUMP JUMPDEST SWAP3 POP POP PUSH1 0x20 PUSH2 0x35AE DUP6 DUP3 DUP7 ADD PUSH2 0x3063 JUMP JUMPDEST SWAP2 POP POP SWAP3 POP SWAP3 SWAP1 POP JUMP JUMPDEST PUSH1 0x0 DUP1 PUSH1 0x40 DUP4 DUP6 SUB SLT ISZERO PUSH2 0x35CF JUMPI PUSH2 0x35CE PUSH2 0x2CDA JUMP JUMPDEST JUMPDEST PUSH1 0x0 PUSH2 0x35DD DUP6 DUP3 DUP7 ADD PUSH2 0x3063 JUMP JUMPDEST SWAP3 POP POP PUSH1 0x20 PUSH2 0x35EE DUP6 DUP3 DUP7 ADD PUSH2 0x2FAE JUMP JUMPDEST SWAP2 POP POP SWAP3 POP SWAP3 SWAP1 POP JUMP JUMPDEST PUSH1 0x0 DUP1 PUSH1 0x0 DUP1 PUSH1 0x0 PUSH1 0x80 DUP7 DUP9 SUB SLT ISZERO PUSH2 0x3614 JUMPI PUSH2 0x3613 PUSH2 0x2CDA JUMP JUMPDEST JUMPDEST PUSH1 0x0 PUSH2 0x3622 DUP9 DUP3 DUP10 ADD PUSH2 0x3063 JUMP JUMPDEST SWAP6 POP POP PUSH1 0x20 PUSH2 0x3633 DUP9 DUP3 DUP10 ADD PUSH2 0x3063 JUMP JUMPDEST SWAP5 POP POP PUSH1 0x40 PUSH2 0x3644 DUP9 DUP3 DUP10 ADD PUSH2 0x32EB JUMP JUMPDEST SWAP4 POP POP PUSH1 0x60 DUP7 ADD CALLDATALOAD PUSH8 0xFFFFFFFFFFFFFFFF DUP2 GT ISZERO PUSH2 0x3665 JUMPI PUSH2 0x3664 PUSH2 0x2CDF JUMP JUMPDEST JUMPDEST PUSH2 0x3671 DUP9 DUP3 DUP10 ADD PUSH2 0x30AE JUMP JUMPDEST SWAP3 POP SWAP3 POP POP SWAP3 SWAP6 POP SWAP3 SWAP6 SWAP1 SWAP4 POP JUMP JUMPDEST PUSH1 0x0 PUSH6 0xFFFFFFFFFFFF DUP3 AND SWAP1 POP SWAP2 SWAP1 POP JUMP JUMPDEST PUSH2 0x369B DUP2 PUSH2 0x3680 JUMP JUMPDEST DUP2 EQ PUSH2 0x36A6 JUMPI PUSH1 0x0 DUP1 REVERT JUMPDEST POP JUMP JUMPDEST PUSH1 0x0 DUP2 CALLDATALOAD SWAP1 POP PUSH2 0x36B8 DUP2 PUSH2 0x3692 JUMP JUMPDEST SWAP3 SWAP2 POP POP JUMP JUMPDEST PUSH1 0x0 DUP1 PUSH1 0x40 DUP4 DUP6 SUB SLT ISZERO PUSH2 0x36D5 JUMPI PUSH2 0x36D4 PUSH2 0x2CDA JUMP JUMPDEST JUMPDEST PUSH1 0x0 PUSH2 0x36E3 DUP6 DUP3 DUP7 ADD PUSH2 0x3063 JUMP JUMPDEST SWAP3 POP POP PUSH1 0x20 PUSH2 0x36F4 DUP6 DUP3 DUP7 ADD PUSH2 0x36A9 JUMP JUMPDEST SWAP2 POP POP SWAP3 POP SWAP3 SWAP1 POP JUMP JUMPDEST PUSH1 0x0 DUP1 PUSH1 0x0 DUP1 PUSH1 0x0 DUP1 PUSH1 0x80 DUP8 DUP10 SUB SLT ISZERO PUSH2 0x371B JUMPI PUSH2 0x371A PUSH2 0x2CDA JUMP JUMPDEST JUMPDEST PUSH1 0x0 PUSH2 0x3729 DUP10 DUP3 DUP11 ADD PUSH2 0x3063 JUMP JUMPDEST SWAP7 POP POP PUSH1 0x20 PUSH2 0x373A DUP10 DUP3 DUP11 ADD PUSH2 0x3099 JUMP JUMPDEST SWAP6 POP POP PUSH1 0x40 DUP8 ADD CALLDATALOAD PUSH8 0xFFFFFFFFFFFFFFFF DUP2 GT ISZERO PUSH2 0x375B JUMPI PUSH2 0x375A PUSH2 0x2CDF JUMP JUMPDEST JUMPDEST PUSH2 0x3767 DUP10 DUP3 DUP11 ADD PUSH2 0x30AE JUMP JUMPDEST SWAP5 POP SWAP5 POP POP PUSH1 0x60 DUP8 ADD CALLDATALOAD PUSH8 0xFFFFFFFFFFFFFFFF DUP2 GT ISZERO PUSH2 0x378A JUMPI PUSH2 0x3789 PUSH2 0x2CDF JUMP JUMPDEST JUMPDEST PUSH2 0x3796 DUP10 DUP3 DUP11 ADD PUSH2 0x30AE JUMP JUMPDEST SWAP3 POP SWAP3 POP POP SWAP3 SWAP6 POP SWAP3 SWAP6 POP SWAP3 SWAP6 JUMP JUMPDEST PUSH1 0x0 DUP1 PUSH1 0x0 PUSH1 0x60 DUP5 DUP7 SUB SLT ISZERO PUSH2 0x37BE JUMPI PUSH2 0x37BD PUSH2 0x2CDA JUMP JUMPDEST JUMPDEST PUSH1 0x0 PUSH2 0x37CC DUP7 DUP3 DUP8 ADD PUSH2 0x3063 JUMP JUMPDEST SWAP4 POP POP PUSH1 0x20 PUSH2 0x37DD DUP7 DUP3 DUP8 ADD PUSH2 0x3063 JUMP JUMPDEST SWAP3 POP POP PUSH1 0x40 PUSH2 0x37EE DUP7 DUP3 DUP8 ADD PUSH2 0x32EB JUMP JUMPDEST SWAP2 POP POP SWAP3 POP SWAP3 POP SWAP3 JUMP JUMPDEST PUSH1 0x0 PUSH1 0x20 DUP3 DUP5 SUB SLT ISZERO PUSH2 0x380E JUMPI PUSH2 0x380D PUSH2 0x2CDA JUMP JUMPDEST JUMPDEST PUSH1 0x0 PUSH2 0x381C DUP5 DUP3 DUP6 ADD PUSH2 0x32EB JUMP JUMPDEST SWAP2 POP POP SWAP3 SWAP2 POP POP JUMP JUMPDEST PUSH32 0x4E487B7100000000000000000000000000000000000000000000000000000000 PUSH1 0x0 MSTORE PUSH1 0x22 PUSH1 0x4 MSTORE PUSH1 0x24 PUSH1 0x0 REVERT JUMPDEST PUSH1 0x0 PUSH1 0x2 DUP3 DIV SWAP1 POP PUSH1 0x1 DUP3 AND DUP1 PUSH2 0x386C JUMPI PUSH1 0x7F DUP3 AND SWAP2 POP JUMPDEST PUSH1 0x20 DUP3 LT DUP2 SUB PUSH2 0x387F JUMPI PUSH2 0x387E PUSH2 0x3825 JUMP JUMPDEST JUMPDEST POP SWAP2 SWAP1 POP JUMP JUMPDEST PUSH32 0x47686F73745061793A204C656E677468206D69736D6174636800000000000000 PUSH1 0x0 DUP3 ADD MSTORE POP JUMP JUMPDEST PUSH1 0x0 PUSH2 0x38BB PUSH1 0x19 DUP4 PUSH2 0x2DAA JUMP JUMPDEST SWAP2 POP PUSH2 0x38C6 DUP3 PUSH2 0x3885 JUMP JUMPDEST PUSH1 0x20 DUP3 ADD SWAP1 POP SWAP2 SWAP1 POP JUMP JUMPDEST PUSH1 0x0 PUSH1 0x20 DUP3 ADD SWAP1 POP DUP2 DUP2 SUB PUSH1 0x0 DUP4 ADD MSTORE PUSH2 0x38EA DUP2 PUSH2 0x38AE JUMP JUMPDEST SWAP1 POP SWAP2 SWAP1 POP JUMP JUMPDEST PUSH32 0x4E487B7100000000000000000000000000000000000000000000000000000000 PUSH1 0x0 MSTORE PUSH1 0x32 PUSH1 0x4 MSTORE PUSH1 0x24 PUSH1 0x0 REVERT JUMPDEST PUSH1 0x0 PUSH1 0x40 DUP3 ADD SWAP1 POP PUSH2 0x3935 PUSH1 0x0 DUP4 ADD DUP6 PUSH2 0x349C JUMP JUMPDEST PUSH2 0x3942 PUSH1 0x20 DUP4 ADD DUP5 PUSH2 0x349C JUMP JUMPDEST SWAP4 SWAP3 POP POP POP JUMP JUMPDEST PUSH1 0x0 PUSH1 0x40 DUP3 ADD SWAP1 POP PUSH2 0x395E PUSH1 0x0 DUP4 ADD DUP6 PUSH2 0x318A JUMP JUMPDEST PUSH2 0x396B PUSH1 0x20 DUP4 ADD DUP5 PUSH2 0x349C JUMP JUMPDEST SWAP4 SWAP3 POP POP POP JUMP JUMPDEST PUSH1 0x0 PUSH1 0x40 DUP3 ADD SWAP1 POP PUSH2 0x3987 PUSH1 0x0 DUP4 ADD DUP6 PUSH2 0x318A JUMP JUMPDEST PUSH2 0x3994 PUSH1 0x20 DUP4 ADD DUP5 PUSH2 0x2FF0 JUMP JUMPDEST SWAP4 SWAP3 POP POP POP JUMP JUMPDEST PUSH1 0x0 DUP3 SWAP1 POP SWAP3 SWAP2 POP POP JUMP JUMPDEST PUSH1 0x0 PUSH32 0xFFFFFFFFFFFFFFFFFFFFFFFFFFFFFFFFFFFFFFFF000000000000000000000000 DUP3 AND SWAP1 POP SWAP2 SWAP1 POP JUMP JUMPDEST PUSH1 0x0 DUP3 DUP3 SHL SWAP1 POP SWAP3 SWAP2 POP POP JUMP JUMPDEST PUSH1 0x0 PUSH2 0x39EB DUP4 DUP4 PUSH2 0x399B JUMP JUMPDEST DUP3 PUSH2 0x39F6 DUP2 CALLDATALOAD PUSH2 0x39A6 JUMP JUMPDEST SWAP3 POP PUSH1 0x14 DUP3 LT ISZERO PUSH2 0x3A36 JUMPI PUSH2 0x3A31 PUSH32 0xFFFFFFFFFFFFFFFFFFFFFFFFFFFFFFFFFFFFFFFF000000000000000000000000 DUP4 PUSH1 0x14 SUB PUSH1 0x8 MUL PUSH2 0x39D2 JUMP JUMPDEST DUP4 AND SWAP3 POP JUMPDEST POP POP SWAP3 SWAP2 POP POP JUMP JUMPDEST PUSH1 0x0 DUP2 MLOAD SWAP1 POP PUSH2 0x3A4D DUP2 PUSH2 0x2F97 JUMP JUMPDEST SWAP3 SWAP2 POP POP JUMP JUMPDEST PUSH1 0x0 PUSH1 0x20 DUP3 DUP5 SUB SLT ISZERO PUSH2 0x3A69 JUMPI PUSH2 0x3A68 PUSH2 0x2CDA JUMP JUMPDEST JUMPDEST PUSH1 0x0 PUSH2 0x3A77 DUP5 DUP3 DUP6 ADD PUSH2 0x3A3E JUMP JUMPDEST SWAP2 POP POP SWAP3 SWAP2 POP POP JUMP JUMPDEST PUSH2 0x3A89 DUP2 PUSH2 0x3078 JUMP JUMPDEST DUP3 MSTORE POP POP JUMP JUMPDEST PUSH1 0x0 DUP3 DUP3 MSTORE PUSH1 0x20 DUP3 ADD SWAP1 POP SWAP3 SWAP2 POP POP JUMP JUMPDEST DUP3 DUP2 DUP4 CALLDATACOPY PUSH1 0x0 DUP4 DUP4 ADD MSTORE POP POP POP JUMP JUMPDEST PUSH1 0x0 PUSH2 0x3ABB DUP4 DUP6 PUSH2 0x3A8F JUMP JUMPDEST SWAP4 POP PUSH2 0x3AC8 DUP4 DUP6 DUP5 PUSH2 0x3AA0 JUMP JUMPDEST PUSH2 0x3AD1 DUP4 PUSH2 0x2DE5 JUMP JUMPDEST DUP5 ADD SWAP1 POP SWAP4 SWAP3 POP POP POP JUMP JUMPDEST PUSH32 0x4E487B7100000000000000000000000000000000000000000000000000000000 PUSH1 0x0 MSTORE PUSH1 0x21 PUSH1 0x4 MSTORE PUSH1 0x24 PUSH1 0x0 REVERT JUMPDEST PUSH1 0x64 DUP2 LT PUSH2 0x3B1C JUMPI PUSH2 0x3B1B PUSH2 0x3ADC JUMP JUMPDEST JUMPDEST POP JUMP JUMPDEST PUSH1 0x0 DUP2 SWAP1 POP PUSH2 0x3B2D DUP3 PUSH2 0x3B0B JUMP JUMPDEST SWAP2 SWAP1 POP JUMP JUMPDEST PUSH1 0x0 PUSH2 0x3B3D DUP3 PUSH2 0x3B1F JUMP JUMPDEST SWAP1 POP SWAP2 SWAP1 POP JUMP JUMPDEST PUSH2 0x3B4D DUP2 PUSH2 0x3B32 JUMP JUMPDEST DUP3 MSTORE POP POP JUMP JUMPDEST PUSH1 0x0 PUSH1 0x80 DUP3 ADD SWAP1 POP PUSH2 0x3B68 PUSH1 0x0 DUP4 ADD DUP9 PUSH2 0x3A80 JUMP JUMPDEST PUSH2 0x3B75 PUSH1 0x20 DUP4 ADD DUP8 PUSH2 0x349C JUMP JUMPDEST DUP2 DUP2 SUB PUSH1 0x40 DUP4 ADD MSTORE PUSH2 0x3B88 DUP2 DUP6 DUP8 PUSH2 0x3AAF JUMP JUMPDEST SWAP1 POP PUSH2 0x3B97 PUSH1 0x60 DUP4 ADD DUP5 PUSH2 0x3B44 JUMP JUMPDEST SWAP7 SWAP6 POP POP POP POP POP POP JUMP JUMPDEST PUSH1 0x0 PUSH1 0x40 DUP3 ADD SWAP1 POP PUSH2 0x3BB6 PUSH1 0x0 DUP4 ADD DUP6 PUSH2 0x3A80 JUMP JUMPDEST PUSH2 0x3BC3 PUSH1 0x20 DUP4 ADD DUP5 PUSH2 0x349C JUMP JUMPDEST SWAP4 SWAP3 POP POP POP JUMP JUMPDEST PUSH2 0x3BD3 DUP2 PUSH2 0x2D69 JUMP JUMPDEST DUP2 EQ PUSH2 0x3BDE JUMPI PUSH1 0x0 DUP1 REVERT JUMPDEST POP JUMP JUMPDEST PUSH1 0x0 DUP2 MLOAD SWAP1 POP PUSH2 0x3BF0 DUP2 PUSH2 0x3BCA JUMP JUMPDEST SWAP3 SWAP2 POP POP JUMP JUMPDEST PUSH1 0x0 PUSH1 0x20 DUP3 DUP5 SUB SLT ISZERO PUSH2 0x3C0C JUMPI PUSH2 0x3C0B PUSH2 0x2CDA JUMP JUMPDEST JUMPDEST PUSH1 0x0 PUSH2 0x3C1A DUP5 DUP3 DUP6 ADD PUSH2 0x3BE1 JUMP JUMPDEST SWAP2 POP POP SWAP3 SWAP2 POP POP JUMP JUMPDEST PUSH32 0x4E487B7100000000000000000000000000000000000000000000000000000000 PUSH1 0x0 MSTORE PUSH1 0x1 PUSH1 0x4 MSTORE PUSH1 0x24 PUSH1 0x0 REVERT JUMPDEST PUSH1 0x0 PUSH1 0x40 DUP3 ADD SWAP1 POP PUSH2 0x3C67 PUSH1 0x0 DUP4 ADD DUP7 PUSH2 0x3A80 JUMP JUMPDEST DUP2 DUP2 SUB PUSH1 0x20 DUP4 ADD MSTORE PUSH2 0x3C7A DUP2 DUP5 DUP7 PUSH2 0x3AAF JUMP JUMPDEST SWAP1 POP SWAP5 SWAP4 POP POP POP POP JUMP JUMPDEST PUSH1 0x0 DUP1 REVERT JUMPDEST PUSH32 0x4E487B7100000000000000000000000000000000000000000000000000000000 PUSH1 0x0 MSTORE PUSH1 0x41 PUSH1 0x4 MSTORE PUSH1 0x24 PUSH1 0x0 REVERT JUMPDEST PUSH2 0x3CC1 DUP3 PUSH2 0x2DE5 JUMP JUMPDEST DUP2 ADD DUP2 DUP2 LT PUSH8 0xFFFFFFFFFFFFFFFF DUP3 GT OR ISZERO PUSH2 0x3CE0 JUMPI PUSH2 0x3CDF PUSH2 0x3C89 JUMP JUMPDEST JUMPDEST DUP1 PUSH1 0x40 MSTORE POP POP POP JUMP JUMPDEST PUSH1 0x0 PUSH2 0x3CF3 PUSH2 0x2CD0 JUMP JUMPDEST SWAP1 POP PUSH2 0x3CFF DUP3 DUP3 PUSH2 0x3CB8 JUMP JUMPDEST SWAP2 SWAP1 POP JUMP JUMPDEST PUSH1 0x0 PUSH8 0xFFFFFFFFFFFFFFFF DUP3 GT ISZERO PUSH2 0x3D1F JUMPI PUSH2 0x3D1E PUSH2 0x3C89 JUMP JUMPDEST JUMPDEST PUSH2 0x3D28 DUP3 PUSH2 0x2DE5 JUMP JUMPDEST SWAP1 POP PUSH1 0x20 DUP2 ADD SWAP1 POP SWAP2 SWAP1 POP JUMP JUMPDEST PUSH1 0x0 PUSH2 0x3D48 PUSH2 0x3D43 DUP5 PUSH2 0x3D04 JUMP JUMPDEST PUSH2 0x3CE9 JUMP JUMPDEST SWAP1 POP DUP3 DUP2 MSTORE PUSH1 0x20 DUP2 ADD DUP5 DUP5 DUP5 ADD GT ISZERO PUSH2 0x3D64 JUMPI PUSH2 0x3D63 PUSH2 0x3C84 JUMP JUMPDEST JUMPDEST PUSH2 0x3D6F DUP5 DUP3 DUP6 PUSH2 0x2DBB JUMP JUMPDEST POP SWAP4 SWAP3 POP POP POP JUMP JUMPDEST PUSH1 0x0 DUP3 PUSH1 0x1F DUP4 ADD SLT PUSH2 0x3D8C JUMPI PUSH2 0x3D8B PUSH2 0x2E51 JUMP JUMPDEST JUMPDEST DUP2 MLOAD PUSH2 0x3D9C DUP5 DUP3 PUSH1 0x20 DUP7 ADD PUSH2 0x3D35 JUMP JUMPDEST SWAP2 POP POP SWAP3 SWAP2 POP POP JUMP JUMPDEST PUSH1 0x0 PUSH1 0x20 DUP3 DUP5 SUB SLT ISZERO PUSH2 0x3DBB JUMPI PUSH2 0x3DBA PUSH2 0x2CDA JUMP JUMPDEST JUMPDEST PUSH1 0x0 DUP3 ADD MLOAD PUSH8 0xFFFFFFFFFFFFFFFF DUP2 GT ISZERO PUSH2 0x3DD9 JUMPI PUSH2 0x3DD8 PUSH2 0x2CDF JUMP JUMPDEST JUMPDEST PUSH2 0x3DE5 DUP5 DUP3 DUP6 ADD PUSH2 0x3D77 JUMP JUMPDEST SWAP2 POP POP SWAP3 SWAP2 POP POP JUMP JUMPDEST PUSH1 0x0 DUP2 MLOAD SWAP1 POP SWAP2 SWAP1 POP JUMP JUMPDEST PUSH1 0x0 PUSH2 0x3E04 DUP3 PUSH2 0x3DEE JUMP JUMPDEST PUSH2 0x3E0E DUP2 DUP6 PUSH2 0x3A8F JUMP JUMPDEST SWAP4 POP PUSH2 0x3E1E DUP2 DUP6 PUSH1 0x20 DUP7 ADD PUSH2 0x2DBB JUMP JUMPDEST PUSH2 0x3E27 DUP2 PUSH2 0x2DE5 JUMP JUMPDEST DUP5 ADD SWAP2 POP POP SWAP3 SWAP2 POP POP JUMP JUMPDEST PUSH1 0x0 PUSH1 0x20 DUP3 ADD SWAP1 POP DUP2 DUP2 SUB PUSH1 0x0 DUP4 ADD MSTORE PUSH2 0x3E4C DUP2 DUP5 PUSH2 0x3DF9 JUMP JUMPDEST SWAP1 POP SWAP3 SWAP2 POP POP JUMP JUMPDEST PUSH1 0x0 DUP2 SWAP1 POP PUSH1 0x20 DUP3 ADD SWAP1 POP SWAP2 SWAP1 POP JUMP JUMPDEST PUSH1 0x0 PUSH2 0x3E70 DUP3 MLOAD PUSH2 0x3078 JUMP JUMPDEST DUP1 SWAP2 POP POP SWAP2 SWAP1 POP JUMP JUMPDEST PUSH1 0x0 PUSH2 0x3E84 DUP3 PUSH2 0x3DEE JUMP JUMPDEST DUP3 PUSH2 0x3E8E DUP5 PUSH2 0x3E54 JUMP JUMPDEST SWAP1 POP PUSH2 0x3E99 DUP2 PUSH2 0x3E64 JUMP JUMPDEST SWAP3 POP PUSH1 0x20 DUP3 LT ISZERO PUSH2 0x3ED9 JUMPI PUSH2 0x3ED4 PUSH32 0xFFFFFFFFFFFFFFFFFFFFFFFFFFFFFFFFFFFFFFFFFFFFFFFFFFFFFFFFFFFFFFFF DUP4 PUSH1 0x20 SUB PUSH1 0x8 MUL PUSH2 0x39D2 JUMP JUMPDEST DUP4 AND SWAP3 POP JUMPDEST POP POP SWAP2 SWAP1 POP JUMP JUMPDEST PUSH1 0x0 PUSH1 0x40 DUP3 ADD SWAP1 POP PUSH2 0x3EF5 PUSH1 0x0 DUP4 ADD DUP6 PUSH2 0x3A80 JUMP JUMPDEST PUSH2 0x3F02 PUSH1 0x20 DUP4 ADD DUP5 PUSH2 0x3B44 JUMP JUMPDEST SWAP4 SWAP3 POP POP POP JUMP JUMPDEST PUSH2 0x3F12 DUP2 PUSH2 0x3078 JUMP JUMPDEST DUP2 EQ PUSH2 0x3F1D JUMPI PUSH1 0x0 DUP1 REVERT JUMPDEST POP JUMP JUMPDEST PUSH1 0x0 DUP2 MLOAD SWAP1 POP PUSH2 0x3F2F DUP2 PUSH2 0x3F09 JUMP JUMPDEST SWAP3 SWAP2 POP POP JUMP JUMPDEST PUSH1 0x0 PUSH1 0x20 DUP3 DUP5 SUB SLT ISZERO PUSH2 0x3F4B JUMPI PUSH2 0x3F4A PUSH2 0x2CDA JUMP JUMPDEST JUMPDEST PUSH1 0x0 PUSH2 0x3F59 DUP5 DUP3 DUP6 ADD PUSH2 0x3F20 JUMP JUMPDEST SWAP2 POP POP SWAP3 SWAP2 POP POP JUMP JUMPDEST PUSH2 0x3F6B DUP2 PUSH2 0x3680 JUMP JUMPDEST DUP3 MSTORE POP POP JUMP JUMPDEST PUSH1 0x0 PUSH1 0x20 DUP3 ADD SWAP1 POP PUSH2 0x3F86 PUSH1 0x0 DUP4 ADD DUP5 PUSH2 0x3F62 JUMP JUMPDEST SWAP3 SWAP2 POP POP JUMP JUMPDEST PUSH1 0x0 PUSH1 0x80 DUP3 ADD SWAP1 POP PUSH2 0x3FA1 PUSH1 0x0 DUP4 ADD DUP9 PUSH2 0x349C JUMP JUMPDEST PUSH2 0x3FAE PUSH1 0x20 DUP4 ADD DUP8 PUSH2 0x349C JUMP JUMPDEST PUSH2 0x3FBB PUSH1 0x40 DUP4 ADD DUP7 PUSH2 0x318A JUMP JUMPDEST DUP2 DUP2 SUB PUSH1 0x60 DUP4 ADD MSTORE PUSH2 0x3FCE DUP2 DUP5 DUP7 PUSH2 0x3AAF JUMP JUMPDEST SWAP1 POP SWAP7 SWAP6 POP POP POP POP POP POP JUMP JUMPDEST PUSH2 0x3FE3 DUP2 PUSH2 0x3078 JUMP JUMPDEST DUP2 EQ PUSH2 0x3FEE JUMPI PUSH1 0x0 DUP1 REVERT JUMPDEST POP JUMP JUMPDEST PUSH1 0x0 DUP2 MLOAD SWAP1 POP PUSH2 0x4000 DUP2 PUSH2 0x3FDA JUMP JUMPDEST SWAP3 SWAP2 POP POP JUMP JUMPDEST PUSH1 0x0 PUSH1 0x20 DUP3 DUP5 SUB SLT ISZERO PUSH2 0x401C JUMPI PUSH2 0x401B PUSH2 0x2CDA JUMP JUMPDEST JUMPDEST PUSH1 0x0 PUSH2 0x402A DUP5 DUP3 DUP6 ADD PUSH2 0x3FF1 JUMP JUMPDEST SWAP2 POP POP SWAP3 SWAP2 POP POP JUMP JUMPDEST PUSH1 0x0 PUSH1 0x60 DUP3 ADD SWAP1 POP PUSH2 0x4048 PUSH1 0x0 DUP4 ADD DUP7 PUSH2 0x3A80 JUMP JUMPDEST PUSH2 0x4055 PUSH1 0x20 DUP4 ADD DUP6 PUSH2 0x3A80 JUMP JUMPDEST PUSH2 0x4062 PUSH1 0x40 DUP4 ADD DUP5 PUSH2 0x3A80 JUMP JUMPDEST SWAP5 SWAP4 POP POP POP POP JUMP JUMPDEST PUSH1 0x0 PUSH1 0x40 DUP3 ADD SWAP1 POP PUSH2 0x407F PUSH1 0x0 DUP4 ADD DUP6 PUSH2 0x3A80 JUMP JUMPDEST PUSH2 0x408C PUSH1 0x20 DUP4 ADD DUP5 PUSH2 0x3A80 JUMP JUMPDEST SWAP4 SWAP3 POP POP POP JUMP JUMPDEST PUSH1 0x0 PUSH1 0x20 DUP3 ADD SWAP1 POP PUSH2 0x40A8 PUSH1 0x0 DUP4 ADD DUP5 PUSH2 0x3A80 JUMP JUMPDEST SWAP3 SWAP2 POP POP JUMP JUMPDEST PUSH32 0x4E6F783A20556E737570706F7274656420636861696E00000000000000000000 PUSH1 0x0 DUP3 ADD MSTORE POP JUMP JUMPDEST PUSH1 0x0 PUSH2 0x40E4 PUSH1 0x16 DUP4 PUSH2 0x2DAA JUMP JUMPDEST SWAP2 POP PUSH2 0x40EF DUP3 PUSH2 0x40AE JUMP JUMPDEST PUSH1 0x20 DUP3 ADD SWAP1 POP SWAP2 SWAP1 POP JUMP JUMPDEST PUSH1 0x0 PUSH1 0x20 DUP3 ADD SWAP1 POP DUP2 DUP2 SUB PUSH1 0x0 DUP4 ADD MSTORE PUSH2 0x4113 DUP2 PUSH2 0x40D7 JUMP JUMPDEST SWAP1 POP SWAP2 SWAP1 POP JUMP JUMPDEST PUSH1 0x0 DUP1 PUSH1 0x40 DUP4 DUP6 SUB SLT ISZERO PUSH2 0x4131 JUMPI PUSH2 0x4130 PUSH2 0x2CDA JUMP JUMPDEST JUMPDEST PUSH1 0x0 PUSH2 0x413F DUP6 DUP3 DUP7 ADD PUSH2 0x3F20 JUMP JUMPDEST SWAP3 POP POP PUSH1 0x20 PUSH2 0x4150 DUP6 DUP3 DUP7 ADD PUSH2 0x3F20 JUMP JUMPDEST SWAP2 POP POP SWAP3 POP SWAP3 SWAP1 POP JUMP INVALID LOG2 PUSH5 0x6970667358 0x22 SLT KECCAK256 0xB6 ISZERO TSTORE GT SIGNEXTEND DUP7 SWAP15 GASLIMIT CALLDATALOAD 0x26 0xAA SWAP12 DUP2 PUSH5 0x978EDFE326 0xFB POP PUSH23 0x63BC1783A6C7353DAAD964736F6C634300081C00330000 "},"methodIdentifiers":{"confidentialBalanceOf(address)":"344ff101","confidentialTotalSupply()":"54095227","confidentialTransfer(address,bytes32)":"5bebed7e","confidentialTransfer(address,bytes32,bytes)":"2fb74e62","confidentialTransferAndCall(address,bytes32,bytes)":"537d3c50","confidentialTransferAndCall(address,bytes32,bytes,bytes)":"de642119","confidentialTransferFrom(address,address,bytes32)":"eb3155b5","confidentialTransferFrom(address,address,bytes32,bytes)":"e064b9bb","confidentialTransferFromAndCall(address,address,bytes32,bytes)":"c7b8a75e","confidentialTransferFromAndCall(address,address,bytes32,bytes,bytes)":"34c45743","contractURI()":"e8a3d485","decimals()":"313ce567","depositForPayroll(uint256)":"0c248955","distributeConfidentialPayroll(address[],bytes32[])":"0733f7b5","finalizeUnwrap(bytes32,bytes)":"65f94fdb","inferredTotalSupply()":"f89d30b1","isOperator(address,address)":"b6363cf2","maxTotalSupply()":"2ab4d052","name()":"06fdde03","onTransferReceived(address,address,uint256,bytes)":"88a7ca5c","owner()":"8da5cb5b","renounceOwnership()":"715018a6","setOperator(address,uint48)":"d4febb96","supportsInterface(bytes4)":"01ffc9a7","symbol()":"95d89b41","transferOwnership(address)":"f2fde38b","underlying()":"6f307dc3","unwrap(address,address,bytes32)":"e8c15fd4","unwrap(address,address,bytes32,bytes)":"5bf4ef06","unwrapRequester(bytes32)":"eee8a0e8","wrap(address,uint256)":"bf376c7a"}}}}}