{
  "_format": "hh-sol-artifact-1",
  "contractName": "GhostPay",
  "sourceName": "contracts/GhostPay.sol",
  "abi": [
    {
      "inputs": [
        {
          "internalType": "contract IERC20",
          "name": "underlying_",
          "type": "address"
        },
        {
          "internalType": "string",
          "name": "",
          "type": "string"
        },
        {
          "internalType": "string",
          "name": "",
          "type": "string"
        },
        {
          "internalType": "string",
          "name": "",
          "type": "string"
        }
      ],
      "stateMutability": "nonpayable",
      "type": "constructor"
    },
    {
      "inputs": [
        {
          "internalType": "address",
          "name": "owner",
          "type": "address"
        }
      ],
      "name": "OwnableInvalidOwner",
      "type": "error"
    },
    {
      "inputs": [
        {
          "internalType": "address",
          "name": "account",
          "type": "address"
        }
      ],
      "name": "OwnableUnauthorizedAccount",
      "type": "error"
    },
    {
      "anonymous": false,
      "inputs": [
        {
          "indexed": true,
          "internalType": "address",
          "name": "previousOwner",
          "type": "address"
        },
        {
          "indexed": true,
          "internalType": "address",
          "name": "newOwner",
          "type": "address"
        }
      ],
      "name": "OwnershipTransferred",
      "type": "event"
    },
    {
      "anonymous": false,
      "inputs": [
        {
          "indexed": true,
          "internalType": "address",
          "name": "employer",
          "type": "address"
        },
        {
          "indexed": false,
          "internalType": "uint256",
          "name": "employeeCount",
          "type": "uint256"
        },
        {
          "indexed": false,
          "internalType": "uint256",
          "name": "totalAmount",
          "type": "uint256"
        }
      ],
      "name": "PayrollDistributed",
      "type": "event"
    },
    {
      "anonymous": false,
      "inputs": [
        {
          "indexed": true,
          "internalType": "address",
          "name": "employee",
          "type": "address"
        },
        {
          "indexed": false,
          "internalType": "bytes32",
          "name": "unwrapRequestId",
          "type": "bytes32"
        }
      ],
      "name": "SalaryClaimRequested",
      "type": "event"
    },
    {
      "anonymous": false,
      "inputs": [
        {
          "indexed": true,
          "internalType": "address",
          "name": "to",
          "type": "address"
        },
        {
          "indexed": false,
          "internalType": "bytes32",
          "name": "unwrapAmount",
          "type": "bytes32"
        }
      ],
      "name": "UnwrapRequested",
      "type": "event"
    },
    {
      "inputs": [
        {
          "internalType": "address",
          "name": "account",
          "type": "address"
        }
      ],
      "name": "confidentialBalanceOf",
      "outputs": [
        {
          "internalType": "uint256",
          "name": "",
          "type": "uint256"
        }
      ],
      "stateMutability": "view",
      "type": "function"
    },
    {
      "inputs": [
        {
          "internalType": "address",
          "name": "",
          "type": "address"
        }
      ],
      "name": "confidentialBalances",
      "outputs": [
        {
          "internalType": "uint256",
          "name": "",
          "type": "uint256"
        }
      ],
      "stateMutability": "view",
      "type": "function"
    },
    {
      "inputs": [
        {
          "internalType": "address[]",
          "name": "employees",
          "type": "address[]"
        },
        {
          "internalType": "bytes32[]",
          "name": "encryptedAmounts",
          "type": "bytes32[]"
        },
        {
          "internalType": "bytes",
          "name": "",
          "type": "bytes"
        }
      ],
      "name": "distributeConfidentialPayroll",
      "outputs": [],
      "stateMutability": "nonpayable",
      "type": "function"
    },
    {
      "inputs": [],
      "name": "owner",
      "outputs": [
        {
          "internalType": "address",
          "name": "",
          "type": "address"
        }
      ],
      "stateMutability": "view",
      "type": "function"
    },
    {
      "inputs": [
        {
          "internalType": "bytes32",
          "name": "handle",
          "type": "bytes32"
        },
        {
          "internalType": "bytes",
          "name": "",
          "type": "bytes"
        }
      ],
      "name": "reclaimToUnderlying",
      "outputs": [
        {
          "internalType": "uint256",
          "name": "",
          "type": "uint256"
        }
      ],
      "stateMutability": "nonpayable",
      "type": "function"
    },
    {
      "inputs": [],
      "name": "renounceOwnership",
      "outputs": [],
      "stateMutability": "nonpayable",
      "type": "function"
    },
    {
      "inputs": [
        {
          "internalType": "address",
          "name": "newOwner",
          "type": "address"
        }
      ],
      "name": "transferOwnership",
      "outputs": [],
      "stateMutability": "nonpayable",
      "type": "function"
    },
    {
      "inputs": [],
      "name": "underlying",
      "outputs": [
        {
          "internalType": "contract IERC20",
          "name": "",
          "type": "address"
        }
      ],
      "stateMutability": "view",
      "type": "function"
    },
    {
      "inputs": [
        {
          "internalType": "address",
          "name": "to",
          "type": "address"
        },
        {
          "internalType": "uint256",
          "name": "amount",
          "type": "uint256"
        }
      ],
      "name": "wrap",
      "outputs": [
        {
          "internalType": "bytes32",
          "name": "",
          "type": "bytes32"
        }
      ],
      "stateMutability": "nonpayable",
      "type": "function"
    }
  ],
  "bytecode": "0x60a060405234801561001057600080fd5b50604051610aaf380380610aaf83398101604081905261002f9161017c565b338061005557604051631e4fbdf760e01b81526000600482015260240160405180910390fd5b61005e81610073565b505050506001600160a01b0316608052610231565b600080546001600160a01b038381166001600160a01b0319831681178455604051919092169283917f8be0079c531659141344cd1fd0a4f28419497f9722a3daafe3b4186f6b6457e09190a35050565b634e487b7160e01b600052604160045260246000fd5b600082601f8301126100ea57600080fd5b81516001600160401b03811115610103576101036100c3565b604051601f8201601f19908116603f011681016001600160401b0381118282101715610131576101316100c3565b60405281815283820160200185101561014957600080fd5b60005b828110156101685760208186018101518383018201520161014c565b506000918101602001919091529392505050565b6000806000806080858703121561019257600080fd5b84516001600160a01b03811681146101a957600080fd5b60208601519094506001600160401b038111156101c557600080fd5b6101d1878288016100d9565b604087015190945090506001600160401b038111156101ef57600080fd5b6101fb878288016100d9565b606087015190935090506001600160401b0381111561021957600080fd5b610225878288016100d9565b91505092959194509250565b60805161085561025a6000396000818161010e015281816102f8015261044001526108556000f3fe608060405234801561001057600080fd5b50600436106100935760003560e01c8063715018a611610066578063715018a6146101485780638da5cb5b14610150578063bf376c7a14610161578063f2fde38b14610174578063f4af9da71461018757600080fd5b806328ac45b014610098578063344ff101146100cb5780635b5c9bfe146100f45780636f307dc314610109575b600080fd5b6100b86100a63660046105df565b60016020526000908152604090205481565b6040519081526020015b60405180910390f35b6100b86100d93660046105df565b6001600160a01b031660009081526001602052604090205490565b61010761010236600461068f565b61019a565b005b6101307f000000000000000000000000000000000000000000000000000000000000000081565b6040516001600160a01b0390911681526020016100c2565b6101076102bf565b6000546001600160a01b0316610130565b6100b861016f366004610735565b6102d3565b6101076101823660046105df565b6103a5565b6100b861019536600461075f565b6103e8565b600085815b818110156102795760008787838181106101bb576101bb6107ab565b9050602002013560001c905080600160008c8c868181106101de576101de6107ab565b90506020020160208101906101f391906105df565b6001600160a01b03166001600160a01b03168152602001908152602001600020600082825461022291906107d7565b90915550610232905081856107d7565b33600090815260016020526040902054909450811161027057336000908152600160205260408120805483929061026a9084906107ea565b90915550505b5060010161019f565b50604080518281526020810184905233917f0a4035a4fe1f11fea5768eee0aeb15e013920a959617d87ef5cf72f39861674a910160405180910390a25050505050505050565b6102c7610546565b6102d16000610573565b565b6040516323b872dd60e01b8152336004820152306024820152604481018290526000907f00000000000000000000000000000000000000000000000000000000000000006001600160a01b0316906323b872dd906064016020604051808303816000875af1158015610349573d6000803e3d6000fd5b505050506040513d601f19601f8201168201806040525081019061036d91906107fd565b506001600160a01b038316600090815260016020526040812080548492906103969084906107d7565b90915550829150505b92915050565b6103ad610546565b6001600160a01b0381166103dc57604051631e4fbdf760e01b8152600060048201526024015b60405180910390fd5b6103e581610573565b50565b33600090815260016020526040812054849081116104bb57336000908152600160205260408120805483929061041f9084906107ea565b909155505060405163a9059cbb60e01b8152336004820152602481018290527f00000000000000000000000000000000000000000000000000000000000000006001600160a01b03169063a9059cbb906044016020604051808303816000875af1158015610491573d6000803e3d6000fd5b505050506040513d601f19601f820116820180604052508101906104b591906107fd565b506104cc565b336000908152600160205260408120555b6040516bffffffffffffffffffffffff193360601b16602082015242603482015260009060540160408051601f19818403018152908290528051602091820120808352925033917e5a2da7c2d6d896825738938f8dec52d4bcd9538ecfdaf0dc6dd98711b4b8cf910160405180910390a250949350505050565b6000546001600160a01b031633146102d15760405163118cdaa760e01b81523360048201526024016103d3565b600080546001600160a01b038381166001600160a01b0319831681178455604051919092169283917f8be0079c531659141344cd1fd0a4f28419497f9722a3daafe3b4186f6b6457e09190a35050565b80356001600160a01b03811681146105da57600080fd5b919050565b6000602082840312156105f157600080fd5b6105fa826105c3565b9392505050565b60008083601f84011261061357600080fd5b50813567ffffffffffffffff81111561062b57600080fd5b6020830191508360208260051b850101111561064657600080fd5b9250929050565b60008083601f84011261065f57600080fd5b50813567ffffffffffffffff81111561067757600080fd5b60208301915083602082850101111561064657600080fd5b600080600080600080606087890312156106a857600080fd5b863567ffffffffffffffff8111156106bf57600080fd5b6106cb89828a01610601565b909750955050602087013567ffffffffffffffff8111156106eb57600080fd5b6106f789828a01610601565b909550935050604087013567ffffffffffffffff81111561071757600080fd5b61072389828a0161064d565b979a9699509497509295939492505050565b6000806040838503121561074857600080fd5b610751836105c3565b946020939093013593505050565b60008060006040848603121561077457600080fd5b83359250602084013567ffffffffffffffff81111561079257600080fd5b61079e8682870161064d565b9497909650939450505050565b634e487b7160e01b600052603260045260246000fd5b634e487b7160e01b600052601160045260246000fd5b8082018082111561039f5761039f6107c1565b8181038181111561039f5761039f6107c1565b60006020828403121561080f57600080fd5b815180151581146105fa57600080fdfea2646970667358221220ddf5083a2427ac3eed399c51dded779cf87990294d1808c58fffbb9eece374fd64736f6c634300081c0033",
  "linkReferences": {},
  "deployedLinkReferences": {}
}